:100000000C947B050C9498050C9498050C94132A79
:100010000C9498050C9498050C9498050C949805EC
:100020000C9498050C9498050C94081F0C94C41E0D
:100030000C94A7210C9498050C9498050C949805A1
:100040000C9498050C9498050C9498050C949805BC
:100050000C9498050C94E11F0C9498050C94980549
:100060000C9498050C9498050C9498050C9498059C
:100070000C9498050C9498050C9498050C9498058C
:100080000C9498050C9498050C9498050C9498057C
:100090000C9498050C9498050C9498050C9498056C
:1000A0000C9498050C9498050C9498050501090288
:1000B000A10185020901A1000509190129081500FE
:1000C0002501950875018102050109300931158165
:1000D000257F95027508810609381581257F9501D0
:1000E00075088106050C0A38021581257F95017572
:1000F000088106C0C005010980A101850319012AF4
:10010000B700150126B700950175108100C0050CD8
:100110000901A101850419012AA002150126A002E6
:10012000950175108100C00660FF0961A101096297
:10013000150026FF00952075088102096315002629
:10014000FF00952075089102C005010906A101056F
:100150000719E029E7150025019508750181029529
:1001600001750881010507190029FF150026FF0008
:100170009506750881000508190129059505750181
:100180009102950175039101C0000000000000007C
:10019000000000000000000000000000000000005F
:1001A000000000000000000000000000007E0F00C2
:1001B000D4FFFFFFC700000078000000000000002F
:1001C000002A2B28000000000000000000000000B2
:1001D0000000000029000000002C1E3420212224F1
:1001E000342627252E362D3738271E1F202122237F
:1001F0002425263333362E37381F04050607080911
:100200000A0B0C0D0E0F10111213141516171819D6
:100210001A1B1C1D2F3130232D3504050607080934
:100220000A0B0C0D0E0F10111213141516171819B6
:100230001A1B1C1D2F3130354C00DA0281FFD9F119
:10024000DB20A4A62EAF00A0C000A1C800AED580C0
:10025000A81FD300408D142000808182838485866E
:100260008788898A8B8C8D8E8F9091929394A0A190
:10027000A2A3A4A5A6A7A8A9AAABACADAEAFB0B1E6
:10028000B2B3B4C0C1C2C3C4C5C6C7C8C9CACBCC47
:10029000CDCECFD0D1D2D3D40000AF00AE29001E36
:1002A000001F00000020002100220000002B00148D
:1002B000001A0000000800150017000000E100040B
:1002C0000016000000070009000A000000E0001D01
:1002D000001B000000060019000500F600000000E9
:1002E00000E3000000E2008B41F400F5002A002743
:1002F000002600000025002400230000002D00132C
:1003000000120000000C0018001C00000028003340
:10031000000F0000000E00BB5D0B000000E5003880
:1003200000370000003600100011002C00E400E44B
:100330000000000000000000008A4302510000009D
:1003400000000000000000000000000000010000AC
:10035000000000000052000000000000000100004A
:10036000005000000051004F00000000000100009C
:10037000000000000051000000000001000000002B
:10038000000100000001000100000000004C008995
:10039000002E0000002D00000000000000000030D2
:1003A000002F0000000000000000000000010032EB
:1003B000003400000033000000000000000100874E
:1003C0000038000000370036000000000001000186
:1003D0000000000000000000000100010000003AE1
:1003E000003B0000003C003D003E000000010044D6
:1003F00000450000004B000000000000000100006C
:10040000004A0000004E004D000000000001000006
:100410000000000000490000000000010000000092
:10042000000100000001000100F700F8004C00434B
:100430000042000000410040003F000000010000B9
:100440000000000000A90000000000000001000002
:100450000000000000AA00BD000000000001000034
:100460000000000000A800BE000000000001000124
:10047000000000000000000000010001000000007A
:10048000000000000000000000000000000100006B
:10049000000000000000000000000000000100005B
:1004A0000047000000000000000000000001000004
:1004B0000000000000390200000000010000000000
:1004C000000100000001000100F700F8004C0000EE
:1004D000000000000000000000000000000100001B
:1004E00000BB000000AD00BC0000000000010000E7
:1004F00000AB000000AE00AC0000000000010000F6
:100500000000000000000000005300000001000196
:100510000000000000000000000100010009025B73
:1005200000030100A0FA0904000001030101000911
:100530002111010001224000070581030800010983
:100540000401000203000000092111010001222220
:1005500000070582032000010705030320000109AD
:100560000402000103000000092111010001227BA7
:1005700000070584032000011201000200000008AA
:100580005759000101000102000114034B006500EE
:100590007900620061006C006C00360031000000E0
:1005A000100359006F0077006B0065006500730051
:1005B0000000040309040000000000003E5B4F5BE4
:1005C0003E003E6B4F6B3E001C3E7C3E1C00183CC8
:1005D0007E3C18001C577D571C001C5E7F5E1C0073
:1005E00000183C180000FFE7C3E7FF0000182418BC
:1005F0000000FFE7DBE7FF0030483A060E0026293F
:1006000079292600407F05050700407F05253F002A
:100610005A3CE73C5A007F3E1C1C0800081C1C3E4C
:100620007F0014227F2214005F5F005F5F000609D5
:100630007F017F00006689956A00606060606000ED
:1006400094A2FFA2940008047E04080010207E20DB
:10065000100008082A1C0800081C2A0808001E10A0
:10066000101010000C1E0C1E0C0030383E383000EC
:10067000060E3E0E060000000000000000005F00B5
:100680000000000700070000147F147F1400242AD4
:100690007F2A120023130864620036495620500056
:1006A000000807030000001C224100000041221C3A
:1006B00000002A1C7F1C2A0008083E080800008051
:1006C00070300000080808080800000060600000A2
:1006D0002010080402003E5149453E0000427F4080
:1006E00000007249494946002141494D3300181420
:1006F000127F10002745454539003C4A49493100E1
:10070000412111090700364949493600464949291E
:100710001E0000001400000000403400000000082B
:10072000142241001414141414000041221408006F
:100730000201590906003E415D594E007C1211121A
:100740007C007F49494936003E41414122007F41BA
:1007500041413E007F49494941007F0909090100A3
:100760003E41415173007F0808087F0000417F41EE
:1007700000002040413F01007F08142241007F40DB
:10078000404040007F021C027F007F0408107F0071
:100790003E4141413E007F09090906003E41512189
:1007A0005E007F09192946002649494932000301A4
:1007B0007F0103003F4040403F001F2040201F00BA
:1007C0003F4038403F00631408146300030478047A
:1007D00003006159494D4300007F4141410002043B
:1007E00008102000004141417F0004020102040082
:1007F0004040404040000003070800002054547867
:1008000040007F2844443800384444442800384499
:1008100044287F0038545454180000087E09020010
:100820001824241C78007F080404780000447D40CC
:1008300000002040403D00007F102844000000419F
:100840007F4000007C04780478007C080404780071
:100850003844444438007C182424180018242418F0
:100860007C007C0804040800485454542400040408
:100870003F4424003C4040207C001C2040201C00C1
:100880003C4030403C004428102844004C9090905C
:100890007C004464544C44000008364100000000D1
:1008A0007700000000413608000002010204020047
:1008B0003C2623263C000000000000000000000051
:1008C0000000000000000000000000000000C0F078
:1008D000F88C86C6E7FFFFFFFFFFFFFEFCFCF8E099
:1008E00080000000F0F0F00000C0E0F07070000048
:1008F00000000000000000000000000000000000F8
:1009000000000000F8F8F8000000000000000000FF
:1009100000000000000000000000F8F8F80000F8F7
:10092000F8F80000000000000000000000000000D7
:1009300000000000E0F0F0F0E0ECEEF7F3702000D3
:100940007C7C7C7E007E7E7E7F7F7F000080C0E09E
:100950007E5B4F5BFEC00000C000DCD7DEDEDED772
:10096000DC00C000000000000000000000000000EB
:100970000000000000000000000000000000000077
:100980000000000000000080E07078686C64C7C759
:10099000C7C7C7C7E73F1F0F3FFFFFFFFFFFFF3F6F
:1009A0000F000000FFFFFF1E3FFFF3E1800000F893
:1009B000FCFE3636363EBCB8000E3EFEF080F0FE41
:1009C0003E0E0000FFFFFF060606FEFEFC7000E67E
:1009D000F6F63636FEFEFC000000FFFFFF0000FFCB
:1009E000FFFF000000000000000000000000000009
:1009F000000000000F1F3F7F7F7F7F7F3F1E0C00A6
:100A00001F1F1F3F003F3F3F7F7F7F00307B7F786E
:100A100030202030787F3B0003000F7F0F0F0F7FC7
:100A20000F000300000000000000000000000000B4
:100A300000000000000000000000000000000000B6
:100A40000000000000003C7F6360E0C0C0C0C0C088
:100A5000C0C0C0FFFFC06030180F030303010000D7
:100A60000000000003030300000003030303000170
:100A70000303030303030301007070393F1F0701E1
:100A8000000000000103030303030303010000014E
:100A90000303030303030100000003030300000337
:100AA0000303000000000000000000000000000040
:100AB0000000000000000000000000000000000036
:100AC0000000000000000000000000000000000026
:100AD0000000000000000000000000000000000016
:100AE0000000000000000000000000000000000006
:100AF00000000000000011241FBECFEFDAE0DEBFCF
:100B0000CDBF11E0A0E0B1E0E0E5FCE502C005905A
:100B10000D92A43CB107D9F725E0A4ECB1E001C0E7
:100B20001D92A236B207E1F70E94CE210C94F32D5C
:100B30000C940000E8EDF0E080818E7F80831092BD
:100B4000E2001092DA001092E100A0EEB0E08C9189
:100B500081608C9380818F77808319BCA7EDB0E092
:100B60008C918E7F8C9380818F7E80831092310355
:100B700008952091E4003091E50095E6A9012091C7
:100B8000EC00822F817020FF06C08091E80080FF7A
:100B900006C080E008952091E80022FD1AC08091EF
:100BA0003F03882389F0853089F08091EB0085FD33
:100BB0000FC02091E4003091E50042175307F9F28D
:100BC0009150E1F684E0089582E0089583E008956D
:100BD00081E00895EF92FF920F931F93CF937C01D2
:100BE0008B010E94B905C82F811117C08091E800C0
:100BF00085FD0BC08091E8008E778093E8000E940D
:100C0000B905882399F3C82F08C0F70181917F01A6
:100C10008093F1000150110949F78C2FCF911F915A
:100C20000F91FF90EF9008958091410387FF13C0CB
:100C30008091E80082FF06C08091E8008B77809366
:100C4000E80004C080913F038111F2CF08958091A4
:100C50003F038823D9F38091E80080FFF8CF80918B
:100C6000E8008E77ECCF982F9093E900242F762F11
:100C700050E0891731F07091EC002091ED00509117
:100C8000F00021FD07C09F5F973071F78093E90066
:100C900081E008953091EB003E7F3093EB0030917E
:100CA000ED003D7F3093ED003091EB0031603093EB
:100CB000EB007093EC002093ED005093F000209136
:100CC000EE0027FDE0CF80E00895B0E0A0E0EBE685
:100CD000F6E00C944D2BC8EDD0E088818F7E8883A0
:100CE000E7EDF0E080818160808384E082BF81E075
:100CF0008093310388818E7F888302EE10E0F801B3
:100D000010821092DA0081EEC82ED12CF6011082EA
:100D100088818F77888388818068888388818F7DA8
:100D2000888319BC10923F031092400310923E0337
:100D300010923D0390EEE92EF12CF70180818B7F1C
:100D4000808388818160888342E060E080E00E9447
:100D50003306F60180818E7F8083F8018081816077
:100D60008083808188608083F70180818E7F80838B
:100D7000888180618883CDB7DEB7E8E00C94692B69
:100D8000FC01809147039091480386179707A0F0D4
:100D90006115710529F49091E8009E779093E80021
:100DA00090E06115710551F4911108C08091E8003F
:100DB00082FF34C080E00895BC01F2CF80913F03F0
:100DC0008823C1F18530C1F18091E80083FD30C0F6
:100DD0008091E80082FDEACF8091E80080FFE1CFBA
:100DE0008091F3002091F200382F6115710519F000
:100DF0002830310558F091E02830310509F090E0B5
:100E00002091E8002E772093E800CBCF819180934A
:100E1000F100615071092F5F3F4FE7CF80913F0391
:100E2000882341F0853041F08091E80083FFBECFF8
:100E300081E0089582E0089583E008950895809107
:100E40003403089587E797E790930108809300089B
:100E500088E19AE00FB6F894A895809360000FBEE1
:100E600090936000FFCF2FB7F89460912A037091A0
:100E70002B0380912C0390912D032FBF08959C018B
:100E8000FC0132969FEF80E04191461751F09F3F61
:100E900019F4411101C0982F8F5F8630A9F79F3F49
:100EA00009F40895290F311D97FD3A95F9016283E0
:100EB000089520912703309128032817390771F0EE
:100EC0009093280380932703E0912503F091260354
:100ED000309721F00084F185E02D09950895209147
:100EE0002303309124032817390771F090932403CA
:100EF00080932303E0912503F0912603309721F09E
:100F00000680F781E02D09950895FC01680F791F8F
:100F10008FEF91E32191822728E030E087FF09C01D
:100F2000880F892721503109C9F7E617F70791F78C
:100F30000895880FF7CF8091EF02F901808308951B
:100F4000CF93DF93EFEEF2E083819481A581B681A8
:100F5000E90188839983AA83BB8314821382168252
:100F60001582DF91CF91089580E0089563E070E0ED
:100F700080E592E00E94850790914F02891318C086
:100F8000E0915002EA30A4F488E0E802F001112474
:100F9000E65FFE4F0680F781E02D309749F023E7AA
:100FA00032E04091520263E572E08091510209956E
:100FB0000895EAE0F1E0A5E4B2E01C968C911C975C
:100FC00080A31D968C9183AB08959091A60292FF09
:100FD00006C0282F28712830F9F4877F846093FF9A
:100FE00006C0282F28712831F1F4877E8461209172
:100FF000A70220FF06C0382F38713830D9F4877F18
:10100000816021FF06C0282F28712831D1F4877E06
:10101000816194FD877E0895282F24712430F9F68C
:101020008B7F8860DCCF282F2471243101F78B7EE1
:101030008861DDCF382F3171313019F78E7F8860AC
:10104000E0CF282F2171213121F78E7E8861E1CFF9
:10105000CF93DF93EC0182389105B1F108F040C0E5
:101060008133910509F49DC048F58932910509F451
:101070008DC08A9709F49CC0C11522E5D20708F0FB
:10108000BDC0C11531E5D30708F024C1C83ED10564
:1010900008F0A3C0C13ED10588F5C83AD10508F0D3
:1010A0008EC0C53AD10508F0F6C0C130D10531F186
:1010B000209721F1C430D10508F545C0853391054D
:1010C00009F45FC0C997C1F68091A602837009F048
:1010D00036C18091A70283FF11C0C9E2D0E00EC0E3
:1010E000833E910599F170F4803E910501F1823EB5
:1010F000910511F68091A60282FD21C0CE01DF91FB
:10110000CF910895863E910561F1873E910571F179
:10111000843E910509F0B0CF8091A70281FFEECF08
:101120008091A602C7EED0E084FD0DC0E7CF80918C
:10113000A60280FD33C09091A70290FFDFCFC3EEDF
:10114000D0E084FFDBCFD0E0C0E0D8CF8091A60212
:1011500082FDF2C09091A70290FDF1C084FFCECF36
:10116000F2CF8091A60283FDDDCFC8CF8091A60289
:1011700083FDE8C09091A70291FFF0CFC4EED0E0CC
:10118000BDCF8091A60285FFB9CFA7CF8091A602DF
:1011900085FDDBC08091A70283FFB0CFC9E3D0E01B
:1011A000ADCF8091A60286FFA9CFCAE2D0E0A6CF3C
:1011B0008091A60286FFA2CFC1E3D0E09FCFCF3BB4
:1011C000D10508F6C85AD0E0CC0FDD1FCE58DE4F4F
:1011D0000990D881C02DD46491CFC11540E5D407C2
:1011E00008F064C0C11580E4D80708F05CC0CE01E7
:1011F0009A9581159F4108F481CFA5CFC11536E599
:10120000D30718F5C11545E5D40708F07CC0C11512
:1012100084E5D80708F072C09E01237033279C2F05
:1012200096959695C115D34508F459C0C1E0D0E014
:1012300002C0CC0FDD1F2A95E2F730E2939FC00178
:101240001124C82BD92BDA6859CFC1158AE5D807E4
:1012500078F4C11529E5D20708F060C0C11538E55A
:10126000D30708F470CFDC2FCC27C06FD06A46CFED
:10127000CE0190568115904208F065CF8D2F8F7169
:101280000E94E50790E0982F882788279F719C018E
:101290002C2BE90141C0C55AD0E0C159DE4FC881AD
:1012A000D0E0D0642BCFDF70D06A28CFCE0183701E
:1012B000992721E030E002C0220F331F8A95E2F720
:1012C000C695C69580E2C89FE0011124C22BD32B9E
:1012D000DD6814CFDC2FCC27C16FD06A0FCFC1E0FF
:1012E000D0E002C0CC0FDD1F2A95E2F720E2929FEA
:1012F000C0011124C82BD92BDC6800CFDC2FCC27F0
:10130000C46FD06AFBCE8C2F0E94E507C82FD0E0B7
:10131000DC2FCC27CC27DF71D062F0CE8C2F8F70E2
:101320000E94E50734E0D695C7953A95E1F7CF706E
:101330009C2FEC01D069E2CEC2EED0E0DFCEC0EE51
:10134000D0E0DCCEC6EED0E0D9CEC5E3D0E0D6CE3C
:1013500080914202811110924202089580959091ED
:10136000320398239093320308958091370290912D
:101370000602981301C008958F5F8770FACF9A30E4
:1013800080F5883070F548E0949F90011124820F19
:10139000932F911D682F677023E0969587952A9566
:1013A000E1F7FC01EE0FFF1FE80FF91FEE51FE4FB2
:1013B00050E040E080E0219130E0062E02C03695FA
:1013C00027950A94E2F721703327042E01C0220FDB
:1013D0000A94EAF7822B4F5F5F4F4330510559F76C
:1013E000089580E008959A3098F5883088F548E0AF
:1013F000949F90011124820F932F911D282F277005
:1014000041E001C0440F2A95EAF723E096958795BD
:101410002A95E1F7FC01EE0FFF1FE80FF91FEE51CF
:10142000FE4F90E080E070E05191DF0111979B0149
:10143000082E02C0369527950A94E2F7217021956F
:101440002527242325272C9301968330910561F7C6
:101450000895982F92959F7011F0892F94E0282F6E
:101460002695269511F09E5F822F869509F09F5F45
:10147000892F0895CF93C82F8091FC028C1751F0CB
:101480000E9433076093FD027093FE028093FF0277
:1014900090930003C093FC02CF910895B0E0A0E0C8
:1014A000E4E5FAE00C944D2BFC01EB019091010373
:1014B000911101C094E06081718191509B01092ECE
:1014C00002C0359527950A94E2F7D901092E02C08A
:1014D000AA0FBB1F0A94E2F76A1B7B0B7183608320
:1014E000628173818B01092E02C0159507950A94BC
:1014F000E2F7D80102C0AA0FBB1F9A95E2F76A1B58
:101500007B0B7383628381E80138BFEF1B072CF0EC
:10151000802F003811050CF08FE78D8321389FEF65
:10152000390754F1203831054CF5922F91959C8361
:10153000442319F081958D832C830E9433072D81DC
:10154000211103C02C812223D9F0609302037093F0
:1015500003038093040390930503809106039BE0AB
:10156000980F973120F4080F009306031D82CDB722
:10157000DEB7E8E00C94692B21E8D7CF2FE7D5CF71
:10158000C0900203D0900303E0900403F0900503A1
:101590006C197D098E099F096436710581059105D5
:1015A000E0F210920603D9CF9C01860F971F37FDFA
:1015B00007C077FD04C097FF02C08FEF9FE7089533
:1015C00077FFFDCF97FDFBCF80E090E80895E82FEF
:1015D000E295EF70F0E031A1282F2F7081E090E0CC
:1015E00001C0880F2A95EAF7382B31A392A1809584
:1015F000892382A30895E82FE295EF70F0E031A1EE
:10160000282F2F7081E090E001C0880F2A95EAF71B
:10161000982F9095932391A392A1892B82A308954B
:10162000B0E0A0E0E6E1FBE00C944D2B7C016B0107
:101630008091550501E010E08A3010F40AE010E0D6
:10164000C1E0D0E06BE575E0C701F60109958111B5
:1016500004C021960C171D072CF4CDB7DEB7E8E0C7
:101660000C94692BCC9F9001CD9F300D300D11242F
:1016700090E080E045E34A95F1F70000019682177B
:101680009307C1F7DFCF80932E03709330036093ED
:101690002F0380913F038430F9F48093E9008FEFAA
:1016A0009091E800815095FD06C095ED9A95F1F76F
:1016B00000008111F5CF8091E80085FF0DC050E05A
:1016C00040E063E070E08EE293E00E94EA058091E2
:1016D000E8008E778093E8000895BC0184E00E94C2
:1016E000430B0895BC0183E00E94430B08959C01C5
:1016F00084E08093E9009FEF8091E800915085FDA0
:1017000006C085ED8A95F1F700009111F5CF809123
:10171000E80085FF0CC050E040E066E070E0C901E1
:101720000E94EA058091E8008E778093E800089592
:10173000CF93DF93EC0181E08093E9008FEF9091EC
:10174000E800815095FD06C095ED9A95F1F70000EF
:101750008111F5CF8091E80085FF14C050E040E092
:1017600068E070E0CE010E94EA058091E8008E7783
:101770008093E80088E0FE01A5E3B3E001900D92BC
:101780008A95E1F7DF91CF9108958091440281110C
:1017900019C082E390E02091E30027FD10C0EFE341
:1017A000FCE93197F1F700C000000197A1F782E052
:1017B000809344020E949A0510923F0303C081E087
:1017C0008093440281E090914402913011F080E0D6
:1017D000089508950E94C50B882359F0E0912503D0
:1017E000F0912603309729F00190F081E02D0995C2
:1017F000089580E0089557985F9A879A8F9825E01A
:101800002A95F1F7000089B187988F9A90EA9A9506
:10181000F1F790E0880F892F881F990B21E082272C
:1018200081700895CF93DF93C0915305D0915405F3
:101830008A30C1F420914A03CE018D549340622F27
:1018400070E00E942F2B281B822F66E00E947A2BCB
:10185000C82FC15018F4DF91CF91089580E20E9403
:10186000120CF7CF8D30E9F4CD54D34020914A03C8
:10187000622F70E0CE010E942F2B281B822F9E0129
:10188000280F311D2115324018F080E0D0E0C0E073
:10189000C80FD11DC35BDC4FD0935405C0935305D3
:1018A000DACF96E0FE01ADE4B5E001900D929A9595
:1018B000E1F7803E08F458C086E0FE0111928A9557
:1018C000E9F7C0915305D091540546E050E0BE01C0
:1018D0008DE495E00E949C2B9E012D543340892B72
:1018E00041F1C90145E0969587954A95E1F741E0B8
:1018F00050E0BA0102C0660F771F8A95E2F7CB016C
:1019000060914B0370914C03862B972BB9016B5F51
:101910007F4FE5E076956795EA95E1F702C0440FC1
:10192000551F6A95E2F7842B952B90934C03809377
:101930004B032A5F3F4F40914A03642F70E0C90177
:101940000E942F2B481B463010F4240F311D211507
:1019500072E0370710F030E020E0235B3C4F30931B
:1019600054052093530577CFF6E08F9FB0011124E3
:101970006A547A4F46E050E0CE010E94932BA1CFEB
:10198000AEE1B0E0E6ECFCE00C94532B4091170381
:10199000509118036091190370911A0380911B03F1
:1019A00090911C030E94F5152093170330931803A0
:1019B0004093190350931A0360931B0370931C0305
:1019C00086E0E7E1F3E0DE01179601900D928A953B
:1019D000E1F786E0FE013796DE011D9601900D923B
:1019E0008A95E1F786E0FE013D96DE0111960190B1
:1019F0000D928A95E1F786E0FE013196A7E1B3E00A
:101A000001900D928A95E1F786E0E7E1F3E0DE01CF
:101A1000599601900D928A95E1F786E0FE0179963C
:101A2000DE01179601900D928A95E1F786E0FE019E
:101A30003796DE01119601900D928A95E1F786E0C6
:101A4000FE013196DE01539601900D928A95E1F7E1
:101A500086E0FE017396DE01179601900D928A953D
:101A6000E1F786E0FE013796A7E1B3E001900D9221
:101A70008A95E1F746E050E061E173E087E193E0A9
:101A80000E949C2B892B79F0E0912503F09126038D
:101A9000309749F082E0809317030480F581E02DB0
:101AA00087E193E009951092190310921A0310929E
:101AB0001B0310921C0386E0E7E1F3E0A1E1B3E031
:101AC00001900D928A95E1F76E96E2E00C946F2BEF
:101AD0008091320390914102892B8093C6019091AD
:101AE0004202992391F0892B8093C60120E088EC73
:101AF00091E0FC013191CF0131112F5FF1E08E3C7B
:101B00009F07B9F721110E94A80948E050E069E356
:101B100072E086EC91E00E949C2B892BA9F088E072
:101B2000E6ECF1E0A9E3B2E001900D928A95E1F7CD
:101B3000E0912503F0912603309731F00280F38184
:101B4000E02D86EC91E00995089590E080E00E94F8
:101B50006F0790E080E00E945907109241020E94B6
:101B6000680D0895CF93C82F0E94290A91E0833011
:101B700009F090E0892F0E943A0AC09349030E941D
:101B8000A50DCF91089580914903982F96709630B6
:101B900021F488600E94B20D0895877FFBCF21E079
:101BA00030E001C0220F8A95EAF720958091490321
:101BB00082230E94B20D0895909138028095892366
:101BC00080933802282F277091F4282F082E000CBC
:101BD000330B9217130659F09091A70292FF07C09A
:101BE0008595859585950E94CF0D109238020895B0
:101BF00021E030E001C0220F8A95EAF78091490385
:101C0000822B0E94B20D0895809343020E94A50D7D
:101C10000895E8ECF1E086E0DF011D928A95E9F78E
:101C20000E94A50D0895AAE2B0E0E9E1FEE00C945F
:101C3000522B81E493E02091F100DC012D93CD0142
:101C4000B3E089349B07B9F780914203833009F4EC
:101C500072C0B8F4813009F449C0823009F4B5C0CB
:101C60008091E80083FF8DC28091410390914203EF
:101C70009A3008F086C2E92FF0E0EB50F24D0C9458
:101C8000862B8A3009F490C08B3009F471C08930FA
:101C900039F780914103813219F780914503909182
:101CA0004603009711F00297D9F68091E800877FEC
:101CB0008093E8008091E80082FF38C09091F300A3
:101CC0008091F200029731F48091F100813011F09F
:101CD000863021F48091F100809334038091E800F4
:101CE0008B778093E8000E941406BACF809141035D
:101CF000813A09F0B5CF8091E800877F8093E800B2
:101D00008091450390914603892B61F468E085E357
:101D100093E070E00E94C0068091E8008B7780938A
:101D2000E8009ECF60E090E080E0F3CF80913F0339
:101D30008111C0CF95CF80914103813A09F090CFB6
:101D40008091450390914603892B09F089CF8091BA
:101D5000E800877F8093E8008091E80080FFFCCF57
:101D600080916D018093F1008091E8008E77B9CF6A
:101D700080914103813209F073CF809145039091A6
:101D80004603892B09F06CCF8091E800877F809310
:101D9000E8000E9414068091430380936D01109225
:101DA00032030E94090E5CCF80914103813209F019
:101DB00057CF8091E800877F8093E8000E94140647
:101DC00080914403809333034BCF80914103813A48
:101DD00009F046CF8091E800877F8093E8008091EA
:101DE000E80080FFFCCF80913303BCCF803899F0AE
:101DF000823809F0C6C1809145038F70873008F0A2
:101E0000C0C18093E9008091EB0085FB882780F9B1
:101E10001092E90006C080913D0390913E0391111C
:101E200082609091E800977F9093E8008093F100A2
:101E30001092F1008091E8008E779FC1882309F409
:101E40008DC1823009F09DC180914303811190C101
:101E5000809145038F702FEF280F263008F091C135
:101E60008093E9002091EB0020FF82C1933031F490
:101E70008091EB0080628093EB007AC19091EB003F
:101E800090619093EB0021E030E001C0220F8A9531
:101E9000EAF72093EA001092EA008091EB00886054
:101EA000EACF81116EC1109143031F778091E30047
:101EB0008078812B8093E3008091E800877F809376
:101EC000E8000E9414068091E80080FFFCCF80911A
:101ED000E30080688093E30082E0111183E0809347
:101EE0003F034FC18058823008F04BC1209143031B
:101EF000309144032C3DE3E03E07A1F583E08A8363
:101F00008AE289834FB7F894DE01139620E03EE021
:101F100051E2E32FF0E050935700E49120FF03C01B
:101F2000E295EF703F5FEF708E2F90E0EA30C0F0E7
:101F3000C7968D939D932F5F243159F74FBF8091A2
:101F4000E800877F8093E8006AE270E0CE010196A6
:101F50000E94C0068091E8008B778093E80011C151
:101F6000C096E7CF8091450390914603432F5527B4
:101F70004330510509F44AC078F54130510509F460
:101F80007AC08BE590E0EDE1F5E04230510509F0D3
:101F9000F8C02091E800277F2093E80020914703B4
:101FA000309148038217930708F49C0140E0211503
:101FB000310509F065C0411163C08091E80082FDE0
:101FC000C9CF80913F03882329F2853019F280918F
:101FD000E80083FFF2CFBECF4132510509F43CC087
:101FE0004232510509F0CDC08330910508F0C9C0D7
:101FF000FC01EE0FFF1FE954FE4F0190F081E02D30
:102000008C549E4FDC018C9190E01AC03327213014
:102010003105D1F02115310561F02230310509F08B
:10202000B0C0EAE8F5E0E4918E2F90E0EAE8F5E050
:1020300007C0E2EBF5E0E4918E2F90E0E2EBF5E0F3
:10204000009709F49EC0A5CFE0EAF5E0E4918E2F59
:1020500090E0E0EAF5E0F4CF8330910508F091C01C
:10206000880F991FFC01E354FE4F0190F081E02D91
:1020700089E090E08ECF82E190E0E8E7F5E089CF5B
:1020800080913F03882309F465CF853009F462CF3E
:102090008091E80083FD5ECF8091E80082FD8DCFC6
:1020A0008091E80080FF83CF9091F3008091F2004F
:1020B0002115310519F08830910550F041E008975D
:1020C00009F040E08091E8008E778093E8006FCFC0
:1020D00044914093F1003196215031090196E8CFA7
:1020E000803809F04EC08091E800877F8093E80037
:1020F000809140038093F1009DCE811142C01091E8
:1021000043031230F0F58091E800877F8093E80068
:10211000109340030E941406112311F084E005C0BF
:102120008091E30087FDFACF81E080933F0342E096
:1021300061EC81E00E94330642E261EC84E00E949F
:10214000330642E261EC82E00E94330642E260EC38
:1021500083E00E94330680913F0313C080914303C4
:10216000813079F481E0933009F080E080933E0380
:102170001092E9008091E800877F8093E8000E9438
:1021800014068091E80083FF0AC08091E800877FF1
:102190008093E8008091EB0080628093EB00AA9628
:1021A000E3E00C946E2B109232030E94090E2FEF85
:1021B00084E39CE0215080409040E1F700C00000A3
:1021C00088E19AE00FB6F894A895809360000FBE5E
:1021D00090936000FFCF882321F00E94AE090E94F7
:1021E000680D0895882339F090913203982B9093CD
:1021F00032030E94680D0895882391F19CEF980F97
:10220000913A80F4E8ECF1E02EEC31E09191891301
:1022100003C0DF0111971C922E173F07B9F70E94E8
:10222000680D089590E2980F983050F4877091E00F
:1022300001C0990F8A95EAF7892F0E94AE09EFCF66
:102240009BE5980F933028F490E080E00E946F07A0
:102250000895885A873120F490E080E00E94590761
:102260000895CF93C82F8823B1F08CEF8C0F813A5B
:1022700000F5E8ECF1E08EEC91E0DF012D91C21762
:1022800061F08A179B07D1F76C2F86EC91E00E94D2
:102290003F070E94680DCF9108952191C21303C09A
:1022A000DF0111971C928E179F07B9F70E94680DE6
:1022B000EBCF80E28C0F883068F4C77021E030E00B
:1022C00001C0220FCA95EAF780913203822B8093D6
:1022D0003203DFCFEBE5EC0FE33040F4F0E0E159FF
:1022E000FE4F808190E00E946F07D5CFC85AC7315A
:1022F00090F6EC2FF0E0EE0FFF1FEE58FE4F8081BE
:1023000091810E945907C7CF1F93CF93DF93182F56
:10231000C5E0D0E0893311F4C0E5D0E0812F0E9400
:1023200031118FE99FE00197F1F700C0000021977C
:10233000C1F7812F0E94FC10DF91CF911F9108956A
:10234000B0E0A0E0E6EAF1E10C944D2B6C017B01DA
:1023500064E670E088E70E948D28EC0197FD12C0CA
:1023600010E000E0F601E00FF11F849164E670E0F8
:102370000E94F928EC01892B29F40F5F1F4F0E15DD
:102380001F0581F70E946F29CE01CDB7DEB7E8E0C7
:102390000C94692B8091210390912203911103C029
:1023A00091E089270895882369F062E070E08BE965
:1023B00092E00E94A011892B19F0809121030895C9
:1023C0001092210380912103EBCFCF93C091210381
:1023D000809122038823D1F00E943307605A75410F
:1023E0008F4F9F4F60931D0370931E0380931F03B5
:1023F00090932003C11108C062E070E089E992E087
:102400000E94A011892B29F0C09121038C2FCF911C
:10241000089581E080932103F7CFCF93DF93C7EA3C
:10242000D2E060E0CE010E94C62B2196C11584E067
:10243000D807B9F7DF91CF9108951F93CF93DF931A
:10244000122F8430E0F46A30D0F44830C0F490E1C8
:10245000699FE001112450E0440F551FC40FD51FA0
:1024600090EA899FC00DD11D1124632FCE0187965C
:102470000E94C62B612FCE0188960E94C62BDF9149
:10248000CF911F910895AF92BF92CF92DF92EF92BA
:10249000FF921F93CF93DF938DE9C82E82E0D82E51
:1024A000D0E07601C0E014C0F50125913491412FB0
:1024B0006C2F8D2F0E941D1282E0A80EB11C1F5F91
:1024C000183091F780E1E80EF11CCF5FCA3019F0A7
:1024D000570110E0E9CFDF5F80EAC80ED11CD4308D
:1024E00001F7DF91CF911F91FF90EF90DF90CF9098
:1024F000BF90AF90089586E290E00E94C62B0895A9
:10250000CF93C82F6FEF811162E283E290E00E94C7
:10251000C62B6FEFC11162E184E290E00E94C62BEE
:102520006FEFC11167E285E290E00E94C62BCF9168
:10253000089580E00E94801260E070E0CB010E946C
:102540007B120E9443120E940D1281E00E948012B1
:102550000895CF93C091A702C2FB992790F99817CD
:1025600091F080FBC2F9C093A7026091A60284E0BB
:1025700090E00E94C62B6C2F82E290E00E94C62B56
:1025800082E00E94DC0DCF9108950F931F93CF93AB
:10259000DF93843030F56A3020F5483010F520E1C3
:1025A000629F8001112450E0440F551F040F151F36
:1025B00030EA839F000D111D1124C80187960E94E7
:1025C000B22BC82FD0E0DC2FCC27C80188960E9400
:1025D000B22B9E01282BC901DF91CF911F910F9142
:1025E000089590E080E0F8CF462F843040F47A30B0
:1025F00030F4683020F4672F0E94C512089590E0EF
:1026000080E00895CF92DF92FF920F931F93CF93B4
:10261000DF936C010091490380914302082BC7E0CE
:10262000D0E010E0FC2EC8010C2E02C095958795D5
:102630000A94E2F780FD0CC02197A0F7F12C8F2DB2
:10264000DF91CF911F910F91FF90DF90CF90089570
:10265000B6018C2F0E94F4120E942808019761F3A2
:10266000EECFCF93DF93EC010E940213BE010E94D4
:10267000F4120E942808DF91CF910895FC01838114
:102680009481892B29F08081918189238F3F51F496
:1026900080E00895843FE1F717C0883EA8F0813FAD
:1026A000B9F712C0808191810E94311392959F7079
:1026B000963099F358F4925F9F70923048F7803FBC
:1026C00019F040F7883E20F781E008959A5FF4CF33
:1026D00086E290E00E94B22B682F70E090E080E0EC
:1026E000089583E290E00E94B22B823289F484E262
:1026F00090E00E94B22B823159F485E290E00E9472
:10270000B22B91E0873209F090E0892F8170089513
:1027100080E0FCCFB0E0A0E0E0E9F3E10C944E2BC8
:102720007901C82F880FDD0B41155105A9F0FE0175
:1027300093E0EE0FFF1F9A95E1F7E65FFE4F818170
:1027400092818B5B9D4F208130E04217530708F444
:102750009A01A9010E94A92BCE010E94B92AD82E64
:102760008823D1F001151105B9F083E0CC0FDD1FEE
:102770008A95E1F7FE01E65FFE4F438150E00417C2
:10278000150708F4A801C65FDE4F6C817D816B5B85
:102790007D4FC7010E94A92B8D2DCDB7DEB7E7E095
:1027A0000C946A2BA5E0B0E0E8EDF3E10C944B2B20
:1027B0008D83E62E5A01F22E6801809155058A30EC
:1027C00028F080E02596EAE00C94672B8D81873015
:1027D000C4F31A8219828A836B832C8363E070E0CE
:1027E000CE0102960E9485078983E0922A01F09229
:1027F0003D0110E000E030E020E044E050E0BE01A8
:102800006F5F7F4F83E00E948A138823D1F24E2DA1
:1028100050E030E020E0B50184E00E948A13882374
:1028200081F230E020E041E050E0BE016B5F7F4F7D
:1028300085E00E948A13882321F20F2D10E0960173
:1028400050E040E070E060E086E00E948A13BACF7A
:10285000A4E0B0E0EEE2F4E10C94512B40919C0234
:1028600050919D0260919E0270919F022FB7F89443
:1028700080912A0390912B03A0912C03B0912D03FA
:102880002FBF841B950BA60BB70B11E08436910567
:10289000A105B10538F10E94C50B882341F10E94C2
:1028A00033076E5F7F4F8F4F9F4F69837A838B8390
:1028B0009C8310E000E030E020E044E050E0BE0106
:1028C0006F5F7F4F82E00E948A13182F882351F098
:1028D0000E94330760939C0270939D0280939E0236
:1028E00090939F02812F2496E4E00C946D2B0E941C
:1028F00033070091A0021091A1022091A202309111
:10290000A302600F711F821F931FCBCFA6E0B0E020
:10291000ECE8F4E10C944F2B7B0101E010E09E0108
:102920002A5F3F4F50E040E070E060E080E00E94AE
:102930008A13182F882309F453C0409198025091AC
:10294000990260919A0270919B022FB7F89480913E
:102950002A0390912B03A0912C03B0912D032FBF3C
:10296000841B950BA60BB70B84369105A105B10509
:1029700048F465E070E086E492E00E9485079E815D
:10298000891771F105E010E09E012F5F3F4F50E085
:1029900040E070E060E081E00E948A13082F65E06B
:1029A00070E086E492E00E94850711E09E81981312
:1029B00010E0102301F10E94330760939802709396
:1029C000990280939A0290939B0285E0FE013196D2
:1029D000A3E9B2E001900D928A95E1F711E00BC0F6
:1029E00085E0E6E4F2E0DE01119601900D928A9511
:1029F000E1F71111EACF85E0E3E9F2E0D7010190B8
:102A00000D928A95E1F7812F2696E6E00C946B2BC8
:102A10000E94FB0B809309010E94C50B81110E944B
:102A2000CD29089590E080E00E94C02B883E9E4F03
:102A300019F40E947113089580E0089568EE7EEF06
:102A400090E080E00E94E42B60E082E090E00E9451
:102A5000C62B60E083E090E00E94C62B10924302F8
:102A600060E084E090E00E94C62B64E082E290E0A7
:102A70000E94C62B60E085E090E00E94C62B60E0DB
:102A800086E090E00E94C62B6FEF87E090E00E9406
:102A9000C62B40E050E0BA0188E090E00E94D82BBD
:102AA00060E08DE090E00E94C62B40E050E0BA016B
:102AB00088E190E00E94D82B60E087E190E00E94DE
:102AC000C62B40E050E0BA018CE190E00E94D82B88
:102AD00070E060E080E290E00E94E42B40E050E093
:102AE000BA0188E190E00E94D82B80E00E94801219
:102AF0000E94991240E050E0BA018FE090E00E94FD
:102B0000D82B40E050E0BA0183E190E00E94D82B3E
:102B10000895B0E0A0E0EFE8F5E10C94492BEC015A
:102B20008B01942EAA80BB80B501B7FE04C0662736
:102B300077276A197B09072E000C880B990B0E94D6
:102B40009F2C0E949E2D0E949E2D6B017C01B50141
:102B5000BB0C880B990B0E949F2CA70196010E9429
:102B60002B2D0E94672C862EF8016283A880B980E5
:102B7000B501B7FE04C0662777276A197B09072EBF
:102B8000000C880B990B0E949F2C0E949E2D9B018C
:102B9000AC010E94FB2B0E949E2D6B017C01B501B4
:102BA0000B2C000C880B990B0E949F2CA7019601FF
:102BB0000E942B2D0E94672CF8016383992021F03D
:102BC0008194828261956383198218821B821A82A2
:102BD000CDB7DEB7ECE00C94652B28E030E043E0A5
:102BE00060E086E30E94B5270895ACE0B0E0EBEF2B
:102BF000F5E10C944D2B4F83588769877A878B8733
:102C00009C878091EF02882399F00E94ED1580E562
:102C10000E942D288AEB8A95F1F700C00E94452872
:102C2000887899278038910509F487C00E945D282B
:102C30000E94C50B882309F46BC00E9433070091E2
:102C4000D8011091D9012091DA013091DB016B019B
:102C50007C01C01AD10AE20AF30A97018601083002
:102C600011052105310508F453C06093D801709314
:102C7000D9018093DA019093DB010091FD0210915C
:102C8000FE022091FF0230910003601B710B820B4A
:102C9000930B623371058105910580F41092F30264
:102CA0001092F2021092F5021092F4021092F702C2
:102CB0001092F6021092F9021092F8021091FC02A2
:102CC0000E94FB0B482FBE01695F7F4F82EF92E0AD
:102CD000112309F45FC00E944E0A0091FC0210917A
:102CE000EF020E94FB0B41E04827BE01695F7F4F66
:102CF00086EF92E0011709F450C00E944E0A86E068
:102D0000FE013796ABE0B3E001900D928A95E1F7B2
:102D100086E0FE013796DE01119601900D928A95AC
:102D2000E1F729813A814B815C816D817E8180E070
:102D300090E02C96E8E00C94692B0E9445280E94B4
:102D400045287C010E94452820E0E22AF82A0E94BA
:102D500045288C010E94452820E0022B182B0E9458
:102D60005D28F894B7018091F2029091F3020E94DD
:102D7000D40A9093F3028093F202B8018091F40296
:102D80009091F5020E94D40A9093F5028093F40288
:102D900078944ECF0E948915A0CF0E948915AFCF9D
:102DA000CF93DF93D82FC62F0E94ED158D2F80680B
:102DB0000E942D288C2F0E942D280E945D288FECC8
:102DC00092E00197F1F700C00000DF91CF910895E4
:102DD000682F893708F068E76093FA0291E09093D2
:102DE000FB029091EF02992359F06150811101C0CB
:102DF00061E08FE00E94D01660E080E50E94D0166E
:102E00000895FB0180810E94E81608959091FA02CE
:102E1000911101C092E0282F880F330BA901490FAF
:102E2000511DCA011816190614F081E090E00E94A5
:102E3000E8160895A2E1B0E0E0E2F7E10C94442B3B
:102E40008C01FC0183819481892B31F080819181F7
:102E500089238F3F09F0C3C46296E1E10C94602B93
:102E60000E940213F82E682F89819A810E94F3092B
:102E700069817A818F2D0E94F4127C01F801828190
:102E8000882309F49FC4C70182519F45409708F0E9
:102E900065C48FEF93E00E94B22B811128C0FEEE33
:102EA000EF0E57EA852E52E0952EE11032C01C82BB
:102EB0001B82442443944AE0342E74018FEFE81AB5
:102EC000F80AC4010E94B22B89831A82882379F000
:102ED0009FEF980F933058F58A83498292E0890ECC
:102EE000911CC7010E94B22B8B83811121C080915C
:102EF0003802877009F4B0CFF8018281882309F481
:102F0000ABCF8091A70282FFA7CF82E00E94DC0DA9
:102F1000A3CF811424E0920651F3C4010E94B22B86
:102F2000811101C0EA943FEF831A930ABECF470193
:102F3000FE0131967F01F7012081222309F4BDCFE4
:102F4000213009F066C091818281913031F4F2E044
:102F5000EF0EF11C0E94841107C0923039F522E077
:102F6000E20EF11C0E9431113FEFE31AF30A8FE9E0
:102F70009FE00197F1F700C00000EFE9FFE0319713
:102F8000F1F700C000008FE99FE00197F1F700C062
:102F90000000EFE9FFE03197F1F700C000008FE992
:102FA0009FE00197F1F700C00000C5CF933031F4E6
:102FB00032E0E30EF11C0E94FC10D6CF943021F0D9
:102FC0008FEFE81AF80AD0CF92E0E90EF11C30E05A
:102FD00020E0B7016F5F7F4FF70141818053990B6C
:102FE0008A30910558F02150310908F4BDCF8FE99E
:102FF0009FE00197F1F700C00000F5CF329EF0018D
:10300000339EF00D11249C012E0F3F1F842F7B0156
:10301000E0CFE22FF0E0E754FE4F5490822F8695E8
:103020008695869590E0FC01E755FE4F64902770E9
:10303000712C022E02C0759467940A94E2F7E1E0C5
:103040006E227724FC01E756FE4FA490B12C022E8D
:1030500002C0B594A7940A94E2F7F1E0AF22BB2432
:10306000FC01E757FE4FC490D12C02C0D594C79401
:103070002A95E2F721E0C222DD246114710419F0DF
:1030800081EE0E943111A114B10419F086EE0E9464
:103090003111852D0E948411A114B10419F086EE1E
:1030A0000E94FC106114710419F081EE0E94FC1062
:1030B000C114D10409F458CF8CE24CCF81E00E94B6
:1030C000F80D0E94C30D13CF81E00E94CF0DF9CF00
:1030D00082E0F5CF8091DC018823B1F00E943307B4
:1030E000C090DD01D090DE01E090DF01F090E001C2
:1030F0006C197D098E099F09663971058105910555
:1031000018F48DE00E9484111092DC01F0CE8091C1
:10311000DC01882341F01092DC0180E00E943A0A31
:103120008DE00E948411F8018281F4EFEF16F10422
:1031300050F029EFE216F104A0F038EBE3163DE57C
:10314000F30609F468C0882309F45AC3F701E15B68
:10315000FD45EA30F10508F077C0E150F24D0C94DE
:10316000862B94EFE91AF10821E030E00E2C01C023
:10317000220F0A94EAF796E0E7E1F3E0DE01179602
:1031800001900D929A95E1F796E0FE013796DE01E7
:103190001D9601900D929A95E1F798858823A9F0E4
:1031A000292B2E8786E0FE013D96DE0111960190C7
:1031B0000D928A95E1F786E0FE013196A7E1B3E032
:1031C00001900D928A95E1F792CE20952923E9CFBF
:1031D00080E00E94E8161092010389CE4091FA0225
:1031E0005091010350FB47F95695537060E070E031
:1031F0008FE090E00E94D82B7ACE81E00E940617E3
:1032000076CE8FEFFBCF8AE0F9CF86EFF7CF9091A4
:10321000FC0281E089270E943A0A69CE809101036D
:10322000811101C084E08F5F18160CF081E08830B6
:1032300008F087E0809301035ACE80910103811149
:1032400001C084E08150F0CFE6E1EE16ECE5FE0629
:10325000A1F4809132038A7A91E009F490E090938E
:10326000E10169E2811165E386EC91E00E943F078C
:103270000E94680D3CCE85E3CEC2FAE5EF16FDE56F
:10328000FF0609F47FC008F053C0E1143CE5F306E3
:1032900009F45CC08EEDE8168CE5F80609F465C00B
:1032A000F8018281E080F180882309F46FC0C701B2
:1032B0000E940213D82E682FC7010E94F309B7019C
:1032C0008D2D0E94F4120E9428087C01882EF8019E
:1032D000D280B580B2943FE0B322809138028770EB
:1032E000C1F0AD2CDD20B1F08F2D807F803421F036
:1032F00080E28E0D883068F08091A70282FF09C0BD
:1033000082E00E94DC0D809138028770AA24A39489
:103310008111A12C9F2C92942FE09222FBE0F915B1
:1033200008F4A3C0E92DF0E0E75FF14D0C94862B83
:103330009CE5E9169DE5F906D9F030F1F7EAEF16BC
:10334000FDE5FF0609F0ACCF0E94D31010923203C6
:103350000E94090E2FEF34E38CE021503040804072
:10336000E1F700C000000E9422070E941E15ECCF6A
:103370008091A70282FB882780F991E089270E942B
:10338000A9128ECF81E0FBCF80E0F9CFC7010E9468
:10339000BF09D82E94CF2F2D2F70C22E8F2D807F56
:1033A00019F0C29490EFC922DD20B9F0CC2069F069
:1033B00080E28E0D883010F0811009C080913203B8
:1033C000C82AC09232030E94680D8E2D4CC0809195
:1033D0004102C82AC0924102F6CF8E2D0E94FC10F5
:1033E000CC2009F442C080E28E0D883010F08110AC
:1033F00004C08C2D0E94AE0906C0C0948091410289
:10340000C822C09241020E94680D2FC03F2D3F701C
:10341000C32E8F2D807F803219F0C29480EFC82296
:10342000882089F081E0881609F468C0DD2009F45D
:1034300072C0BB2009F468C0F801858180FFC5CF48
:103440008F70858361C02091A70222FD35C0DD20E9
:1034500069F1CC2039F080913203C82AC09232033E
:103460000E94680D80E00E943111292D2850330BF5
:103470002430310510F40E94EA0BAA2009F4ECCCA8
:103480008091380280FDE8CCF801128285958595FF
:1034900085950E94F80DC8010E941A178091380284
:1034A0008595859585950E94CF0DD6CC80E00E94AC
:1034B000FC10CC20D1F29DCFDD2099F090914202FA
:1034C000892F8C29B11003C00E94F210CECFE1E009
:1034D000BE12FACF22FFC9CF981739F28093420269
:1034E000C4CFB11006C00E94A8098C2D0E94EB1019
:1034F000BCCFF1E0BF1609F4B8CFF5CFDD2031F035
:1035000025E02B1508F4B1CF8C2DDECF34E03B1530
:1035100008F4ABCFEACFBB2041F3F9E38F1216C119
:103520002FEF37EE83E0215030408040E1F700C0BC
:1035300000008E2D0E94FC1098CF8F2D86958695C9
:10354000837061F0813009F090CFC7019370D11082
:1035500002C090E080E00E94590787CFC7019370B6
:10356000D11002C090E080E00E946F077ECF8F2DC7
:10357000837091F5D11079CF4E2D429546954770C5
:10358000440F440F8E2D8F70042E01C0880F0A94B3
:10359000EAF72E2D2071E4FE07C02FE030E001C0D5
:1035A000220F4A95EAF720953F2D369536953370D0
:1035B000323069F050F440914302313029F0822BCF
:1035C00084230E94040E51CF842B822BFACF282B08
:1035D000809143028227F5CF8695DD2011F08F2D53
:1035E0008170882309F441CF4E2D4295469547704E
:1035F000440F440F8E2D8F70042E01C0880F0A9443
:10360000EAF72E2D2071E4FE07C02FE030E001C064
:10361000220F4A95EAF720953F2D3695369533705F
:10362000323069F050F440914903313029F0822B57
:1036300084230E94B20D19CF842B822BFACF282B22
:10364000809149038227F5CFFF2DFF70FF2EDD20EB
:1036500029F08F2F0E94F80D8E2D36CF8E2D0E94CF
:10366000EB108F2D0E94CF0D00CF8E2D22EF8216F2
:10367000B1F1281570F030EF8316D1F091EF891673
:1036800091F0DD2009F45DC0B1109FCE8F2D8F71B8
:103690002AC0E3EF8E1651F1F4EF8F12F2CF809132
:1036A000A70282FD2FC08F2D8F71DD20D9F21BC0A4
:1036B000DD2081F024E02B1508F4D7CE2F2D2F71BB
:1036C00081E090E001C0880F2A95EAF790914903C4
:1036D0008927AFCF35E03B1508F4C7CEEFCF8F2D4C
:1036E0008F71D110BFCF0E94F80DBFCE80E0DD20DA
:1036F00009F49FCF9F2D9F7181E001C0880F9A959B
:10370000EAF797CFDD2091F08F2D8F71F82E0E9470
:10371000F80D8091A70282FF07C0E8E0FE9EC0017D
:1037200011248360809338028F2DDDCF81E00E94C9
:10373000DC0DF1E0FB1508F098CE82E00E94DC0D74
:1037400094CEBB2041F0893309F4EACEEFE1FEE4E8
:103750003197F1F7ECCE8F2D8F7184CFF0E1EF161A
:10376000FFE5FF0609F4AACC21E1E2162FE5F206F7
:1037700009F4AECCF0920803E0920703F8018081CF
:10378000918190930A0380930903FBEBEF16FDE50B
:10379000FF0609F0BCCCF80182810E943A0AF801C8
:1037A0008281882309F496CC0E9433076093DD015F
:1037B0007093DE018093DF019093E00181E08093BC
:1037C000DC0195CB30E1E3163FE5F30609F47CCC50
:1037D00081E1E8168FE5F80669F682E076CC85E0AF
:1037E000DE01119601900D928A95E1F7F801228190
:1037F00089819A81211134CB0E94BF09F82E38CBE0
:10380000F6E1EF16FCE5FF0609F04ACD8091E101F3
:10381000811131CD89E2E8ECF1E02EEC31E09191BB
:10382000891303C0DF0111971C922E173F07B9F7C8
:103830001FCD1F93CF93DF9380910502807F09F006
:1038400049C080910202882309F444C08091370264
:10385000D09106026091000270910102A0910302D2
:10386000B0910402C62FC72316E0D81799F190E053
:10387000109711F0CF3F19F401968770F6CF189F7B
:103880009001199F300D1124F901E95FFD4F41812D
:103890004713F2CF40814613EFCF42814111ECCF65
:1038A000438154814A1B5B0B483C510528F78091AA
:1038B00005028F70806180930502F901E45FFD4F7E
:1038C00080818F708061808380E092E00E941A176F
:1038D0000E94B509DF91CF911F910895A1E1B0E059
:1038E000E4E7FCE10C944B2B8C0185E0F801DE0150
:1038F0001D9601900D928A95E1F7D8011296EC90F1
:10390000129780E0A82E82E0B82E60910302709199
:1039100004026115710509F432C1909100024091D1
:103920000102892F84238F3F09F429C12C9111961C
:103930003C9111971396CD90DC90F0900202F60125
:10394000E61BF70BFF2009F4E5C080910502582F14
:10395000507FE83CF10508F0ABC0511177C0FE2C58
:10396000431315C0921313C0E11011C08F70806112
:1039700080930502C5010E941A1780910502D801A3
:1039800015968C938F2D6196EAE00C94672BC114E9
:10399000D10429F0822F83238F3F09F00BC180E0EF
:1039A000B82FB170DB2E80FF3CC080913702409170
:1039B000060256E0841315C02D873E878D859E85AF
:1039C0000E943113292F22952F702230F0F02430DD
:1039D00018F59F70F1F0F8019581907FD1F4D12C0A
:1039E0001EC090E0589FF001599FF00D1124E95F2F
:1039F000FD4F6181361306C06081261303C06281CA
:103A0000E6120FC001968770D5CF9F7011F0882302
:103A100031F3805E883018F3C8010E941A17FD2C1C
:103A2000B1CFEE2009F4AECF809105028160809382
:103A3000050280E092E00E941A1786E0E0E0F2E0E2
:103A4000DF011D928A95E9F7F12C9CCF431306C044
:103A5000921304C0F801EE2009F476C0C8010E9458
:103A60003E13882309F1EE20F9F08091050280329F
:103A700070F0209100023091010238872F8319865F
:103A8000DB86CA868C87CE0107960E941A1786E0CD
:103A9000F801A0E0B2E001900D928A95E1F70E9452
:103AA000191CFF24F3946ECFC8010E941A17F9CF96
:103AB000511107C080E092E00E941A1786E0D501FC
:103AC000C0CF43130FC092130DC0E1100BC0F8011B
:103AD0008583C8010E941A1786E0D5011D928A9538
:103AE000E9F750CFC8010E943E138823E9F2EE2087
:103AF000D9F280910502803250F22091000230917B
:103B000001023A8329831B82DD82CC828E83CE011F
:103B10000196BBCFE83CF105F8F6FE2CEE2021F231
:103B200043131FC092131DC08091050280FD10C079
:103B3000982F907F69F0F8018583903F31F0982F9E
:103B4000907F905F8F70892B8583C8010E941A1720
:103B500086E0F801A0E0B2E001900D928A95E1F7CD
:103B600011CFC8010E943E13811191CF80910502AF
:103B7000816080930502C8010E941A1703CFEE20CE
:103B800009F492CFC8010E943E13F82E882309F44D
:103B90008BCF86E0F801A0E0B2E001900D928A950B
:103BA000E1F780910002909101020E9431130E947E
:103BB000191CE8CE81E08E25F3CEA7E1B0E0E3EE5C
:103BC000FDE10C94522B4B8B5C8B6D8B7E8B8F8B22
:103BD0006111109241021A8A198A85E0FE017396DA
:103BE000DE011D9601900D928A95E1F786E0FE01B7
:103BF0003D96DE01179601900D928A95E1F7CE0170
:103C000007960E946E1C882359F016E080913702B7
:103C100090910602891345C06796E3E00C946E2BE1
:103C200086E0FE013796DE01119601900D928A958D
:103C3000E1F78A859B85892B41F38F8198858923BC
:103C40008F3F19F32091060230E0C9010196877079
:103C50009927409137024817190681F410923203D0
:103C60000E94090E109206021092370286E0E0E0F0
:103C7000F2E0DF011D928A95E9F7C7CF96E0929FA7
:103C8000D001939FB00D1124A95FBD4FFE01319665
:103C900001900D929A95E1F7809306020E94B50972
:103CA000B4CF819FC0011124895F9D4F0E946E1C7B
:103CB000882309F4B1CF8091370290E00196877094
:103CC000992780933702A2CFCF93C82F0E94ED157A
:103CD0008C2F0E942D288FE792E00197F1F700C00A
:103CE00000000E944528C82F0E945D289AE69A95F8
:103CF000F1F700C08C2FCF910895CF93DF930E94EE
:103D0000AD27269A0E94ED156AE58AE30E94D01637
:103D10002FEF80E792E0215080409040E1F700C013
:103D2000000082E00E94641E83E00E94641E84E022
:103D30000E94641E85E00E94641E86E00E94641E4C
:103D400060E080E10E94D01680E00E94641ED82FBF
:103D500081E00E94641EC82F0E945D28D23419F4AD
:103D600081E0C13009F080E081708093EF02882308
:103D700041F061E08FE00E94D01660E080E50E9493
:103D8000D016DF91CF9108951F920F920FB60F9228
:103D900011242F933F934F935F936F937F938F9350
:103DA0009F93AF93BF93CF93DF93EF93FF93D09104
:103DB000E900DF708091EC00C82FC17080FDC0E881
:103DC0001092E9008091F000877F8093F000789452
:103DD0000E94130E1092E9008091F0008860809399
:103DE000F000CD2BCF70C093E900FF91EF91DF91F0
:103DF000CF91BF91AF919F918F917F916F915F9183
:103E00004F913F912F910F900FBE0F901F901895DB
:103E10001F920F920FB60F9211242F933F934F933F
:103E20005F936F937F938F939F93AF93BF93EF9322
:103E3000FF938091E10082FF09C08091E20082FF40
:103E400005C08091E1008B7F8093E1008091DA00D2
:103E500080FF24C08091D80080FF20C08091DA00CC
:103E60008E7F8093DA008091D90080FF9DC080E131
:103E700089BD82E189BD09B400FEFDCF81E0809358
:103E80003F0380913103811109C00E949A050E946D
:103E900065068091E20084608093E2008091E100F9
:103EA00080FF17C08091E20080FF13C08091E20084
:103EB0008E7F8093E2008091E20080618093E20037
:103EC0008091D80080628093D80019BC85E08093EF
:103ED0003F038091E10084FF2BC08091E20084FFCA
:103EE00027C080E189BD82E189BD89B5982F917095
:103EF00080FFFBCF8091D8008F7D8093D800809188
:103F0000E1008F7E8093E1008091E2008F7E8093BC
:103F1000E2008091E20081608093E20080914003A2
:103F2000882309F447C084E080933F0380913F03D6
:103F30008091E10083FF27C08091E20083FF23C0CE
:103F40008091E100877F8093E10082E080933F03CE
:103F5000109240038091E1008E7F8093E100809178
:103F6000E2008E7F8093E2008091E2008061809386
:103F7000E20042E060E080E00E9433068091F000C1
:103F800088608093F000FF91EF91BF91AF919F9176
:103F90008F917F916F915F914F913F912F910F90F2
:103FA0000FBE0F901F90189519BC10923F031092EE
:103FB000310374CF8091E30087FD93E090933F033A
:103FC000B5CF78941F921FB61F9211248F939F93A1
:103FD000AF93BF9380912A0390912B03A0912C0360
:103FE000B0912D030196A11DB11D80932A039093DA
:103FF0002B03A0932C03B0932D03BF91AF919F91FE
:104000008F911F901FBE1F9018959C014FB7F89479
:1040100080912A0390912B03A0912C03B0912D0342
:104020004FBF821B930B08952FB7F89480912A03FA
:1040300090912B03A0912C03B0912D032FBF0895D5
:10404000B0E0A0E0E6E2F0E20C94472B35E0C32EAE
:1040500031E0D32E46E5842E45E0942E00E011E0B9
:10406000712CAA24A394B12CD8018D918D010E94AA
:10407000E70A00C0E401688025E0E22E21E0F22E8C
:10408000F701D0E0C0E04191A42FA295AF70B0E05D
:1040900090968C9195010C2E01C0220F0A94EAF79C
:1040A00090E04F7002C0959587954A95E2F780FDA4
:1040B0008EC0622A2196C430D10529F7F8013197C4
:1040C00080810E94FB0AA0EAAA95F1F7F4018081A1
:1040D000861519F0608277247394FFEF8F1A9F0A78
:1040E00021E00530120709F0BFCF01E010E0D70151
:1040F0008D917D010E94E70A00C0C8010C2E01C00D
:10410000880F0A94EAF7782FE6E5F5E090E0A92E0B
:1041100091E0B92E682F6095D5012D915D01822F18
:1041200082958F7090E0DC0190968C91AF01308188
:1041300090E02F7002C0959587952A95E2F780FD53
:1041400049C0872F832B80833196DA018C913817F1
:1041500011F077247394CA14DB04F1F6F701319758
:1041600080810E94FB0AB0EABA95F1F72196C83027
:10417000D10509F0BCCFC091A502772071F181E093
:104180008093D0010E9414209093CF018093CE01A0
:104190008091CE019091CF010E940520059708F1F2
:1041A000D0E0C652DD4F45E050E066E575E0CE0157
:1041B0000E949C2B892B41F085E0E6E5F5E0DE01CD
:1041C00001900D928A95E1F71092D0010AC02095D6
:1041D000622270CF862F8323B6CF8091D0018111C8
:1041E000D7CF0E94C50B182FE091A502811147C0BF
:1041F000F0E0E652FD4F85E0A6E4B2E001900D92BA
:104200008A95E1F765E070E086E492E00E94850718
:1042100080934502C0904B02D0904C02E0904D023A
:10422000F0904E028091D1019091D201A091D301E2
:10423000B091D401C816D906EA06FB06D1F0C092A7
:10424000D101D092D201E092D301F092D4010E9428
:10425000C50B81110EC00E943307C61AD70AE80A9F
:10426000F90AC092A002D092A102E092A202F092BA
:10427000A302872DCDB7DEB7EEE00C94632BABE540
:10428000B5E085E0ED0119928A95E9F7CE2FD0E0EF
:10429000C652DD4F809155058A3060F566E874E1BD
:1042A000CE010E94100B882309F440C068E274E13B
:1042B000CE010E94100B8823C9F11092550581E0B0
:1042C0008093D701C091A402D0E0C652DD4F45E0F3
:1042D00050E06BE575E0CE010E949C2B892B49F2E2
:1042E00085E0EBE5F5E0DE0101900D928A95E1F7BE
:1042F000712EBFCF8091D5019091D6010E940520EB
:10430000843F914058F68091D701882309F4B1CFBA
:104310001092D701E091A402F0E0E652FD4F95E043
:10432000DF011D929A95E9F7782EA3CF809155056C
:104330008F3F31F08F5F809355058A3008F4BFCFEF
:104340000E9414209093D6018093D501DCCF1F9258
:104350001FB61F9211248F939F93AF93BF938091A9
:104360002903811113C080912A0390912B03A091FE
:104370002C03B0912D034196A11DB11D80932A03FA
:1043800090932B03A0932C03B0932D03BF91AF9177
:104390009F918F911F901FBE1F901895CDB7DEB7CC
:1043A000AB970FB6F894DEBF0FBECDBF85B7806860
:1043B00085BF85B7806885BF84B7877F84BF0FB608
:1043C000F894A895809160008861809360001092B5
:1043D00060000FBE80E890E00FB6F8948093610013
:1043E000909361000FBE84EB97E09093C50180939A
:1043F000C4010E949A050E9465068091E2008460D3
:104400008093E200789480913F038823A1F010917B
:10441000E9001F709091EC00892F817090FD80E879
:10442000182B1092E9008091E80083FD0E94130E82
:104430001F701093E90082E084BD93E095BD9AEF70
:1044400097BD80936E001092A0021092A10210926C
:10445000A2021092A3020E947113811102C00E9455
:1044600099120E940815809109010E9408158091F7
:1044700005010E94FB0A809106010E94FB0A8091BF
:1044800007010E94FB0A809108010E94FB0A00E0DC
:1044900011E0D8018D918D010E94FB0AB1E0053039
:1044A0001B07B9F78091090195E0811190E0909385
:1044B000A50285E0891B8093A4020E94C50B81118F
:1044C00002C00E94D029E6E5F5E0AAEDB2E0119223
:1044D0001D9225E0E036F207D1F70E9412158111F6
:1044E00002C00E941E1582E090E00E94B22B8093D1
:1044F000AA0284E090E00E94B22B182F82E290E0A2
:104500000E94B22B982F812F9093A7028093A6022E
:104510000E9420208FE39CE90197F1F700C0000082
:104520000E9420208091DA0280FF08C06FEF7FEFA9
:1045300090E080E00E94E42B0E94220783E090E05C
:104540000E94B22B0E94040E809149030E94290A06
:1045500091E0833009F090E0892F0E943A0A81E0CF
:104560008093D50280E280934A030E9487286DE001
:1045700070E08CE492E00E94A011892BE9F5809113
:10458000D50263E070E081FDF5C089E492E00E940D
:10459000A011892B89F56DE070E089E392E00E941B
:1045A000A011892B49F50E943307605A75418F4F3E
:1045B0009F4F60931D0370931E0380931F0390937E
:1045C0002003EDE4F3E080E092E0DF019C011D9226
:1045D00021503040E1F7F0935405E09353058FEFFD
:1045E0009FEF90934C0380934B0381E080932203D1
:1045F000809321031092D6020E94C50B811102C044
:104600000E94D0290E947D1E0E94C50B81112EC0E0
:104610008BE997E090934901809348012EE030E0C8
:1046200030934401209343018EE290E09093470140
:104630008093460140EA57E0509351014093500166
:1046400030934C0120934B0190934F0180934E0186
:1046500041E057E150935901409358013093540180
:104660002093530190935701809356010E94121595
:10467000882389F08FE090E00E94BA2B8B01862F6F
:104680008F770E94E816001F0027001F1370110F7C
:10469000102B109301038AE591E0909326038093F9
:1046A000250380913F0300E112E1853009F4A7C0A2
:1046B0000E942020BBEAEB2EB2E0FB2E1AEA212E4C
:1046C00011E0312EB1012AED32E0F7019191D901CB
:1046D0008D919D01DB014D91BD018423B2E0E53B4D
:1046E000FB0709F498C0981789F30E94C50B682E40
:1046F000FAEACF2EF1E0DF2EAAEDAA2EA2E0BA2E22
:1047000000E0F50111915F01D6018D916D01182333
:10471000F70171907F01711629F17126912C88247F
:104720008394872D8821B1F06620A1F09EA20FA36B
:1047300091E0812F882109F490E098A70E9414202D
:104740008160782F9AA789A74EA15FA168A58AA545
:104750000E94DD1D9394880CF8E09F12E2CFF701D0
:10476000319710830F5F0A3061F60E943307DD2412
:10477000D39472C086E492E00ACF80913F038430E4
:1047800041F10E94CA110E94C00C1092290348E115
:1047900050E080E40FB6F894A895409360000FBEF7
:1047A0008093600083B7817F846083BF83B781601B
:1047B00083BF7894889583B78E7F83BF0FB6F894B4
:1047C000A8958091600088618093600010926000DD
:1047D0000FBE80913E03882391F00E942020AAEA18
:1047E000B1E0EAEDF2E081919D91892309F09DC34A
:1047F00084EEC82E82E0D82ECE16DF06A1F7809177
:104800003F03853009F4B9CF109232030E94090E9C
:104810000E94EA0B4DCF981368CF0E9414208C01A0
:104820008091A8029091A90208171907A1F08FEFB3
:1048300089A38AA31BA20E9414208160782F9DA3C4
:104840008CA349A15AA16BA18DA10E94DD1D1093DB
:10485000A9020093A802D12C0E94C50B80912203CB
:10486000882351F18091D7029091D8020E940520AF
:10487000C29708F010C120914B0330914C032115D1
:10488000310509F02DC1809121038823A9F00E94F0
:10489000330700911D0310911E0320911F033091D7
:1048A0002003601B710B820B930B6F3F7F4F8F4F69
:1048B0009F4710F40E94CA11D1100E94E5110E9476
:1048C000C00C0E94EA0B9091D902891721F08093C5
:1048D000D9020E94330780913F03843009F4CCC190
:1048E0000E94C50B882309F4DCCE0E943307209177
:1048F000EA0221116BC00091E6021091E7022091BB
:10490000E8023091E9026B017C01C01AD10AE20A87
:10491000F30A97018601043F11402105310508F48F
:1049200055C06093E6027093E7028093E80290938B
:10493000E9028091E4029091E50201969093E502EC
:104940008093E40219828E010F5F1F4F21E050E037
:1049500040E060E087E00E94D213811106C08091A0
:10496000E4029091E5020A978CF181E08093EA02DB
:104970008093F0029981911101C080E08093F1024F
:104980008091EF0210E0882329F00E94FB0B11E0D8
:10499000811112E08091F102882309F4C2C20E94C1
:1049A000FB0B8111C0C282E0182B0E9468136B01BF
:1049B0007C01DC01CB018C7FBC01CD01612BC616D3
:1049C000D706E806F90611F00E947B128091F102E9
:1049D000882309F466CE0E9433076B017C01809125
:1049E000EB029091EC02A091ED02B091EE02A701D2
:1049F0009601281B390B4A0B5B0BDA01C90104979E
:104A0000A105B10580F119821A821B821C828E01D8
:104A10000F5F1F4F24E050E040E060E088E00E941C
:104A2000D2138823C1F069817A818091F602909136
:104A3000F7020E94D40A9093F7028093F6026B81EA
:104A40007C818091F8029091F9020E94D40A90939F
:104A5000F9028093F802C092EB02D092EC02E0924D
:104A6000ED02F092EE028091FB02882309F419CE48
:104A70008091FA02898310E000E020E0AE014F5FF0
:104A80005F4F61E089E00E94D213882309F409CEC8
:104A90001092FB0206CE0E9414209093D8028093BD
:104AA000D702EDE4EE2EE3E0FE2EF0925405E09204
:104AB00053050E94C50B882331F08091220388237F
:104AC00009F4E1CED8CEE9E5F2E084918F018823A4
:104AD000A1F30E94120C0F5F1F4FF8018491F7CFD2
:104AE0008091D60261E070E08111CDCE082F10E0F8
:104AF0007B01082E02C0EE0CFF1C0A94E2F7A9010C
:104B00004E215F21452B09F447C09091D50290FDBD
:104B100045C08295880F807680936801980136950C
:104B200027953695279520936B01815E80936901C7
:104B300010926C0124E630E047E050E066E671E058
:104B400088E70E942729892B09F09DCEA80165E0FE
:104B5000440F551F6A95E1F78091D50280FD2CC066
:104B6000435B5C4F04E610E020E230E060E488E75D
:104B70000E944829892B09F086CE0E94E511E09415
:104B8000F09480914B0390914C03E822F922F0922B
:104B90004C03E0924B0377CE8F5FA8CF880F880F2E
:104BA000880F8093680110926B01895F809369017F
:104BB00083E080936C01BECFE5EBF2E080E2DF01A1
:104BC0001D928A95E9F706EA11E022EAA22E21E079
:104BD000B22E3AEA432E31E0532ED801ED918D01E9
:104BE000D5016D915D01640F752F711D635B7C4F65
:104BF000F0E0EB54FD4F30E020E097E0692E621AC0
:104C0000CC24C394022E01C0CC0C0A94EAF74B01C9
:104C100090E0D4018D914D018C21A62DA91BA77088
:104C2000ABA70A2E000CBB0B782E0BA401C0770C8F
:104C30000A94EAF77BA6B195A195B109A770BB27A5
:104C400001C08695AA95EAF7782A8081782A708231
:104C50009F5F9830F1F62F5F3F4F31962830310536
:104C600061F64016510609F0B8CF04E610E020E2E4
:104C700030E045EB52E07ACF83E08093E900809109
:104C8000E80082FF2DCE8091E80090E085FF05C00E
:104C90000E94B905882399F091E08091E8008B7714
:104CA0008093E800992309F41BCEE981E150E331B8
:104CB00008F07FC0F0E0EB5EF14D0C94862B80E2B3
:104CC000E82EF12C8E010F5F1F4F8091E80085FDCB
:104CD0000AC08091E8008B778093E8000E94B905B4
:104CE000882399F3D9CF8091F100D8018D938D015C
:104CF000B1E0EB1AF10849F7CFCF1A828AE08B8333
:104D000010C08A818230A1F18330A9F1813009F08D
:104D100050C00E9433070E948C2B6B837C838D8351
:104D20009E8380913F03843009F0DACD1091E90031
:104D30001F709091EC00892F817090FD80E8182BF6
:104D400082E08093E9008091E80080FF0DC050E090
:104D500040E060E270E0CE0101960E94EA05809199
:104D6000E8008E778093E8001F701093E900B8CDBB
:104D70000E946813D0CF9E012D5F3F4FEAEDF2E015
:104D80008191D1019D911D018923D9018D939D01AF
:104D9000B2E0E43EFB07A1F7C4CF8A81823049F438
:104DA0006B817C818D819E810E948C2B0E947B1265
:104DB000B8CF8FEF8983B5CF4C816B818A810E94F8
:104DC000C5129827892798279E838D83AACF2D8186
:104DD0003E813227232732274C816B818A810E94B2
:104DE0001D129FCF0E9443129CCF80E18A8399CFEE
:104DF00081E08A8389E583CFCA80DB80DC24CD24EF
:104E0000DC248E010F5F1F4FEC80E00EF12EF11CB1
:104E1000C60189559D4FE016F10609F482CFE9E5F8
:104E2000CE16E1E0DE0658F40E94B22BD8011496AB
:104E30008C93FFEFCF1ADF0A0F5F1F4FE9CFF80106
:104E40001482F7CF0A811B811027012710279E01AA
:104E50002F5F3F4F6901EC80E00EF12EF11CC8017D
:104E600089559D4FE016F10609F45BCF093531E015
:104E7000130728F4D60114966C910E94C62BBFEF3D
:104E8000CB1ADB0A0F5F1F4FEACF0E940D1249CFEA
:104E900084E0ACCFCA80DB80DC24CD24DC248E010E
:104EA0000F5F1F4FEC80E00EF12EF11CC6018796BC
:104EB000E016F10609F435CFE0E8CE16E2E0DE06B2
:104EC00058F40E94B22BD80114968C93FFEFCF1A9E
:104ED000DF0A0F5F1F4FEACFF8011482F7CF0A8174
:104EE0001B811027012710279E012F5F3F4F69016B
:104EF000EC80E00EF12EF11CC80187960E151F05FF
:104F000009F40FCF003832E0130728F4D6011496C5
:104F10006C910E94C62BBFEFCB1ADB0A0F5F1F4FAD
:104F2000EBCF80E041CD81E03FCD09BD19BD09B493
:104F300000FEFDCF8091D8008F7D8093D8008091B6
:104F4000E00082608093E0008091E00081FDFCCF72
:104F5000109232030E94090E52CC289A219A229A6A
:104F600023982B9880E58CBD089590916E019F3F0A
:104F700009F071C08F3F09F46EC0611144C01092F6
:104F8000610590916105423009F441C0433009F454
:104F900042C094604130E1F141E050E042175307D4
:104FA000E0F1909161054031510509F452C0C0F51E
:104FB0004230510509F446C04830510509F446C055
:104FC0009CB520916105922B9CBD90916005992321
:104FD00019F09DB591609DBD80936E01E82FE2951B
:104FE000EF70F0E031A1282F2F7081E090E001C038
:104FF000880F2A95EAF7382B31A392A1809589234F
:1050000082A381E0089590E290936105BACF986001
:1050100090936105C1CF9C60FBCF440F551FBECF5D
:105020004034510549F04038510541F040325105B6
:1050300039F621E020936005926001C0936090935F
:105040006105BECF91E090936005BACF21E0209337
:1050500060059160F4CF80E00895CF93DF938EBD1B
:105060000E941420EC010DB407FE05C08EB590E03F
:10507000DF91CF9108950E9414208C1B9D0B8436E4
:10508000910588F38EEF9FEFF3CFCF93DF931EBC94
:105090000E941420EC010DB407FE05C08EB590E00F
:1050A000DF91CF9108950E9414208C1B9D0B8436B4
:1050B000910588F38EEF9FEFF3CF80916E018F3FC4
:1050C00029F1E82FE295EF70F0E041A18F7021E027
:1050D00030E0B90102C0660F771F8A95E2F7CB0175
:1050E000942F982B91A392A1892B82A38FEF809369
:1050F0006E018DB58E7F8DBD9CB5809161058095CB
:1051000089238CBD1092610510926005089510925C
:10511000B9008CE08093B8000895B0E0A0E0E3E926
:10512000F8E20C944A2BB82EEB010E9414206C017B
:10513000EE24E394F12CC431D10560F025E0E22E99
:10514000F12CCF3FDC0731F0CE0164E170E00E942A
:105150002F2B7B0184EAA82E94E8992E1092BC0094
:10516000A092BC000E9414208C018091BC0087FF9B
:105170000DC08091B900887F8830F9F08091B90026
:10518000887F8031D1F00FEF1FEF08C0C8010E9467
:105190000520E816F90648F70EEF1FEFCF3FDC07B2
:1051A000E9F2C6010E940520C817D907B8F6C80160
:1051B000CDB7DEB7EBE00C94662BB092BB009092BB
:1051C000BC000E9414208C018091BC0087FF0AC0A3
:1051D0008091B900887F883111F08034A1F610E009
:1051E00000E0E5CFC8010E940520E816F90660F747
:1051F000D3CF0F931F93CF93DF93EB018093BB002B
:1052000084E88093BC000E9414208C018091BC0033
:1052100087FF11C02091B900287F81E090E02832FB
:1052200011F490E080E0919581959109DF91CF9103
:105230001F910F910895CF3FDC0741F3C8010E94F1
:105240000520C817D90710F78EEF9FEFEFCFB0E01A
:10525000A0E0EDE2F9E20C944D2B6B018A0179019B
:10526000B9010E948D28E6010C0D1D1DC017D10744
:1052700011F097FF08C024E92093BC00CDB7DEB73A
:10528000E8E00C94692BB70189910E94F928EECFD0
:10529000B0E0A0E0EEE4F9E20C944D2BC62F6A01D9
:1052A0007901B8010E948D2897FD0CC0B8018C2FA0
:1052B0000E94F928E601EC0CFD1CCE15DF0511F06B
:1052C00097FF08C024E92093BC00CDB7DEB7E8E023
:1052D0000C94692BB80189910E94F928EECF84E9DA
:1052E0008093BC0008958EE14A9B02C08150E1F793
:1052F0004A9BFECF08955A9880E28A95F1F75A9A10
:105300000895FC013BE03A95F1F798E020E080E059
:1053100031E040E14A95F1F7880F4A9B02C0816075
:10532000232742E04A95F1F7000040E14A95F1F762
:10533000915079F790E19A95F1F799B132E03A9569
:10534000F1F7000040E14A95F1F792FB992790F9B7
:1053500092272081920F90830895A1E0B0E0E3EBC3
:10536000F9E20C944F2B19828C017C01E60EF11CA2
:105370000E151F0541F481E09981911180E021967D
:10538000E6E00C946B2B0E947329CE0101960E94DB
:105390008129F80181938F01EBCF529A5A9A08958F
:1053A00052985A9AEA9AE9E6F0E080818F7C8083ED
:1053B00008956150770B91E001C0990F6A95EAF763
:1053C00020E031E0911108C0222391F05A9A80E246
:1053D0008A95F1F75A980895492F482339F05A9A37
:1053E000232740E24A95F1F79695ECCF5A98F9CFEA
:1053F0005A98EDCFFF920F931F93CF93DF93EC0159
:105400008C01060F111DC017D10729F4CDB7DEB7E7
:10541000E5E00C946C2BF9900E947B2968E08F2DBD
:105420000E94D929F0CF1F920F920FB60F9211242C
:105430000F931F932F933F934F935F936F937F939C
:105440008F939F93AF93BF93EF93FF93CF93DF938C
:105450000F92CDB7DEB719820E947329CE01019653
:105460000E948129082F069506950695282F2295DA
:105470002570902F9570290F922F93702695269561
:10548000920F982797708981982B09F05CC00B3098
:1054900008F059C080E18A95F1F75A9A529A82E051
:1054A0008A95F1F700C05A9888E0089F800111247E
:1054B000D801A65FBE4F1696ED91FC9117973097D5
:1054C000A9F06091A0017091A10114962D913C91D9
:1054D0001597260F371F11968D919C911297680F83
:1054E000791F13964C9113978C910995F801E65FFB
:1054F000FE4F6381662351F02091A0013091A101FC
:1055000084819581820F931F0E94FA290E947B2932
:1055100080E18A95F1F75A9852985A9A80E18A95D3
:10552000F1F7F801E65FFE4F6081662351F02091AC
:10553000A0013091A10181819281820F931F0E946D
:10554000AD290E9473290F90DF91CF91FF91EF91C8
:10555000BF91AF919F918F917F916F915F914F918B
:105560003F912F911F910F910F900FBE0F901F90A1
:1055700018950F931F93CF93DF93EC010B970CF0CB
:105580004CC0F894529A5A9885E08A95F1F7000039
:105590009C2F969595708C2F8570980F892F83700E
:1055A0009695969523E0CC0FDD1F2A95E1F7980F8D
:1055B0008E01092B0E947B2900C068E0802F0E9489
:1055C000D92980E18A95F1F752985A9A4A9B1EC0D0
:1055D00087E090E04A991CC0FE01E65FFE4F6381C0
:1055E0006623F9F02091A0013091A1018481958179
:1055F000820F931F0E94AD29811113C0529A5A9AAB
:105600007894DF91CF911F910F91089500C0DECF64
:10561000019729F4529A5A9A789480E0F2CF00C008
:10562000D9CF0E94732980E28A95F1F75A98529A4D
:1056300080E18A95F1F7C65FDE4F6881662351F0FD
:105640002091A0013091A10189819A81820F931F3D
:105650000E94FA290E947B29789481E0D2CFAA1B6C
:10566000BB1B51E107C0AA1FBB1FA617B70710F04D
:10567000A61BB70B881F991F5A95A9F7809590957F
:10568000BC01CD0108952F923F924F925F926F928D
:105690007F928F929F92AF92BF92CF92DF92EF92C2
:1056A000FF920F931F93CF93DF93CDB7DEB7CA1B43
:1056B000DB0B0FB6F894DEBF0FBECDBF09942A886E
:1056C000398848885F846E847D848C849B84AA8416
:1056D000B984C884DF80EE80FD800C811B81AA81A3
:1056E000B981CE0FD11D0FB6F894DEBF0FBECDBF6E
:1056F000ED010895991B79E004C0991F961708F0F1
:10570000961B881F7A95C9F780950895EE0FFF1FA5
:105710000590F491E02D0994692796276927782749
:10572000872778270895FB01DC0102C005900D92C0
:1057300041505040D8F70895FB01DC0104C08D9121
:105740000190801921F441505040C8F7881B990BF3
:105750000895FB01DC0102C001900D9241505040C0
:10576000D8F70895F999FECF92BD81BDF89A99278F
:1057700080B50895A6E1B0E044E050E00C94EC2B35
:10578000A8E1B0E042E050E00C94EC2B262FF99910
:10579000FECF92BD81BDF89A019700B4021639F090
:1057A0001FBA20BD0FB6F894FA9AF99A0FBE089561
:1057B0000396272F0E94C72B0E94C62B252F0E94DD
:1057C000C72B242F0C94C72B0196272F0E94C72B81
:1057D0000C94C62BDC01CB01FC01F999FECF06C06D
:1057E000F2BDE1BDF89A319600B40D92415050409F
:1057F000B8F708955058BB27AA270E94122C0C9482
:10580000F12C0E94E32C38F00E94EA2C20F039F4AD
:105810009F3F19F426F40C94E02C0EF4E095E7FB7E
:105820000C94DA2CE92F0E94022D58F3BA17620764
:1058300073078407950720F079F4A6F50C94242DBE
:105840000EF4E0950B2EBA2FA02D0B01B90190019B
:105850000C01CA01A0011124FF27591B99F0593FDF
:1058600050F4503E68F11A16F040A22F232F342F27
:105870004427585FF3CF469537952795A795F04075
:105880005395C9F77EF41F16BA0B620B730B840B8A
:10589000BAF09150A1F0FF0FBB1F661F771F881F42
:1058A000C2F70EC0BA0F621F731F841F48F487959A
:1058B00077956795B795F7959E3F08F0B0CF93958C
:1058C000880F08F09927EE0F9795879508950E9405
:1058D0006E2C6894B1110C94252D08950E940A2D08
:1058E00088F09F5798F0B92F9927B751B0F0E1F0A1
:1058F000660F771F881F991F1AF0BA95C9F714C051
:10590000B13091F00E94242DB1E008950C94242D23
:10591000672F782F8827B85F39F0B93FCCF3869589
:1059200077956795B395D9F73EF4909580957095E6
:1059300061957F4F8F4F9F4F0895E89409C097FB63
:105940003EF490958095709561957F4F8F4F9F4F56
:105950009923A9F0F92F96E9BB279395F69587959A
:1059600077956795B795F111F8CFFAF4BB0F11F45D
:1059700060FF1BC06F5F7F4F8F4F9F4F16C0882304
:1059800011F096E911C0772321F09EE8872F762F3A
:1059900005C0662371F096E8862F70E060E02AF07B
:1059A0009A95660F771F881FDAF7880F9695879567
:1059B00097F9089597F99F6780E870E060E008958F
:1059C0009FEF80EC089500240A9416161706180617
:1059D0000906089500240A941216130614060506F3
:1059E0000895092E0394000C11F4882352F0BB0F84
:1059F00040F4BF2B11F460FF04C06F5F7F4F8F4FE7
:105A00009F4F089557FD9058440F551F59F05F3F21
:105A100071F04795880F97FB991F61F09F3F79F0D0
:105A200087950895121613061406551FF2CF469552
:105A3000F1DF08C0161617061806991FF1CF8695D4
:105A40007105610508940895E894BB2766277727B8
:105A5000CB0197F908950E943E2D0C94F12C0E94E1
:105A6000E32C38F00E94EA2C20F0952311F00C94DE
:105A7000DA2C0C94E02C11240C94252D0E94022D7C
:105A800070F3959FC1F3950F50E0551F629FF00191
:105A9000729FBB27F00DB11D639FAA27F00DB11DAA
:105AA000AA1F649F6627B00DA11D661F829F222733
:105AB000B00DA11D621F739FB00DA11D621F839FBA
:105AC000A00D611D221F749F3327A00D611D231F90
:105AD000849F600D211D822F762F6A2F11249F57DE
