:100000000C94D4050C94F1050C94F1050C94CF2CB0
:100010000C94F1050C94F1050C94F1050C94F10588
:100020000C94F1050C94F1050C945C200C941820B0
:100030000C9422230C94F1050C94F1050C94F10519
:100040000C94F1050C94F1050C94F1050C94F10558
:100050000C94F1050C9435210C94F1050C94F105E8
:100060000C94F1050C94F1050C94F1050C94F10538
:100070000C94F1050C94F1050C94F1050C94F10528
:100080000C94F1050C94F1050C94F1050C94F10518
:100090000C94F1050C94F1050C94F1050C94F10508
:1000A0000C94F1050C94F1050C94F105050109027D
:1000B000A10185020901A1000509190129081500FE
:1000C0002501950875018102050109300931158165
:1000D000257F95027508810609381581257F9501D0
:1000E00075088106050C0A38021581257F95017572
:1000F000088106C0C005010980A101850319012AF4
:10010000B700150126B700950175108100C0050CD8
:100110000901A101850419012AA002150126A002E6
:10012000950175108100C00660FF0961A101096297
:10013000150026FF00952075088102096315002629
:10014000FF00952075089102C005010906A101056F
:100150000719E029E7150025019508750181029529
:1001600001750881010507190029FF150026FF0008
:100170009506750881000508190129059505750181
:100180009102950175039101C0000000000000007C
:10019000000000000000000000000000000000005F
:1001A000000000000000000000000000007E0F00C2
:1001B000D4FFFFFFC700000078000000000000002F
:1001C000002A2B28000000000000000000000000B2
:1001D0000000000029000000002C1E3420212224F1
:1001E000342627252E362D3738271E1F202122237F
:1001F0002425263333362E37381F04050607080911
:100200000A0B0C0D0E0F10111213141516171819D6
:100210001A1B1C1D2F3130232D3504050607080934
:100220000A0B0C0D0E0F10111213141516171819B6
:100230001A1B1C1D2F3130354C00DA0281FFD9F119
:10024000DB20A4A62EAF00A0C000A1C800AED580C0
:10025000A81FD300408D14200020202020204B65B3
:1002600079202062616C6C20363120202000646986
:10027000614E6D4C636B00650020202020204D6591
:100280006469614D002D202020206D2020002D006C
:100290002B202020002B00466E466E4620003B3A65
:1002A0005D202C2E2F5C00200020202D5E5C202065
:1002B00020405B20006B6C3B6E6D2C2E2F006A0083
:1002C00036373839307975696F7068002020202002
:1002D00020436E743A200020630072007900780099
:1002E000760068002020202020006B43704C636B58
:1002F0000063002020202020202020202053634C59
:1003000000202020202020003E00466E466E4646FB
:100310006E5E2020203C56002020204920200045F1
:100320000020202020202020552020204844006745
:100330007A786376620066003132333435717765DE
:100340007274617364004C59523A0000000000005E
:10035000003E5B4F5B3E003E6B4F6B3E001C3E7CA5
:100360003E1C00183C7E3C18001C577D571C001C8E
:100370005E7F5E1C0000183C180000FFE7C3E7FF2B
:1003800000001824180000FFE7DBE7FF0030483AC0
:10039000060E00262979292600407F050507004022
:1003A0007F05253F005A3CE73C5A007F3E1C1C0855
:1003B00000081C1C3E7F0014227F2214005F5F0097
:1003C0005F5F0006097F017F00006689956A006013
:1003D000606060600094A2FFA2940008047E04089C
:1003E0000010207E20100008082A1C0800081C2A83
:1003F0000808001E10101010000C1E0C1E0C0030FF
:10040000383E383000060E3E0E06000000000000A8
:100410000000005F000000000700070000147F14C8
:100420007F1400242A7F2A120023130864620036F6
:100430004956205000000807030000001C2241001C
:10044000000041221C00002A1C7F1C2A0008083ED4
:100450000808000080703000000808080808000044
:1004600000606000002010080402003E5149453E33
:100470000000427F4000007249494946002141493D
:100480004D33001814127F10002745454539003CB4
:100490004A49493100412111090700364949493685
:1004A00000464949291E00000014000000004034A5
:1004B0000000000008142241001414141414000059
:1004C00041221408000201590906003E415D594EBF
:1004D000007C1211127C007F49494936003E41419F
:1004E0004122007F4141413E007F49494941007F0F
:1004F00009090901003E41415173007F0808087F46
:100500000000417F4100002040413F01007F08146E
:100510002241007F40404040007F021C027F007F5C
:100520000408107F003E4141413E007F0909090651
:10053000003E4151215E007F0919294600264949A4
:1005400049320003017F0103003F4040403F001F4C
:100550002040201F003F4038403F006314081463D0
:10056000000304780403006159494D4300007F41B2
:10057000414100020408102000004141417F000475
:100580000201020400404040404000000307080010
:10059000002054547840007F2844443800384444B4
:1005A000442800384444287F00385454541800002C
:1005B000087E0902001824241C78007F08040478AF
:1005C0000000447D4000002040403D00007F102896
:1005D00044000000417F4000007C04780478007CE7
:1005E00008040478003844444438007C1824241853
:1005F00000182424187C007C080404080048545483
:1006000054240004043F4424003C4040207C001C4F
:100610002040201C003C4030403C0044281028442E
:10062000004C9090907C004464544C440000083688
:100630004100000000770000000041360800000281
:1006400001020402003C2623263C000000000000BA
:10065000000000000000000000000000000000009A
:10066000000000C0F0F88C86C6E7FFFFFFFFFFFF29
:10067000FEFCFCF8E080000000F0F0F00000C0E0BC
:10068000F07070000000000000000000000000009A
:10069000000000000000000000F8F8F80000000072
:1006A000000000000000000000000000000000F852
:1006B000F8F80000F8F8F800000000000000000062
:1006C000000000000000000000E0F0F0F0E0ECEEC0
:1006D000F7F37020007C7C7C7E007E7E7E7F7F7FB7
:1006E000000080C0E07E5B4F5BFEC00000C000DC0D
:1006F000D7DEDEDED7DC00C0000000000000000016
:1007000000000000000000000000000000000000E9
:1007100000000000000000000000000080E0707891
:10072000686C64C7C7C7C7C7C7E73F1F0F3FFFFF56
:10073000FFFFFFFF3F0F000000FFFFFF1E3FFFF323
:10074000E1800000F8FCFE3636363EBCB8000E3EB6
:10075000FEF080F0FE3E0E0000FFFFFF060606FEE4
:10076000FEFC7000E6F6F63636FEFEFC000000FFEA
:10077000FFFF0000FFFFFF0000000000000000007E
:100780000000000000000000000F1F3F7F7F7F7F00
:100790007F3F1E0C001F1F1F3F003F3F3F7F7F7F9B
:1007A00000307B7F7830202030787F3B0003000FC3
:1007B0007F0F0F0F7F0F00030000000000000000FC
:1007C0000000000000000000000000000000000029
:1007D00000000000000000000000003C7F6360E0BB
:1007E000C0C0C0C0C0C0C0C0FFFFC06030180F0391
:1007F00003030100000000000003030300000003E6
:1008000003030300010303030303030301007070E8
:10081000393F1F0701000000000103030303030326
:1008200003010000010303030303030100000003AD
:1008300003030000030303000000000000000000A9
:1008400000000000000000000000000000000000A8
:100850000000000000000000000000000000000098
:100860000000000000000000000000000000000088
:100870000000000000000000000000000000000078
:10088000000000000000000000000000AF00AE29E2
:10089000001E001F00000020002100220000002B8D
:1008A0000014001A0000000800150017000000E105
:1008B00000040016000000070009000A000000E024
:1008C000001D001B000000060019000500F60000D6
:1008D000000000E3000000E2008B41F400F5002A74
:1008E0000027002600000025002400230000002D22
:1008F000001300120000000C0018001C000000286B
:100900000033000F0000000E00BB5D0B000000E58F
:10091000003800370000003600100011002C00E401
:1009200000E40000000000000000008A43025100C3
:1009300000000000000000000000000000000001B6
:10094000000000000000004B00000000000000015B
:100950000000004A0000004E004D000000000001B1
:10096000000000000000004900000000000100003D
:100970000000000100000001000100000000004C28
:100980000089002E0000002D000000000000000083
:100990000030002F000000000000000000000001F7
:1009A00000320034000000330000000000000001AD
:1009B000008700380000003700360000000000010A
:1009C0000001000000000000000000010001000024
:1009D000003A003B0000003C003D003E00000001EA
:1009E000004400450000005200000000000000012B
:1009F0000000005000000051004F00000000000106
:100A000000000000000000000000000000010000E5
:100A10000000000100000001000100F700F8004C98
:100A200000430042000000410040003F0000000180
:100A300000000000000000A900BD0000000000014F
:100A400000000000000000AA00BE0000000000013D
:100A500000000000000000A80000000000000001ED
:100A60000001000000000000000000010001000083
:100A70000000000000000000000000000000000175
:100A80000000000000000000000000000000000165
:100A9000000000470000000000000000000000010E
:100AA000000000000000003902000000000100000A
:100AB0000000000100000001000100F700F8004CF8
:100AC0000000000000000000000000000000000125
:100AD000000000BB000000AD00BC000000000001F1
:100AE000000000AB000000AE00AC00000000000100
:100AF00000000000000000000000005300000001A2
:100B000000010000000000000000000100010009D9
:100B1000025B00030100A0FA0904000001030101C7
:100B2000000921110100012240000705810308008E
:100B30000109040100020300000009211101000164
:100B4000222200070582032000010705030320007D
:100B50000109040200010300000009211101000144
:100B6000227B00070584032000011201000200001F
:100B700000085759000101000102000114034B0055
:100B800065007900620061006C006C003600310085
:100B90000000100359006F0077006B0065006500CE
:100BA000730000000403090411241FBECFEFDAE034
:100BB000DEBFCDBF11E0A0E0B1E0E4EEF1E602C09F
:100BC00005900D92A63EB107D9F725E0A6EEB1E05B
:100BD00001C01D92A939B207E1F70E9449230C9484
:100BE000BD300C940000E8EDF0E080818E7F8083C2
:100BF0001092E2001092DA001092E100A0EEB0E054
:100C00008C9181608C9380818F77808319BCA7ED54
:100C1000B0E08C918E7F8C9380818F7E8083109248
:100C2000730508952091E4003091E50095E6A9014F
:100C30002091EC00822F817020FF06C08091E80097
:100C400080FF06C080E008952091E80022FD1AC0D0
:100C500080918105882389F0853089F08091EB00AF
:100C600085FD0FC02091E4003091E5004217530745
:100C7000F9F29150E1F684E0089582E0089583E06E
:100C8000089581E00895EF92FF920F931F93CF9301
:100C90007C018B010E941206C82F811117C0809120
:100CA000E80085FD0BC08091E8008E778093E80016
:100CB0000E941206882399F3C82F08C0F70181917A
:100CC0007F018093F1000150110949F78C2FCF91DA
:100CD0001F910F91FF90EF9008958091830587FFFA
:100CE00013C08091E80082FF06C08091E8008B77F6
:100CF0008093E80004C0809181058111F2CF0895AE
:100D0000809181058823D9F38091E80080FFF8CF96
:100D10008091E8008E77ECCF982F9093E900242FF4
:100D2000762F50E0891731F07091EC002091ED00A2
:100D30005091F00021FD07C09F5F973071F78093BD
:100D4000E90081E008953091EB003E7F3093EB00A5
:100D50003091ED003D7F3093ED003091EB0031603C
:100D60003093EB007093EC002093ED005093F00073
:100D70002091EE0027FDE0CF80E00895B0E0A0E0F4
:100D8000E4ECF6E00C94092EC8EDD0E088818F7E6B
:100D90008883E7EDF0E080818160808384E082BF1A
:100DA00081E08093730588818E7F888302EE10E056
:100DB000F80110821092DA0081EEC82ED12CF601D3
:100DC000108288818F778883888180688883888172
:100DD0008F7D888319BC1092810510928205109234
:100DE000800510927F0590EEE92EF12CF7018081AD
:100DF0008B7F808388818160888342E060E080E02F
:100E00000E948C06F60180818E7F8083F8018081AC
:100E100081608083808188608083F70180818E7FFC
:100E20008083888180618883CDB7DEB7E8E00C9449
:100E3000252EFC018091890590918A0586179707D8
:100E4000A0F06115710529F49091E8009E779093C8
:100E5000E80090E06115710551F4911108C080918E
:100E6000E80082FF34C080E00895BC01F2CF809199
:100E700081058823C1F18530C1F18091E80083FDAF
:100E800030C08091E80082FDEACF8091E80080FFC9
:100E9000E1CF8091F3002091F200382F61157105A8
:100EA00019F02830310558F091E02830310509F06B
:100EB00090E02091E8002E772093E800CBCF81913D
:100EC0008093F100615071092F5F3F4FE7CF809110
:100ED0008105882341F0853041F08091E80083FF4F
:100EE000BECF81E0089582E0089583E008950895DB
:100EF00080917605089587E797E79093010880939E
:100F0000000888E19AE00FB6F894A89580936000F5
:100F10000FBE90936000FFCF2FB7F89460916C05DF
:100F200070916D0580916E0590916F052FBF0895AA
:100F30009C01FC0132969FEF80E04191461751F0F1
:100F40009F3F19F4411101C0982F8F5F8630A9F798
:100F50009F3F09F40895290F311D97FD3A95F90136
:100F6000628308952091690530916A052817390731
:100F700071F090936A0580936905E0916705F0919F
:100F80006805309721F00084F185E02D09950895DA
:100F900020916505309166052817390771F0909307
:100FA000660580936505E0916705F09168053097C7
:100FB00021F00680F781E02D09950895FC01680F66
:100FC000791F8FEF91E32191822728E030E087FF9E
:100FD00009C0880F892721503109C9F7E617F7079B
:100FE00091F70895880FF7CF80912603F901808348
:100FF0000895CF93DF93E6E2F3E083819481A581A6
:10100000B681E90188839983AA83BB831482138202
:1010100016821582DF91CF91089580E0089563E0F4
:1010200070E088E792E00E94DE07909177028913D2
:1010300018C0E0917802ED30A4F488E0E802F001F5
:101040001124E15FFE4F0680F781E02D309749F0D3
:101050002BE932E040917A026BE772E080917902ED
:1010600009950895E6E6F2E0838980934701848933
:1010700080935A0108959091DB0292FF06C0282FB9
:1010800028712830F9F4877F846093FF06C0282FE9
:1010900028712831F1F4877E84612091DC0220FFE1
:1010A00006C0382F38713830D9F4877F816021FF2E
:1010B00006C0282F28712831D1F4877E816194FDE4
:1010C000877E0895282F24712430F9F68B7F88605D
:1010D000DCCF282F2471243101F78B7E8861DDCF8E
:1010E000382F3171313019F78E7F8860E0CF282F8B
:1010F0002171213121F78E7E8861E1CFCF93DF937B
:10110000EC0182389105B1F108F040C081339105BE
:1011100009F49DC048F58932910509F48DC08A977C
:1011200009F49CC0C11522E5D20708F0BDC0C11565
:1011300031E5D30708F024C1C83ED10508F0A3C0AB
:10114000C13ED10588F5C83AD10508F08EC0C53A30
:10115000D10508F0F6C0C130D10531F1209721F159
:10116000C430D10508F545C08533910509F45FC049
:10117000C997C1F68091DB02837009F036C1809176
:10118000DC0283FF11C0C9E2D0E00EC0833E9105AE
:1011900099F170F4803E910501F1823E910511F6BE
:1011A0008091DB0282FD21C0CE01DF91CF910895B5
:1011B000863E910561F1873E910571F1843E91056E
:1011C00009F0B0CF8091DC0281FFEECF8091DB028D
:1011D000C7EED0E084FD0DC0E7CF8091DB0280FD3B
:1011E00033C09091DC0290FFDFCFC3EED0E084FFEC
:1011F000DBCFD0E0C0E0D8CF8091DB0282FDF2C02F
:101200009091DC0290FDF1C084FFCECFF2CF8091AF
:10121000DB0283FDDDCFC8CF8091DB0283FDE8C018
:101220009091DC0291FFF0CFC4EED0E0BDCF809171
:10123000DB0285FFB9CFA7CF8091DB0285FDDBC044
:101240008091DC0283FFB0CFC9E3D0E0ADCF8091C5
:10125000DB0286FFA9CFCAE2D0E0A6CF8091DB02F5
:1012600086FFA2CFC1E3D0E09FCFCF3BD10508F6E8
:10127000C85AD0E0CC0FDD1FCB56DE4F0990D88185
:10128000C02DD46491CFC11540E5D40708F064C0E7
:10129000C11580E4D80708F05CC0CE019A9581158D
:1012A0009F4108F481CFA5CFC11536E5D30718F5C6
:1012B000C11545E5D40708F07CC0C11584E5D80701
:1012C00008F072C09E01237033279C2F9695969547
:1012D000C115D34508F459C0C1E0D0E002C0CC0F1D
:1012E000DD1F2A95E2F730E2939FC0011124C82B3D
:1012F000D92BDA6859CFC1158AE5D80778F4C1151A
:1013000029E5D20708F060C0C11538E5D30708F415
:1013100070CFDC2FCC27C06FD06A46CFCE0190565D
:101320008115904208F065CF8D2F8F710E943B0888
:1013300090E0982F882788279F719C012C2BE9012A
:1013400041C0C55AD0E0CE56DE4FC881D0E0D0644F
:101350002BCFDF70D06A28CFCE018370992721E090
:1013600030E002C0220F331F8A95E2F7C695C6957A
:1013700080E2C89FE0011124C22BD32BDD6814CF7B
:10138000DC2FCC27C16FD06A0FCFC1E0D0E002C004
:10139000CC0FDD1F2A95E2F720E2929FC0011124B5
:1013A000C82BD92BDC6800CFDC2FCC27C46FD06AC8
:1013B000FBCE8C2F0E943B08C82FD0E0DC2FCC271F
:1013C000CC27DF71D062F0CE8C2F8F700E943B084B
:1013D00034E0D695C7953A95E1F7CF709C2FEC0194
:1013E000D069E2CEC2EED0E0DFCEC0EED0E0DCCEFF
:1013F000C6EED0E0D9CEC5E3D0E0D6CE809164026F
:10140000811110926402089580959091740598233B
:101410009093740508958091590290912802981331
:1014200001C008958F5F8770FACF9A3080F58830B9
:1014300070F548E0949F90011124820F932F911D25
:10144000682F677023E0969587952A95E1F7FC0150
:10145000EE0FFF1FE80FF91FEC5FFD4F50E040E07B
:1014600080E0219130E0062E02C0369527950A943F
:10147000E2F721703327042E01C0220F0A94EAF705
:10148000822B4F5F5F4F4330510559F7089580E03D
:1014900008959A3098F5883088F548E0949F900137
:1014A0001124820F932F911D282F277041E001C036
:1014B000440F2A95EAF723E0969587952A95E1F758
:1014C000FC01EE0FFF1FE80FF91FEC5FFD4F90E0EE
:1014D00080E070E05191DF0111979B01082E02C05E
:1014E000369527950A94E2F7217021952527242324
:1014F00025272C9301968330910561F70895982F45
:1015000092959F7011F0892F94E0282F26952695AB
:1015100011F09E5F822F869509F09F5F892F0895B5
:10152000282F80E227FF02C021958DE280930001E1
:101530003AE0822F632F0E94422E905D9093030128
:10154000811109C080E28093020180E28093010151
:1015500080E091E00895632F0E94422E905D909369
:101560000201822F64E60E94422E882371F3805D7F
:10157000EDCFCF93C82F809133038C1751F00E9489
:101580008C076093340370933503809336039093F4
:101590003703C0933303CF910895B0E0A0E0E3EDAB
:1015A000FAE00C94092EFC01EB01909138039111A3
:1015B00001C094E06081718191509B01092E02C0AD
:1015C000359527950A94E2F7D901092E02C0AA0F92
:1015D000BB1F0A94E2F76A1B7B0B718360836281F5
:1015E00073818B01092E02C0159507950A94E2F7C5
:1015F000D80102C0AA0FBB1F9A95E2F76A1B7B0BAA
:101600007383628381E80138BFEF1B072CF0802FC2
:10161000003811050CF08FE78D8321389FEF3907D3
:1016200054F1203831054CF5922F91959C83442339
:1016300019F081958D832C830E948C072D812111B7
:1016400003C02C812223D9F06093390370933A03AD
:1016500080933B0390933C0380913D039BE0980F64
:10166000973120F4080F00933D031D82CDB7DEB7FC
:10167000E8E00C94252E21E8D7CF2FE7D5CFC090F6
:101680003903D0903A03E0903B03F0903C036C198F
:101690007D098E099F096436710581059105E0F287
:1016A00010923D03D9CF9C01860F971F37FD07C0CD
:1016B00077FD04C097FF02C08FEF9FE7089577FF83
:1016C000FDCF97FDFBCF80E090E80895E82FE295ED
:1016D000EF70F0E031A1282F2F7081E090E001C081
:1016E000880F2A95EAF7382B31A392A18095892398
:1016F00082A30895E82FE295EF70F0E031A1282F42
:101700002F7081E090E001C0880F2A95EAF7982FAA
:101710009095932391A392A1892B82A30895B0E081
:10172000A0E0E5E9FBE00C94092E7C016B018091BF
:101730008C0501E010E08A3010F40AE010E0C1E00E
:10174000D0E062E975E0C701F6010995811104C096
:1017500021960C171D072CF4CDB7DEB7E8E00C94EA
:10176000252ECC9F9001CD9F300D300D112490E09F
:1017700080E045E34A95F1F7000001968217930750
:10178000C1F7DFCF80937005709372056093710588
:10179000809181058430F9F48093E9008FEF909176
:1017A000E800815095FD06C095ED9A95F1F700008F
:1017B0008111F5CF8091E80085FF0DC050E040E039
:1017C00063E070E080E795E00E9443068091E800C6
:1017D0008E778093E8000895BC0184E00E94C20BDC
:1017E0000895BC0183E00E94C20B08959C0184E02F
:1017F0008093E9009FEF8091E800915085FD06C03D
:1018000085ED8A95F1F700009111F5CF8091E80000
:1018100085FF0CC050E040E066E070E0C9010E9426
:1018200043068091E8008E778093E8000895CF9377
:10183000DF93EC0181E08093E9008FEF9091E80065
:10184000815095FD06C095ED9A95F1F70000811144
:10185000F5CF8091E80085FF14C050E040E068E0DB
:1018600070E0CE010E9443068091E8008E7780935D
:10187000E80088E0FE01A7E7B5E001900D928A95A7
:10188000E1F7DF91CF91089580916502811110C039
:101890008091D80080618093D8008AE18A95F1F721
:1018A00000C08091D90080FF0AC081E0809365026A
:1018B00081E090916502913009F080E0089582E026
:1018C000809365020E94F30510928105F1CF0E947A
:1018D000440C882359F0E0916705F0916805309732
:1018E00029F00190F081E02D0995089580E0089598
:1018F00057985F9A879A8F9825E02A95F1F700000C
:1019000089B187988F9A90EA9A95F1F790E0880FBD
:10191000892F881F990B21E0822781700895B0E0FC
:10192000A0E0E5E9FCE00C94092E6C017B0164E683
:1019300070E088E70E94492BEC0197FD12C010E08F
:1019400000E0F601E00FF11F849164E670E00E9470
:10195000B52BEC01892B29F40F5F1F4F0E151F05C6
:1019600081F70E942B2CCE01CDB7DEB7E8E00C94B6
:10197000252E8091630590916405911103C091E03B
:1019800089270895882369F062E070E08DE898E087
:101990000E948F0C892B19F0809163050895109295
:1019A000630580916305EBCFCF93C0916305809170
:1019B00064058823D1F00E948C07605A75418F4FCF
:1019C0009F4F60935F0570936005809361059093CE
:1019D0006205C11108C062E070E08BE898E00E94E7
:1019E0008F0C892B29F0C09163058C2FCF9108951E
:1019F00081E080936305F7CFCF93DF93C7EAD2E00E
:101A000060E0CE010E94902E2196C11584E0D80797
:101A1000B9F7DF91CF9108951F93CF93DF93122FE2
:101A20008430E0F46A30D0F44830C0F490E1699F2B
:101A3000E001112450E0440F551FC40FD51F90EA58
:101A4000899FC00DD11D1124632FCE0187960E945E
:101A5000902E612FCE0188960E94902EDF91CF911B
:101A60001F910895AF92BF92CF92DF92EF92FF92B3
:101A70001F93CF93DF938FE8C82E88E0D82ED0E055
:101A80007601C0E014C0F50125913491412F6C2FEF
:101A90008D2F0E940C0D82E0A80EB11C1F5F183024
:101AA00091F780E1E80EF11CCF5FCA3019F05701C1
:101AB00010E0E9CFDF5F80EAC80ED11CD43001F717
:101AC000DF91CF911F91FF90EF90DF90CF90BF906B
:101AD000AF90089586E290E00E94902E0895CF93F3
:101AE000C82F6FEF811163E283E290E00E94902E95
:101AF0006FEFC11161E084E290E00E94902E6FEFE1
:101B0000C11165E285E290E00E94902ECF91089588
:101B100080E00E946F0D60E070E0CB010E946A0DD2
:101B20000E94320D0E94FC0C81E00E946F0D08950E
:101B30000F931F93CF93DF93843030F56A3020F5F5
:101B4000483010F520E1629F8001112450E0440FDD
:101B5000551F040F151F30EA839F000D111D11241E
:101B6000C80187960E947C2EC82FD0E0DC2FCC279E
:101B7000C80188960E947C2E9E01282BC901DF9106
:101B8000CF911F910F91089590E080E0F8CF462FFC
:101B9000843040F47A3030F4683020F4672F0E94AB
:101BA000980D089590E080E00895CF92DF92FF9223
:101BB0000F931F93CF93DF936C0100918B0580915E
:101BC000D002082BC7E0D0E010E0FC2EC8010C2E9C
:101BD00002C0959587950A94E2F780FD0CC0219785
:101BE000A0F7F12C8F2DDF91CF911F910F91FF90D6
:101BF000DF90CF900895B6018C2F0E94C70D0E94F0
:101C00007E08019761F3EECFCF93DF93EC010E9442
:101C1000D50DBE010E94C70D0E947E08DF91CF91B5
:101C20000895FC0183819481892B29F08081918121
:101C300089238F3F51F480E00895843FE1F717C076
:101C4000883EA8F0813FB9F712C0808191810E943F
:101C5000040E92959F70963099F358F4925F9F709E
:101C6000923048F7803F19F040F7883E20F781E036
:101C700008959A5FF4CF86E290E00E947C2E682F50
:101C800070E090E080E0089583E290E00E947C2E76
:101C9000833289F484E290E00E947C2E813059F4F2
:101CA00085E290E00E947C2E91E0853209F090E080
:101CB000892F8170089580E0FCCFAEE1B0E0E3E6CB
:101CC000FEE00C940F2E40914E0350914F03609113
:101CD00050037091510380915203909153030E94DD
:101CE0003E1720934E0330934F034093500350937D
:101CF0005103609352037093530386E0EEE4F3E0E4
:101D0000DE01179601900D928A95E1F786E0FE01BB
:101D10003796DE011D9601900D928A95E1F786E0D7
:101D2000FE013D96DE01119601900D928A95E1F734
:101D300086E0FE013196AEE4B3E001900D928A9503
:101D4000E1F786E0EEE4F3E0DE01599601900D92B2
:101D50008A95E1F786E0FE017996DE0117960190FB
:101D60000D928A95E1F786E0FE013796DE01119625
:101D700001900D928A95E1F786E0FE013196DE0131
:101D8000539601900D928A95E1F786E0FE017396D5
:101D9000DE01179601900D928A95E1F786E0FE012B
:101DA0003796AEE4B3E001900D928A95E1F746E0F4
:101DB00050E068E473E08EE493E00E94662E892B85
:101DC00079F0E0916705F0916805309749F082E07D
:101DD00080934E030480F581E02D8EE493E0099515
:101DE0001092500310925103109252031092530319
:101DF00086E0EEE4F3E0A8E4B3E001900D928A956A
:101E0000E1F76E96E2E00C942B2E80917405909190
:101E10006302892B8093E80190916402992391F0E9
:101E2000892B8093E80120E08AEE91E0FC0131915A
:101E3000CF0131112F5FF1E0803F9F07B9F72111EA
:101E40000E94FE0948E050E06BE572E088EE91E008
:101E50000E94662E892BA9F088E0E8EEF1E0ABE560
:101E6000B2E001900D928A95E1F7E0916705F0915B
:101E70006805309731F00280F381E02D88EE91E023
:101E80000995089590E080E00E94C80790E080E006
:101E90000E94B207109263020E94050F0895CF932B
:101EA000C82F0E947F0A91E0833009F090E0892FCB
:101EB0000E94B90AC0938B050E94420FCF910895EA
:101EC00080918B05982F9670963021F488600E943F
:101ED0004F0F0895877FFBCF21E030E001C0220F34
:101EE0008A95EAF7209580918B0582230E944F0FF7
:101EF000089590915A028095892380935A02282F41
:101F0000277091F4282F082E000C330B921713061C
:101F100059F09091DC0292FF07C0859585958595D3
:101F20000E946C0F10925A020895CF93C091DC0268
:101F3000C2FB992790F9981791F080FBC2F9C093E2
:101F4000DC026091DB0284E090E00E94902E6C2F16
:101F500082E290E00E94902E82E00E94790FCF9161
:101F6000089521E030E001C0220F8A95EAF78091C0
:101F70008B05822B0E944F0F08958093D0020E9400
:101F8000420F0895882321F00E94040A0E94050F41
:101F90000895882339F090917405982B90937405D7
:101FA0000E94050F0895882391F19CEF980F913AB4
:101FB00080F4EAEEF1E020EF31E09191891303C063
:101FC000DF0111971C922E173F07B9F70E94050FEA
:101FD000089590E2980F983050F4877091E001C016
:101FE000990F8A95EAF7892F0E94040AEFCF9BE5A3
:101FF000980F933028F490E080E00E94C80708957D
:10200000885A873120F490E080E00E94B20708955A
:10201000CF93C82F8823B1F08CEF8C0F813A00F555
:10202000EAEEF1E080EF91E0DF012D91C21761F05F
:102030008A179B07D1F76C2F88EE91E00E949807D2
:102040000E94050FCF9108952191C21303C0DF01B3
:1020500011971C928E179F07B9F70E94050FEBCFBF
:1020600080E28C0F883068F4C77021E030E001C056
:10207000220FCA95EAF780917405822B809374052C
:10208000DFCFEBE5EC0FE33040F4F0E0EE56FE4F2F
:10209000808190E00E94C807D5CFC85AC73190F61A
:1020A000EC2FF0E0EE0FFF1FEB56FE4F8081918189
:1020B0000E94B207C7CF1F93CF93DF93182FC5E0BD
:1020C000D0E0893311F4C0E5D0E0812F0E940810E0
:1020D0008FE99FE00197F1F700C000002197C1F759
:1020E000812F0E94D30FDF91CF911F9108951F93ED
:1020F000CF93DF93162F8A3039F481E00E94351197
:10210000DF91CF911F9108958D3011F480E0F6CFCB
:10211000C0915D05D0915E0596E0FE01A7E5B5E0B2
:1021200001900D929A95E1F7803E90F186E0FE01D4
:1021300011928A95E9F7C0915D05D0915E05111164
:1021400033C046E050E0BE0187E595E00E94662E70
:102150009E0127553340892B91F52A5F3F4F4091CF
:102160005403642F70E0C9010E94EB2D481B4630D8
:1021700010F4240F311D211572E0370710F030E004
:1021800020E0295A3C4F30935E0520935D05B8CF7F
:10219000F6E08F9FB0011124655B7C4F46E050E074
:1021A000CE010E945D2EC7CF9E012A5F3F4FFE01E8
:1021B0002E173F0731F2808180958193F9CFC901B5
:1021C00045E0969587954A95E1F741E050E0BA01E0
:1021D00002C0660F771F8A95E2F7CB016091550325
:1021E00070915603862B972BB9016B5F7F4FE5E00B
:1021F00076956795EA95E1F702C0440F551F6A95F9
:10220000E2F7842B952B9093560380935503A5CF2B
:102210001F93CF93DF93EC01162FFE018491811160
:1022200004C0DF91CF911F910895612F0E94771014
:102230002196F3CFFF920F931F93CF93DF93EC017F
:10224000F62EFC0101900020E9F78F0101501109E1
:10225000C017D10728F0CDB7DEB7E5E00C94282EE3
:102260006F2D89910E947710F3CFCF93382FE09193
:102270005D05F0915E05E755F34020915403622F10
:1022800070E0CF010E94EB2D281B822F332369F0D1
:1022900066E00E94362EC82FC15010F4CF910895E9
:1022A00060E080E20E947710F7CF9F01280F311D78
:1022B0002115324018F080E0F0E0E0E08E0F9F2F13
:1022C000911D895A9C4F90935E0580935D05E6CFE2
:1022D000EAEEF1E086E0DF011D928A95E9F70E94BF
:1022E000420F0895AAE2B0E0E8E7F1E10C940E2E67
:1022F00083E895E02091F100DC012D93CD01B5E05C
:102300008B389B07B9F780918405833009F472C03C
:10231000B8F4813009F449C0823009F4B5C0809125
:10232000E80083FF8DC280918305909184059A30E7
:1023300008F086C2E92FF0E0E154FF4C0C94502ED7
:102340008A3009F490C08B3009F471C0893039F7B4
:1023500080918305813219F78091870590918805D6
:10236000009711F00297D9F68091E800877F80935B
:10237000E8008091E80082FF38C09091F3008091DE
:10238000F200029731F48091F100813011F0863033
:1023900021F48091F100809376058091E8008B779D
:1023A0008093E8000E946D06BACF80918305813A40
:1023B00009F0B5CF8091E800877F8093E800809195
:1023C000870590918805892B61F468E087E795E09F
:1023D00070E00E9419078091E8008B778093E800F5
:1023E0009ECF60E090E080E0F3CF80918105811185
:1023F000C0CF95CF80918305813A09F090CF80912D
:10240000870590918805892B09F089CF8091E80094
:10241000877F8093E8008091E80080FFFCCF809167
:102420008A018093F1008091E8008E77B9CF809186
:102430008305813209F073CF8091870590918805DB
:10244000892B09F06CCF8091E800877F8093E800AA
:102450000E946D068091850580938A011092740513
:102460000E9468115CCF80918305813209F057CFBB
:102470008091E800877F8093E8000E946D0680913C
:102480008605809375054BCF80918305813A09F0CD
:1024900046CF8091E800877F8093E8008091E80034
:1024A00080FFFCCF80917505BCCF803899F08238D1
:1024B00009F0C6C1809187058F70873008F0C0C1D0
:1024C0008093E9008091EB0085FB882780F91092CA
:1024D000E90006C080917F0590918005911182608E
:1024E0009091E800977F9093E8008093F10010921C
:1024F000F1008091E8008E779FC1882309F48DC197
:10250000823009F09DC180918505811190C1809133
:1025100087058F702FEF280F263008F091C1809328
:10252000E9002091EB0020FF82C1933031F48091CB
:10253000EB0080628093EB007AC19091EB00906198
:102540009093EB0021E030E001C0220F8A95EAF77A
:102550002093EA001092EA008091EB008860EACFB5
:1025600081116EC1109185051F778091E3008078FD
:10257000812B8093E3008091E800877F8093E800BF
:102580000E946D068091E80080FFFCCF8091E300FF
:1025900080688093E30082E0111183E080938105DD
:1025A0004FC18058823008F04BC120918505309191
:1025B00086052C3DE3E03E07A1F583E08A838AE2AD
:1025C00089834FB7F894DE01139620E03EE051E294
:1025D000E32FF0E050935700E49120FF03C0E29511
:1025E000EF703F5FEF708E2F90E0EA30C0F0C7963B
:1025F0008D939D932F5F243159F74FBF8091E80051
:10260000877F8093E8006AE270E0CE0101960E9425
:1026100019078091E8008B778093E80011C1C0967C
:10262000E7CF8091870590918805432F5527433048
:10263000510509F44AC078F54130510509F47AC0D2
:102640008BE590E0EFE0FBE04230510509F0F8C087
:102650002091E800277F2093E800209189053091A0
:102660008A058217930708F49C0140E02115310583
:1026700009F065C0411163C08091E80082FDC9CFB7
:1026800080918105882329F2853019F28091E80034
:1026900083FFF2CFBECF4132510509F43CC0423234
:1026A000510509F0CDC08330910508F0C9C0FC0187
:1026B000EE0FFF1FE652FE4F0190F081E02D895290
:1026C0009E4FDC018C9190E01AC0332721303105F8
:1026D000D1F02115310561F02230310509F0B0C08B
:1026E000ECE7FBE0E4918E2F90E0ECE7FBE007C025
:1026F000E4EAFBE0E4918E2F90E0E4EAFBE000974F
:1027000009F49EC0A5CFE2E9FBE0E4918E2F90E0B2
:10271000E2E9FBE0F4CF8330910508F091C0880F27
:10272000991FFC01E052FE4F0190F081E02D89E0FD
:1027300090E08ECF82E190E0EAE6FBE089CF8091E5
:102740008105882309F465CF853009F462CF809133
:10275000E80083FD5ECF8091E80082FD8DCF8091FF
:10276000E80080FF83CF9091F3008091F200211563
:10277000310519F08830910550F041E0089709F0D3
:1027800040E08091E8008E778093E8006FCF44911D
:102790004093F1003196215031090196E8CF8038FD
:1027A00009F04EC08091E800877F8093E800809117
:1027B00082058093F1009DCE811142C01091850564
:1027C0001230F0F58091E800877F8093E800109345
:1027D00082050E946D06112311F084E005C08091EE
:1027E000E30087FDFACF81E08093810542E061EC50
:1027F00081E00E948C0642E261EC84E00E948C063B
:1028000042E261EC82E00E948C0642E260EC83E0EE
:102810000E948C068091810513C0809185058130CE
:1028200079F481E0933009F080E080938005109284
:10283000E9008091E800877F8093E8000E946D06A0
:102840008091E80083FF0AC08091E800877F809331
:10285000E8008091EB0080628093EB00AA96E3E0B1
:102860000C942A2E109274050E9468112FEF84E3B5
:102870009CE0215080409040E1F700C0000088E1DA
:102880009AE00FB6F894A895809360000FBE9093DD
:102890006000FFCFB0E0A0E0E0E5F4E10C940A2E88
:1028A0007901C82F880FDD0B41155105A9F0FE01F4
:1028B00093E0EE0FFF1F9A95E1F7E15FFE4F8181F4
:1028C00092818A599D4F208130E04217530708F4C6
:1028D0009A01A9010E94732ECE010E94752DD82E57
:1028E0008823D1F001151105B9F083E0CC0FDD1F6D
:1028F0008A95E1F7FE01E15FFE4F438150E0041746
:10290000150708F4A801C15FDE4F6C817D816A590B
:102910007D4FC7010E94732E8D2DCDB7DEB7E7E046
:102920000C94262EA5E0B0E0E8E9F4E10C94072E23
:102930008D83E62E5A01F22E680180918C058A3033
:1029400028F080E02596EAE00C94232E8D818A30D1
:10295000C4F31A8219828A836B832C8363E070E04C
:10296000CE0102960E94DE078983E0924701F09231
:102970005A0110E000E030E020E044E050E0BE0109
:102980006F5F7F4F86E00E944A148823D1F24E2D5C
:1029900050E030E020E0B50187E00E944A1488232F
:1029A00081F230E020E041E050E0BE016B5F7F4FFC
:1029B00088E00E944A14882321F20F2D10E096012E
:1029C00050E040E070E060E089E00E944A14BACF35
:1029D000A4E0B0E0EEEEF4E10C940D2E4091C802BC
:1029E0005091C9026091CA027091CB022FB7F8943E
:1029F00080916C0590916D05A0916E05B0916F0569
:102A00002FBF841B950BA60BB70B11E084369105E5
:102A1000A105B10538F10E94440C882341F10E94C0
:102A20008C076E5F7F4F8F4F9F4F69837A838B83B5
:102A30009C8310E000E030E020E044E050E0BE0184
:102A40006F5F7F4F83E00E944A14182F882351F054
:102A50000E948C076093C8027093C9028093CA02D7
:102A60009093CB02812F2496E4E00C94292E0E94AF
:102A70008C070091D5021091D6022091D702309197
:102A8000D802600F711F821F931FCBCFA6E0B0E06A
:102A9000ECE4F5E10C940B2E7B0101E010E09E01CB
:102AA0002A5F3F4F50E040E070E060E080E00E942D
:102AB0004A14182F882309F453C04091C002509142
:102AC000C1026091C2027091C3022FB7F894809145
:102AD0006C0590916D05A0916E05B0916F052FBFAB
:102AE000841B950BA60BB70B84369105A105B10588
:102AF00048F465E070E087E692E00E94DE079E8180
:102B0000891771F105E010E09E012F5F3F4F50E003
:102B100040E070E060E081E00E944A14082F65E028
:102B200070E087E692E00E94DE0711E09E81981334
:102B300010E0102301F10E948C076093C002709393
:102B4000C1028093C2029093C30285E0FE013196D8
:102B5000ABEBB2E001900D928A95E1F711E00BC06A
:102B600085E0E7E6F2E0DE01119601900D928A958C
:102B7000E1F71111EACF85E0EBEBF2E0D70101902C
:102B80000D928A95E1F7812F2696E6E00C94272E88
:102B90008F929F92AF92BF92EF92FF920F931F93EB
:102BA000CF937B01942FB901A801F7018080918018
:102BB000A280B380EFB7F89400916C0510916D0579
:102BC00020916E0530916F05EFBF081919092A0988
:102BD0003B09043611052105310518F4C1E099239C
:102BE00081F010E000E030E020E00E944A14C82F9D
:102BF000882339F00E948C07F701608371838283F8
:102C000093838C2FCF911F910F91FF90EF90BF90E6
:102C1000AF909F908F9008950F931F9341E09091F4
:102C2000750280918B05981301C040E001E010E02F
:102C30002BE835E061ED72E084E00E94C81588233E
:102C400089F041E0909176028091D002981301C002
:102C500040E001E010E020ED32E06CEC72E085E055
:102C60000E94C8151F910F9108950F931F93CF9342
:102C7000DF93EC0145E050E06CE672E00E94662EC6
:102C800041E0892B09F440E005E010E09E0164EC8E
:102C900072E082E00E94C815DF91CF911F910F91E1
:102CA00008950E94780C80930E010E94440C8111BB
:102CB0000E94892C089590E080E00E948A2E883E30
:102CC0009E4F19F40E94440E089580E0089568EE26
:102CD0007EEF90E080E00E94AE2E60E082E090E027
:102CE0000E94902E60E083E090E00E94902E10926F
:102CF000D00260E084E090E00E94902E64E082E2E6
:102D000090E00E94902E60E085E090E00E94902E7E
:102D100060E086E090E00E94902E6FEF87E090E008
:102D20000E94902E40E050E0BA0188E090E00E94BE
:102D3000A22E60E08DE090E00E94902E40E050E0F6
:102D4000BA0188E190E00E94A22E60E087E190E065
:102D50000E94902E40E050E0BA018CE190E00E9489
:102D6000A22E70E060E080E290E00E94AE2E40E093
:102D700050E0BA0188E190E00E94A22E80E00E941B
:102D80006F0D0E94880D40E050E0BA018FE090E0A6
:102D90000E94A22E40E050E0BA0183E190E00E9440
:102DA000A22E0895B0E0A0E0E8EDF6E10C94052E27
:102DB000EC018B01942EAA80BB80B501B7FE04C044
:102DC000662777276A197B09072E000C880B990B59
:102DD0000E94692F0E9468300E9468306B017C015C
:102DE000B501BB0C880B990B0E94692FA7019601B6
:102DF0000E94F52F0E94312F862EF8016283A88051
:102E0000B980B501B7FE04C0662777276A197B0928
:102E1000072E000C880B990B0E94692F0E946830C6
:102E20009B01AC010E94C52E0E9468306B017C01A1
:102E3000B5010B2C000C880B990B0E94692FA70180
:102E400096010E94F52F0E94312FF801638399208B
:102E500021F08194828261956383198218821B829A
:102E60001A82CDB7DEB7ECE00C94212E28E030E0DA
:102E700043E060E086E30E94712A0895ACE0B0E090
:102E8000E4E4F7E10C94092E4F83588769877A8729
:102E90008B879C8780912603882399F00E943617A0
:102EA00080E50E94E92A8AEB8A95F1F700C00E942A
:102EB000012B887899278038910509F487C00E94F2
:102EC000192B0E94440C882309F46BC00E948C07C4
:102ED0000091FA011091FB012091FC013091FD015C
:102EE0006B017C01C01AD10AE20AF30A970186013C
:102EF000083011052105310508F453C06093FA012B
:102F00007093FB018093FC019093FD0100913403C9
:102F1000109135032091360330913703601B710BFC
:102F2000820B930B623371058105910580F4109239
:102F30002A031092290310922C0310922B03109253
:102F40002E0310922D031092300310922F03109134
:102F500033030E94780C482FBE01695F7F4F89E2DE
:102F600093E0112309F45FC00E94CD0A009133035E
:102F7000109126030E94780C41E04827BE01695F4A
:102F80007F4F8DE293E0011709F450C00E94CD0AF3
:102F900086E0FE013796A2E4B3E001900D928A9597
:102FA000E1F786E0FE013796DE01119601900D9261
:102FB0008A95E1F729813A814B815C816D817E811F
:102FC00080E090E02C96E8E00C94252E0E94012BE6
:102FD0000E94012B7C010E94012B20E0E22AF82AAA
:102FE0000E94012B8C010E94012B20E0022B182B48
:102FF0000E94192BF894B7018091290390912A031C
:103000000E94530B90932A0380932903B801809167
:103010002B0390912C030E94530B90932C038093CD
:103020002B0378944ECF0E94D216A0CF0E94D216C6
:10303000AFCFCF93DF93D82FC62F0E9436178D2F97
:1030400080680E94E92A8C2F0E94E92A0E94192B8D
:103050008FEC92E00197F1F700C00000DF91CF9173
:103060000895682F893708F068E76093310391E08D
:103070009093320390912603992359F06150811166
:1030800001C061E08FE00E94191860E080E50E94B5
:1030900019180895FB0180810E94311808959091BC
:1030A0003103911101C092E0282F880F330BA90141
:1030B000490F511DCA011816190614F081E090E05D
:1030C0000E9431180895A2E1B0E0E9E6F8E10C941D
:1030D000002E8C01FC0183819481892B31F0808149
:1030E000918189238F3F09F0CEC46296E1E10C946F
:1030F0001C2E0E94D50DF82E682F89819A810E947E
:10310000490A69817A818F2D0E94C70D7C01F801DF
:103110008281882309F4AAC4C70182519F45409740
:1031200008F065C48FEF93E00E947C2E811128C0C7
:10313000FEEEEF0E57EA852E52E0952EE11032C0DA
:103140001C821B82442443944AE0342E74018FEF86
:10315000E81AF80AC4010E947C2E89831A82882307
:1031600079F09FEF980F933058F58A83498292E067
:10317000890E911CC7010E947C2E8B83811121C076
:1031800080915A02877009F4B0CFF80182818823B8
:1031900009F4ABCF8091DC0282FFA7CF82E00E94CE
:1031A000790FA3CF811424E0920651F3C4010E9449
:1031B0007C2E811101C0EA943FEF831A930ABECF9F
:1031C0004701FE0131967F01F7012081222309F496
:1031D000BDCF213009F066C091818281913031F4F8
:1031E000F2E0EF0EF11C0E945B1007C0923039F53F
:1031F00022E0E20EF11C0E9408103FEFE31AF30AEE
:103200008FE99FE00197F1F700C00000EFE9FFE0D0
:103210003197F1F700C000008FE99FE00197F1F7C7
:1032200000C00000EFE9FFE03197F1F700C00000B7
:103230008FE99FE00197F1F700C00000C5CF933000
:1032400031F432E0E30EF11C0E94D30FD6CF94305C
:1032500021F08FEFE81AF80AD0CF92E0E90EF11CC6
:1032600030E020E0B7016F5F7F4FF701418180536D
:10327000990B8A30910558F02150310908F4BDCFDF
:103280008FE99FE00197F1F700C00000F5CF329E73
:10329000F001339EF00D11249C012E0F3F1F842F4F
:1032A0007B01E0CFE22FF0E0E754FE4F5490822FF5
:1032B00086958695869590E0FC01E755FE4F6490D3
:1032C0002770712C022E02C0759467940A94E2F75D
:1032D000E1E06E227724FC01E756FE4FA490B12C6A
:1032E000022E02C0B594A7940A94E2F7F1E0AF224F
:1032F000BB24FC01E757FE4FC490D12C02C0D594EB
:10330000C7942A95E2F721E0C222DD2461147104FA
:1033100019F081EE0E940810A114B10419F086EE94
:103320000E940810852D0E945B10A114B10419F0B1
:1033300086EE0E94D30F6114710419F081EE0E9491
:10334000D30FC114D10409F458CF8CE24CCF81E0E3
:103350000E94B10F0E94600F13CF81E00E946C0F9A
:10336000F9CF82E0F5CF8091FE018823B1F00E9471
:103370008C07C090FF01D0900002E0900102F09015
:1033800002026C197D098E099F0966397105810554
:10339000910518F48DE00E945B101092FE01F0CEB2
:1033A0008091FE01882341F01092FE0180E00E948E
:1033B000B90A8DE00E945B10F8018281F4EFEF16EC
:1033C000F10450F029EFE216F104A0F038EBE31617
:1033D0003DE5F30609F468C0882309F465C3F701E5
:1033E000E15BFD45EA30F10508F077C0E753FF4C9B
:1033F0000C94502E94EFE91AF10821E030E00E2CE5
:1034000001C0220F0A94EAF796E0EEE4F3E0DE0151
:10341000179601900D929A95E1F796E0FE01379686
:10342000DE011D9601900D929A95E1F7988588230B
:10343000A9F0292B2E8786E0FE013D96DE0111962C
:1034400001900D928A95E1F786E0FE013196AEE497
:10345000B3E001900D928A95E1F792CE2095292351
:10346000E9CF80E00E9431181092380389CE409154
:1034700031035091380350FB47F95695537060E083
:1034800070E08FE090E00E94A22E7ACE81E00E9450
:103490004F1876CE8FEFFBCF8AE0F9CF86EFF7CFCC
:1034A0009091330381E089270E94B90A69CE809107
:1034B0003803811101C084E08F5F18160CF081E0A1
:1034C000883008F087E0809338035ACE8091380323
:1034D000811101C084E08150F0CFE6E1EE16ECE509
:1034E000FE06A1F4809174058A7A91E009F490E0D7
:1034F0009093030269E2811165E388EE91E00E94F6
:1035000098070E94050F3CCE85E3D9C2FAE5EF1675
:10351000FDE5FF0609F47FC008F053C0E1143CE567
:10352000F30609F45CC08EEDE8168CE5F80609F4A4
:1035300065C0F8018281E080F180882309F46FC0C2
:10354000C7010E94D50DD82E682FC7010E94490AD5
:10355000B7018D2D0E94C70D0E947E087C01882E28
:10356000F801D280B580B2943FE0B32280915A0234
:103570008770C1F0AD2CDD20B1F08F2D807F8034BD
:1035800021F080E28E0D883068F08091DC0282FFAD
:1035900009C082E00E94790F80915A028770AA24A4
:1035A000A3948111A12C9F2C92942FE09222FBE0F6
:1035B000F91508F4A3C0E92DF0E0ED52FF4C0C948E
:1035C000502E9CE5E9169DE5F906D9F030F1F7EAB1
:1035D000EF16FDE5FF0609F0ACCF0E943214109201
:1035E00074050E9468112FEF34E38CE021503040C5
:1035F0008040E1F700C000000E947B070E94671630
:10360000ECCF8091DC0282FB882780F991E089274A
:103610000E94950F8ECF81E0FBCF80E0F9CFC701EC
:103620000E94150AD82E94CF2F2D2F70C22E8F2DC9
:10363000807F19F0C29490EFC922DD20B9F0CC2030
:1036400069F080E28E0D883010F0811009C0809101
:103650007405C82AC09274050E94050F8E2D4CC0B7
:1036600080916302C82AC0926302F6CF8E2D0E9419
:10367000D30FCC2009F442C080E28E0D883010F0C8
:10368000811004C08C2D0E94040A06C0C094809151
:103690006302C822C09263020E94050F2FC03F2D13
:1036A0003F70C32E8F2D807F803219F0C29480EF3F
:1036B000C822882089F081E0881609F468C0DD20DE
:1036C00009F472C0BB2009F468C0F801858180FF4D
:1036D000C5CF8F70858361C02091DC0222FD35C08B
:1036E000DD2069F1CC2039F080917405C82AC092A0
:1036F00074050E94050F80E00E940810292D2850B3
:10370000330B2430310510F40E94670CAA2009F411
:10371000ECCC80915A0280FDE8CCF80112828595AC
:10372000859585950E94B10FC8010E94631880910C
:103730005A028595859585950E946C0FD6CC80E0C0
:103740000E94D30FCC20D1F29DCFDD2099F0909133
:103750006402892F8C29B11003C00E94C90FCECFFB
:10376000E1E0BE12FACF22FFC9CF981739F2809359
:103770006402C4CFB11006C00E94FE098C2D0E94C5
:10378000C20FBCCFF1E0BF1609F4B8CFF5CFDD20F2
:1037900031F025E02B1508F4B1CF8C2DDECF34E0CD
:1037A0003B1508F4ABCFEACFBB2041F3F9E38F120E
:1037B00016C12FEF37EE83E0215030408040E1F713
:1037C00000C000008E2D0E94D30F98CF8F2D8695BC
:1037D0008695837061F0813009F090CFC7019370B6
:1037E000D11002C090E080E00E94B20787CFC701ED
:1037F0009370D11002C090E080E00E94C8077ECF95
:103800008F2D837091F5D11079CF4E2D429546952D
:103810004770440F440F8E2D8F70042E01C0880F07
:103820000A94EAF72E2D2071E4FE07C02FE030E065
:1038300001C0220F4A95EAF720953F2D369536951F
:103840003370323069F050F44091D002313029F0B9
:10385000822B84230E94BD0F51CF842B822BFACF61
:10386000282B8091D0028227F5CF8695DD2011F09C
:103870008F2D8170882309F441CF4E2D42954695B6
:103880004770440F440F8E2D8F70042E01C0880F97
:103890000A94EAF72E2D2071E4FE07C02FE030E0F5
:1038A00001C0220F4A95EAF720953F2D36953695AF
:1038B0003370323069F050F440918B05313029F08B
:1038C000822B84230E944F0F19CF842B822BFACF97
:1038D000282B80918B058227F5CFFF2DFF70FF2EBF
:1038E000DD2029F08F2F0E94B10F8E2D36CF8E2D27
:1038F0000E94C20F8F2D0E946C0F00CF8E2D22EFE1
:103900008216B1F1281570F030EF8316D1F091EFE7
:10391000891691F0DD2009F45DC0B1109FCE8F2D86
:103920008F712AC0E3EF8E1651F1F4EF8F12F2CFB0
:103930008091DC0282FD2FC08F2D8F71DD20D9F2A6
:103940001BC0DD2081F024E02B1508F4D7CE2F2DED
:103950002F7181E090E001C0880F2A95EAF79091DD
:103960008B058927AFCF35E03B1508F4C7CEEFCFE5
:103970008F2D8F71D110BFCF0E94B10FBFCE80E0CD
:10398000DD2009F49FCF9F2D9F7181E001C0880F3A
:103990009A95EAF797CFDD2091F08F2D8F71F82E51
:1039A0000E94B10F8091DC0282FF07C0E8E0FE9E1A
:1039B000C0011124836080935A028F2DDDCF81E0F6
:1039C0000E94790FF1E0FB1508F098CE82E00E948A
:1039D000790F94CEBB2041F0893309F4EACEEFE1B0
:1039E000FEE43197F1F7ECCE8F2D8F7184CFF0E1AB
:1039F000EF16FFE5FF0609F4AACC21E1E2162FE558
:103A0000F20609F4AECCF0923F03E0923E03F801D7
:103A10008081918190934103809340038281882328
:103A200051F02091EA023091EB022F5F3F4F30932B
:103A3000EB022093EA02FBEBEF16FDE5FF0609F02F
:103A4000AFCC0E94B90AF8018281882309F48BCC9B
:103A50000E948C076093FF01709300028093010223
:103A60009093020281E08093FE018ACB30E1E3165D
:103A70003FE5F30609F471CC81E1E8168FE5F8061D
:103A800011F682E06BCC85E0DE01119601900D927B
:103A90008A95E1F7F801228189819A81211129CB48
:103AA0000E94150AF82E2DCBF6E1EF16FCE5FF0675
:103AB00009F03FCD80910302811126CD89E2EAEE23
:103AC000F1E020EF31E09191891303C0DF011197FC
:103AD0001C922E173F07B9F714CD1F93CF93DF9396
:103AE00080912702807F09F049C0809124028823B9
:103AF00009F444C080915902D091280260912202B9
:103B000070912302A0912502B0912602C62FC723EF
:103B100016E0D81799F190E0109711F0CF3F19F403
:103B200001968770F6CF189F9001199F300D1124D0
:103B3000F901E75DFD4F41814713F2CF4081461304
:103B4000EFCF42814111ECCF438154814A1B5B0B83
:103B5000483C510528F7809127028F70806180933F
:103B60002702F901E25DFD4F80818F7080618083C3
:103B700082E292E00E9463180E940B0ADF91CF91CB
:103B80001F910895A1E1B0E0E8ECFDE10C94072E4F
:103B90008C0185E0F801DE011D9601900D928A9559
:103BA000E1F7D8011296EC90129782E2A82E82E0FB
:103BB000B82E60912502709126026115710509F4F5
:103BC00032C19091220240912302892F84238F3F9A
:103BD00009F429C12C9111963C9111971396CD901F
:103BE000DC90F0902402F601E61BF70BFF2009F4AD
:103BF000E5C080912702582F507FE83CF10508F07E
:103C0000ABC0511177C0FE2C431315C0921313C0E3
:103C1000E11011C08F70806180932702C5010E945E
:103C2000631880912702D80115968C938F2D619689
:103C3000EAE00C94232EC114D10429F0822F8323AF
:103C40008F3F09F00BC180E0B82FB170DB2E80FFF1
:103C50003CC0809159024091280256E0841315C05F
:103C60002D873E878D859E850E94040E292F2295E3
:103C70002F702230F0F0243018F59F70F1F0F80129
:103C80009581907FD1F4D12C1EC090E0589FF00117
:103C9000599FF00D1124E75DFD4F6181361306C079
:103CA0006081261303C06281E6120FC001968770FF
:103CB000D5CF9F7011F0882331F3805E883018F3E0
:103CC000C8010E946318FD2CB1CFEE2009F4AECFDD
:103CD0008091270281608093270282E292E00E9415
:103CE000631886E0E2E2F2E0DF011D928A95E9F7CF
:103CF000F12C9CCF431306C0921304C0F801EE20B0
:103D000009F476C0C8010E94110E882309F1EE2043
:103D1000F9F080912702803270F0209122023091D8
:103D2000230238872F831986DB86CA868C87CE01CB
:103D300007960E94631886E0F801A2E2B2E00190C3
:103D40000D928A95E1F70E946D1DFF24F3946ECFCA
:103D5000C8010E946318F9CF511107C082E292E0B6
:103D60000E94631886E0D501C0CF43130FC09213A1
:103D70000DC0E1100BC0F8018583C8010E946318D3
:103D800086E0D5011D928A95E9F750CFC8010E94BF
:103D9000110E8823E9F2EE20D9F2809127028032B9
:103DA00050F220912202309123023A8329831B8210
:103DB000DD82CC828E83CE010196BBCFE83CF1053B
:103DC000F8F6FE2CEE2021F243131FC092131DC003
:103DD0008091270280FD10C0982F907F69F0F80134
:103DE0008583903F31F0982F907F905F8F70892B63
:103DF0008583C8010E94631886E0F801A2E2B2E060
:103E000001900D928A95E1F711CFC8010E94110E21
:103E1000811191CF80912702816080932702C80190
:103E20000E94631803CFEE2009F492CFC8010E94CC
:103E3000110EF82E882309F48BCF86E0F801A2E258
:103E4000B2E001900D928A95E1F780912202909163
:103E500023020E94040E0E946D1DE8CE81E08E2593
:103E6000F3CEA7E1B0E0E7E3FFE10C940E2E4B8B1D
:103E70005C8B6D8B7E8B8F8B6111109263021A8A23
:103E8000198A85E0FE017396DE011D9601900D9260
:103E90008A95E1F786E0FE013D96DE0117960190D6
:103EA0000D928A95E1F7CE0107960E94C21D8823E4
:103EB00059F016E08091590290912802891345C06B
:103EC0006796E3E00C942A2E86E0FE013796DE0129
:103ED000119601900D928A95E1F78A859B85892B31
:103EE00041F38F81988589238F3F19F32091280210
:103EF00030E0C9010196877099274091590248170F
:103F0000190681F4109274050E946811109228021B
:103F10001092590286E0E2E2F2E0DF011D928A95FA
:103F2000E9F7C7CF96E0929FD001939FB00D11247F
:103F3000A75DBD4FFE01319601900D929A95E1F774
:103F4000809328020E940B0AB4CF819FC0011124E4
:103F5000875D9D4F0E94C21D882309F4B1CF8091D7
:103F6000590290E001968770992780935902A2CF59
:103F7000CF93C82F0E9436178C2F0E94E92A8FE713
:103F800092E00197F1F700C000000E94012BC82FBA
:103F90000E94192B9AE69A95F1F700C08C2FCF91C9
:103FA0000895CF93DF930E94692A269A0E943617BC
:103FB0006AE58AE30E9419182FEF80E792E021500A
:103FC00080409040E1F700C0000082E00E94B81FEE
:103FD00083E00E94B81F84E00E94B81F85E00E9421
:103FE000B81F86E00E94B81F60E080E10E941918A7
:103FF00080E00E94B81FD82F81E00E94B81FC82F10
:104000000E94192BD23419F481E0C13009F080E00C
:10401000817080932603882341F061E08FE00E9445
:10402000191860E080E50E941918DF91CF9108957A
:104030001F920F920FB60F9211242F933F934F931D
:104040005F936F937F938F939F93AF93BF93CF9320
:10405000DF93EF93FF93D091E900DF708091EC0044
:10406000C82FC17080FDC0E81092E9008091F00077
:10407000877F8093F00078940E9472111092E9007B
:104080008091F00088608093F000CD2BCF70C093BA
:10409000E900FF91EF91DF91CF91BF91AF919F9197
:1040A0008F917F916F915F914F913F912F910F90E1
:1040B0000FBE0F901F9018951F920F920FB60F9280
:1040C00011242F933F934F935F936F937F938F931D
:1040D0009F93AF93BF93EF93FF938091E10082FF93
:1040E00009C08091E20082FF05C08091E1008B7FD2
:1040F0008093E1008091DA0080FF24C08091D80095
:1041000080FF20C08091DA008E7F8093DA0080915A
:10411000D90080FF9DC080E189BD82E189BD09B4DD
:1041200000FEFDCF81E080938105809173058111B0
:1041300009C00E94F3050E94BE068091E2008460DF
:104140008093E2008091E10080FF17C08091E2003F
:1041500080FF13C08091E2008E7F8093E200809107
:10416000E20080618093E2008091D80080628093B9
:10417000D80019BC85E0809381058091E10084FF1F
:104180002BC08091E20084FF27C080E189BD82E1DD
:1041900089BD89B5982F917080FFFBCF8091D800A1
:1041A0008F7D8093D8008091E1008F7E8093E10025
:1041B0008091E2008F7E8093E2008091E200816036
:1041C0008093E20080918205882309F447C084E04F
:1041D00080938105809181058091E10083FF27C054
:1041E0008091E20083FF23C08091E100877F80936C
:1041F000E10082E080938105109282058091E100C8
:104200008E7F8093E1008091E2008E7F8093E200B8
:104210008091E20080618093E20042E060E080E013
:104220000E948C068091F00088608093F000FF91DE
:10423000EF91BF91AF919F918F917F916F915F911E
:104240004F913F912F910F900FBE0F901F90189597
:1042500019BC109281051092730574CF8091E30010
:1042600087FD93E090938105B5CF78941F921FB698
:104270001F9211248F939F93AF93BF9380916C05EE
:1042800090916D05A0916E05B0916F050196A11DED
:10429000B11D80936C0590936D05A0936E05B0934E
:1042A0006F05BF91AF919F918F911F901FBE1F907F
:1042B00018959C014FB7F89480916C0590916D050D
:1042C000A0916E05B0916F054FBF821B930B0895AF
:1042D0002FB7F89480916C0590916D05A0916E05B3
:1042E000B0916F052FBF0895B0E0A0E0EAE7F1E2DA
:1042F0000C94032E3AE0C32E31E0D32E4DE8842EE9
:1043000045E0942E05E011E0712CAA24A394B12C71
:10431000D8018D918D010E94660B00C0E401688078
:104320002AE0E22E21E0F22EF701D0E0C0E0419138
:10433000A42FA295AF70B0E090968C9195010C2EB1
:1043400001C0220F0A94EAF790E04F7002C09595E1
:1043500087954A95E2F780FD8EC0622A2196C43087
:10436000D10529F7F801319780810E947A0BA0EAE4
:10437000AA95F1F7F4018081861519F060827724FF
:104380007394FFEF8F1A9F0A21E00A30120709F099
:10439000BFCF01E010E0D7018D917D010E94660B37
:1043A00000C0C8010C2E01C0880F0A94EAF7782FCC
:1043B000EDE8F5E095E0A92E91E0B92E682F609523
:1043C000D5012D915D01822F82958F7090E0DC01E7
:1043D00090968C91AF01308190E02F7002C095953E
:1043E00087952A95E2F780FD49C0872F832B80832C
:1043F0003196DA018C91381711F077247394CA142E
:10440000DB04F1F6F701319780810E947A0BB0EA64
:10441000BA95F1F72196C830D10509F0BCCFC0910B
:10442000DA02772071F181E08093F2010E94682125
:104430009093F1018093F0018091F0019091F1014E
:104440000E945921059708F1D0E0CF5EDC4F45E08E
:1044500050E06DE875E0CE010E94662E892B41F098
:1044600085E0EDE8F5E0DE0101900D928A95E1F737
:104470001092F2010AC02095622270CF862F83230A
:10448000B6CF8091F2018111D7CF0E94440C182F32
:10449000E091DA0281115CC0C091D902D0E0CF5E18
:1044A000DC4FF0E0EF5EFC4F85E0A7E6B2E0019064
:1044B0000D928A95E1F765E070E087E692E00E9450
:1044C000DE078093660285E0ECE6F2E0DE01019013
:1044D0000D928A95E1F7C0907102D0907202E0903F
:1044E0007302F09074028091F3019091F401A09115
:1044F000F501B091F601C816D906EA06FB06D1F01F
:10450000C092F301D092F401E092F501F092F6012D
:104510000E94440C81110EC00E948C07C61AD70A53
:10452000E80AF90AC092D502D092D602E092D702E8
:10453000F092D8028091750280938B05809176026B
:104540008093D002872DCDB7DEB7EEE00C941F2EFE
:10455000A2E9B5E085E0ED0119928A95E9F7CE2F41
:10456000D0E0CF5EDC4F80918C058A30E8F566E4C0
:1045700075E1CE010E948F0B882309F452C065E3D8
:1045800076E1CE010E948F0B882309F44AC068EEC1
:1045900074E1CE010E948F0B882309F442C06CE0C5
:1045A00076E1CE010E948F0B8823D9F110928C0501
:1045B00081E08093F901C091D902D0E0CF5EDC4F59
:1045C00045E050E062E975E0CE010E94662E892B3D
:1045D00009F4B8CF85E0E2E9F5E0DE0101900D9243
:1045E0008A95E1F7712EAECF8091F7019091F80195
:1045F0000E945921843F914008F0B9CF8091F90180
:10460000882309F49FCF1092F901E091D902F0E0DC
:10461000EF5EFC4F95E0DF011D929A95E9F7782E49
:1046200091CF80918C058F3F31F08F5F80938C0507
:104630008A3008F4BDCF0E9468219093F8018093DE
:10464000F701DCCF1F921FB61F9211248F939F9307
:10465000AF93BF9380916B05811113C080916C055E
:1046600090916D05A0916E05B0916F054196A11DC9
:10467000B11D80936C0590936D05A0936E05B0936A
:104680006F05BF91AF919F918F911F901FBE1F909B
:104690001895CDB7DEB7AF970FB6F894DEBF0FBE53
:1046A000CDBF85B7806885BF85B7806885BF84B773
:1046B000877F84BF0FB6F894A895809160008861C9
:1046C00080936000109260000FBE80E890E00FB60B
:1046D000F89480936100909361000FBE8DE098E0A4
:1046E0009093E7018093E6010E94F3050E94BE06C5
:1046F0008091E20084608093E2007894809181054B
:104700008823A1F01091E9001F709091EC00892F8F
:10471000817090FD80E8182B1092E9008091E800EC
:1047200083FD0E9472111F701093E90082E084BD26
:1047300093E095BD9AEF97BD80936E001092D502DD
:104740001092D6021092D7021092D8020E94440E04
:10475000811102C00E94880D0E94511680910E01A5
:104760000E94511680910A010E947A0B80910B01E0
:104770000E947A0B80910C010E947A0B80910D01AE
:104780000E947A0B05E011E0D8018D918D010E9405
:104790007A0BB1E00A301B07B9F780910E0195E062
:1047A000811190E09093DA0285E0891B8093D90211
:1047B0000E94440C811102C00E948C2CEDE8F5E0AF
:1047C00087E995E0A1E1B3E011921D928E179F0752
:1047D000D9F70E945B16811102C00E94671682E021
:1047E00090E00E947C2E8093DF0284E090E00E94A3
:1047F0007C2E182F82E290E00E947C2E982F812F31
:104800009093DC028093DB020E947421EFE3FCE9C9
:104810003197F1F700C000000E94742180911103CC
:1048200080FF08C06FEF7FEF90E080E00E94AE2E27
:104830000E947B0783E090E00E947C2E0E94BD0FC7
:1048400080918B050E947F0A91E0833009F090E00F
:10485000892F0E94B90A83E080930C0380E2809341
:1048600054030E94432B6DE070E08CE492E00E94C0
:104870008F0C892BE9F580910C0363E070E081FDDA
:10488000F2C089E492E00E948F0C892B89F56DE0DB
:1048900070E089E392E00E948F0C892B49F50E9419
:1048A0008C07605A75418F4F9F4F60935F057093DF
:1048B00060058093610590936205E7E5F3E080E091
:1048C00092E0DF019C011D9221503040E1F7F0930E
:1048D0005E05E0935D058FEF9FEF90935603809305
:1048E000550381E0809364058093630510920D0366
:1048F0000E94440C811102C00E948C2C0E94D11F86
:104900000E94440C81112EC084EF97E090936601C1
:104910008093650125E130E03093610120936001CF
:1049200085E390E0909364018093630149EF57E041
:1049300050936E0140936D0130936901209368019B
:1049400090936C0180936B014AE458E15093760197
:10495000409375013093710120937001909374011D
:10496000809373010E945B16882389F08FE090E0AA
:104970000E94842E8B01862F8F770E943118001F92
:104980000027001F1370110F102B1093380387E7B7
:1049900091E09093680580936705CC24C39480913F
:1049A000810500E112E1853009F49FC00E94742165
:1049B00000EE12E0ADECB1E0BDA7ACA79D0161E156
:1049C00073E0F8019191DB018D91BD01D9014D9109
:1049D0009D018423B2E0EA3EFB0709F492C09817D8
:1049E00089F36DECE62E61E0F62E71E1A72E73E0FF
:1049F000B72E912CF501D1905F01D7018D917D01EA
:104A0000D822F80151908F015D1419F15D24812C99
:104A100077247394852D8721A1F08EA29FA291E027
:104A20008D2D872109F490E098A70E94682181606C
:104A3000782F9AA789A74EA15FA168A58AA50E9491
:104A4000311F8394770CF8E08F12E4CFF80131978F
:104A5000D08293945AE0852E9810CCCF0E948C0778
:104A6000DD24D3946FC086E492E00DCF8091810560
:104A7000843041F10E94B90C0E945D0E10926B05CA
:104A800048E150E080E40FB6F894A89540936000A8
:104A90000FBE8093600083B7817F846083BF83B73C
:104AA000816083BF7894889583B78E7F83BF0FB66C
:104AB000F894A895809160008861809360001092BE
:104AC00060000FBE80918005882379F00E947421D8
:104AD000ADECB1E0E1E1F3E081919D91892309F032
:104AE000E0C493E0EB31F907B9F780918105853097
:104AF00009F4BCCF109274050E9468110E94670CE3
:104B000055CF98136ECF0E9468218C018091DD02F1
:104B10009091DE0208171907A1F08FEF89A38AA3ED
:104B20001BA20E9468218160782F9DA38CA349A1BC
:104B30005AA16BA18DA10E94311F1093DE02009338
:104B4000DD02D12C0E94440C80916405882351F130
:104B500080910E0390910F030E945921C29708F093
:104B600010C120915503309156032115310509F0EC
:104B700069C2809163058823A9F00E948C07009187
:104B80005F05109160052091610530916205601B01
:104B9000710B820B930B6F3F7F4F8F4F9F4710F42A
:104BA0000E94B90CD1100E94D40C0E945D0E0E948C
:104BB000670C90911003891721F0809310030E94D5
:104BC0008C0780918105843009F411C30E94440C44
:104BD000882309F4E4CE0E948C072091210321113F
:104BE0006BC000911D0310911E0320911F03309193
:104BF00020034B015C01801A910AA20AB30A9501B5
:104C00008401043F11402105310508F455C060932B
:104C10001D0370931E0380931F03909320038091C4
:104C20001B0390911C03019690931C0380931B031C
:104C300019828E010F5F1F4F21E050E040E060E0DD
:104C40008AE00E949214811106C080911B0390910A
:104C50001C030A978CF1C0922103C092270381E0C4
:104C60009981911101C080E08093280380912603EF
:104C700010E0882329F00E94780C11E0811112E0E5
:104C800080912803882309F408C40E94780C8111BC
:104C900006C482E0182B0E943B0E4B015C01DC0134
:104CA000CB018C7FBC01CD01612B86169706A8062F
:104CB000B90611F00E946A0D80912803882309F437
:104CC0006ECE0E948C076B017C0180912203909133
:104CD0002303A0912403B091250346015701881AAC
:104CE000990AAA0ABB0AD501C4010497A105B10516
:104CF00080F119821A821B821C828E010F5F1F4F66
:104D000024E050E040E060E08BE00E9492148823B1
:104D1000C1F069817A8180912D0390912E030E94C8
:104D2000530B90932E0380932D036B817C81809194
:104D30002F03909130030E94530B90933003809384
:104D40002F03C0922203D0922303E0922403F09217
:104D5000250380913203882309F41FCE809131030B
:104D6000898310E000E020E0AE014F5F5F4F61E01B
:104D70008CE00E949214882309F40FCE1092320323
:104D80000CCE0E94682190930F0380930E0387E559
:104D900093E090935E0580935D0520918B05422FF3
:104DA00050E083E090E0182F211106C0882369F0BD
:104DB0000197C8F71FEF09C0BA01082E02C0759508
:104DC00067950A94E2F760FFF3CF60E086E493E032
:104DD0000E940811812F8F708A3008F075C0805DA5
:104DE00060E00E9477100E94780C882309F4D7C0F5
:104DF000113009F48EC00CF069C0112309F479C098
:104E000060E084EE92E00E940811809133038823D1
:104E100009F49BC061E082EE92E00E94081180914B
:104E200047030E94900A61E00E941A1161E080EE3F
:104E300092E00E940811809146030E94900A61E06E
:104E40000E941A1160E08AED92E00E9408118091A0
:104E500041038F708A3008F08FC0805D60E00E944F
:104E6000771060E087ED92E00E9408118091400386
:104E70008F708A3008F082C0805D60E00E947710F9
:104E800060E08CEC92E00E9408118091EA0290911F
:104E9000EB0226E0ECE8F1E0DE01119601900D92C4
:104EA0002A95E1F724E0009709F06AC060E0CE019E
:104EB00001960E941A1181E00E94351180916405CB
:104EC000882309F456CE4DCE895A8ACF123079F113
:104ED000133009F095CF60E083EF92E00E94081153
:104EE00061E081EF92E00E94081160E08AEE92E0BA
:104EF0000DC060E088E393E00E94081161E086E362
:104F000093E00E94081160E08FE293E00E94081194
:104F100077CF60E081E293E00E94081161E08FE1C9
:104F200093E00E94081160E088E193E0EFCF60E039
:104F30008AE093E00E94081161E088E093E00E941B
:104F4000081160E081E093E0E1CF60E08EED92E057
:104F50000E940811809144030E94900A60E00E9420
:104F60001A1160E08CED92E00E94081180914503D7
:104F70000E94900A60E064CF895A70CF895A7DCF31
:104F8000E1E0F0E0EC0FFD1FE20FF11D6AE070E0E0
:104F90000E94EB2D805D8083CB01215084CF1130A6
:104FA00059F144F41123C1F060E089E592E00E94D8
:104FB000081181CF123071F11330B1F760E089E749
:104FC00092E00E94081161E087E792E00E940811D8
:104FD00060E08EE692E00DC060E080EC92E00E941E
:104FE000081161E08EEB92E00E94081160E085EB11
:104FF00092E00E940811D8CF60E089EA92E00E9416
:10500000081161E087EA92E00E94081160E08EE9F1
:1050100092E0EFCF60E087E992E00E94081161E042
:1050200085E992E00E94081160E080E992E00E9428
:10503000081161E08EE892E00E94081160E085E8C6
:1050400092E0D7CF80910D0361E070E0811191CDA6
:10505000082F10E07B01082E02C0EE0CFF1C0A9402
:10506000E2F7A9014E215F21452B09F447C0909139
:105070000C0390FD45C08295880F80768093850152
:105080009801369527953695279520938801815E5E
:10509000809386011092890124E630E047E050E0D9
:1050A00063E871E088E70E94E32B892B09F061CD6A
:1050B000A80125E0440F551F2A95E1F780910C03C4
:1050C00080FD2CC0495A5C4F04E610E020E230E03D
:1050D00060E488E70E94042C892B09F04ACD0E94E5
:1050E000D40CE094F0948091550390915603E822FB
:1050F000F922F0925603E09255033BCD8F5FA8CF83
:10510000880F880F880F8093850110928801895F2E
:105110008093860183E080938901BECFECEEF2E0BC
:1051200080E2DF011D928A95E9F7E9ECF1E0FFA743
:10513000EEA705EC11E08DEC282E81E0382E97E0EB
:10514000A92E99249394AEA5BFA52D91BFA7AEA774
:10515000F80141908F01440E552E511CC201895A0D
:105160009C4F2C01E22FF0E0E451FD4F30E020E0B5
:105170009A2D921B9BA7B92C022E01C0BB0C0A943E
:10518000EAF7320190E0D3018D913D018B216BA5AF
:10519000691B6770862E062E000C770BB82F01C096
:1051A000BB0F8A94EAF78B2E719561957109677030
:1051B000772701C086956A95EAF7882A8081882A30
:1051C00080829F5F9830F9F62F5F3F4F31962830ED
:1051D000310571F6EEA5FFA52E163F0609F0B3CFF7
:1051E00004E610E020E230E04CEE52E071CF83E0C4
:1051F0008093E9008091E80082FFE8CC8091E8008C
:1052000090E085FF05C00E941206882399F091E086
:105210008091E8008B778093E800992309F4D6CC3D
:10522000E981E150E33108F080C0F0E0E152FF4C49
:105230000C94502E00E210E09E012F5F3F4F790149
:105240008091E80085FD0AC08091E8008B7780930B
:10525000E8000E941206882399F3D9CF8091F100CB
:10526000D7018D937D010150110951F7D0CF1A82DA
:105270008AE08B8310C08A818230A1F18330A9F14A
:10528000813009F052C00E948C070E94562E6B8319
:105290007C838D839E8380918105843009F096CC38
:1052A0001091E9001F709091EC00892F817090FDA2
:1052B00080E8182B82E08093E9008091E80080FF6D
:1052C0000DC050E040E060E270E0CE0101960E9427
:1052D00043068091E8008E778093E8001F7010935A
:1052E000E90074CC0E943B0ED0CF9E012D5F3F4F52
:1052F000E1E1F3E08191ACA5BDA59D91BDA7ACA76F
:105300008923D9018D939D01B3E0EB31FB0791F720
:10531000C2CF8A81823049F46B817C818D819E81EC
:105320000E94562E0E946A0DB6CF8FEF8983B3CFAD
:105330004C816B818A810E94980D98278927982734
:105340009E838D83A8CF2D813E813227232732274C
:105350004C816B818A810E940C0D9DCF0E94320D81
:105360009ACF80E18A8397CFE1E0EA8389E581CF14
:10537000EA80FB80FE24EF24FE248E010F5F1F4F86
:10538000AC80A00EB12EB11CC70189559D4FA0164F
:10539000B10609F480CFF9E5EF16F1E0FF0658F405
:1053A0000E947C2ED80114968C93FFEFEF1AFF0A0F
:1053B0000F5F1F4FE9CFF8011482F7CF0A811B81DD
:1053C0001027012710279E012F5F3F4F5901EC80C6
:1053D000E00EF12EF11CC80189559D4FE016F10633
:1053E00009F459CF093531E0130728F4D501149693
:1053F0006C910E94902EBFEFAB1ABB0A0F5F1F4F3C
:10540000EACF0E94FC0C47CF84E0ACCFEA80FB805F
:10541000FE24EF24FE248E010F5F1F4FAC80A00EF0
:10542000B12EB11CC7018796A016B10609F433CF7F
:10543000E0E8EE16E2E0FE0658F40E947C2ED80169
:1054400014968C93FFEFEF1AFF0A0F5F1F4FEACFFE
:10545000F8011482F7CF0A811B811027012710273A
:105460009E012F5F3F4F5901EC80E00EF12EF11CA1
:10547000C8018796E016F10609F40DCF003832E036
:10548000130728F4D50114966C910E94902EBFEF5B
:10549000AB1ABB0A0F5F1F4FEBCF80E0FBCB81E065
:1054A000F9CB09BD19BD09B400FEFDCF8091D8002C
:1054B0008F7D8093D8008091E00082608093E0002F
:1054C0008091E00081FDFCCF109274050E9468116C
:1054D0000CCB289A219A229A23982B9880E58CBD90
:1054E000089590918B019F3F09F071C08F3F09F49F
:1054F0006EC0611144C01092980590919805423099
:1055000009F441C0433009F442C094604130E1F1F4
:1055100041E050E042175307E0F190919805403187
:10552000510509F452C0C0F54230510509F446C096
:105530004830510509F446C09CB520919805922B3E
:105540009CBD90919705992319F09DB591609DBDE3
:1055500080938B01E82FE295EF70F0E031A1282FC6
:105560002F7081E090E001C0880F2A95EAF7382B70
:1055700031A392A18095892382A381E0089590E2CE
:1055800090939805BACF986090939805C1CF9C608E
:10559000FBCF440F551FBECF4034510549F0403872
:1055A000510541F04032510539F621E0209397052D
:1055B000926001C0936090939805BECF91E0909364
:1055C0009705BACF21E0209397059160F4CF80E052
:1055D0000895CF93DF938EBD0E946821EC010DB436
:1055E00007FE05C08EB590E0DF91CF9108950E942F
:1055F00068218C1B9D0B8436910588F38EEF9FEFFD
:10560000F3CFCF93DF931EBC0E946821EC010DB451
:1056100007FE05C08EB590E0DF91CF9108950E94FE
:1056200068218C1B9D0B8436910588F38EEF9FEFCC
:10563000F3CF80918B018F3F29F1E82FE295EF7036
:10564000F0E041A18F7021E030E0B90102C0660FA7
:10565000771F8A95E2F7CB01942F982B91A392A103
:10566000892B82A38FEF80938B018DB58E7F8DBDAB
:105670009CB580919805809589238CBD10929805E2
:105680001092970508951092B9008CE08093B800AD
:105690000895B0E0A0E0EFE4FBE20C94062EB82EF3
:1056A000EB010E9468216C01EE24E394F12CC431DB
:1056B000D10560F025E0E22EF12CCF3FDC0731F080
:1056C000CE0164E170E00E94EB2D7B0184EAA82EFC
:1056D00094E8992E1092BC00A092BC000E94682110
:1056E0008C018091BC0087FF0DC08091B900887F3C
:1056F0008830F9F08091B900887F8031D1F00FEFC8
:105700001FEF08C0C8010E945921E816F90648F7A2
:105710000EEF1FEFCF3FDC07E9F2C6010E945921CF
:10572000C817D907B8F6C801CDB7DEB7EBE00C94BF
:10573000222EB092BB009092BC000E9468218C0186
:105740008091BC0087FF0AC08091B900887F8831B2
:1057500011F08034A1F610E000E0E5CFC8010E940E
:105760005921E816F90660F7D3CF0F931F93CF9313
:10577000DF93EB018093BB0084E88093BC000E9420
:1057800068218C018091BC0087FF11C02091B90075
:10579000287F81E090E0283211F490E080E091953C
:1057A00081959109DF91CF911F910F910895CF3F7E
:1057B000DC0741F3C8010E945921C817D90710F727
:1057C0008EEF9FEFEFCFB0E0A0E0E9EEFBE20C94AC
:1057D000092E6B018A017901B9010E94492BE6016A
:1057E0000C0D1D1DC017D10711F097FF08C024E94B
:1057F0002093BC00CDB7DEB7E8E00C94252EB701AE
:1058000089910E94B52BEECFB0E0A0E0EAE0FCE287
:105810000C94092EC62F6A017901B8010E94492B08
:1058200097FD0CC0B8018C2F0E94B52BE601EC0C43
:10583000FD1CCE15DF0511F097FF08C024E9209369
:10584000BC00CDB7DEB7E8E00C94252EB8018991F5
:105850000E94B52BEECF84E98093BC0008958EE1C1
:105860004A9B02C08150E1F74A9BFECF08955A98A7
:1058700080E28A95F1F75A9A0895FC013BE03A9547
:10588000F1F798E020E080E031E040E14A95F1F75F
:10589000880F4A9B02C08160232742E04A95F1F7B6
:1058A000000040E14A95F1F7915079F790E19A951F
:1058B000F1F799B132E03A95F1F7000040E14A95ED
:1058C000F1F792FB992790F992272081920F90830C
:1058D0000895A1E0B0E0EFE6FCE20C940B2E1982F3
:1058E0008C017C01E60EF11C0E151F0541F481E0D0
:1058F0009981911180E02196E6E00C94272E0E9478
:105900002F2CCE0101960E943D2CF80181938F012E
:10591000EBCF529A5A9A089552985A9AEA9AE9E61F
:10592000F0E080818F7C808308956150770B91E057
:1059300001C0990F6A95EAF720E031E0911108C0A3
:10594000222391F05A9A80E28A95F1F75A980895A5
:10595000492F482339F05A9A232740E24A95F1F714
:105960009695ECCF5A98F9CF5A98EDCFFF920F93B6
:105970001F93CF93DF93EC018C01060F111DC0170D
:10598000D10729F4CDB7DEB7E5E00C94282EF990C5
:105990000E94372C68E08F2D0E94952CF0CF1F922B
:1059A0000F920FB60F9211240F931F932F933F93D3
:1059B0004F935F936F937F938F939F93AF93BF9317
:1059C000EF93FF93CF93DF930F92CDB7DEB719829A
:1059D0000E942F2CCE0101960E943D2C082F069587
:1059E00006950695282F22952570902F9570290FE2
:1059F000922F937026952695920F982797708981FC
:105A0000982B09F05CC00E3008F059C080E18A95EF
:105A1000F1F75A9A529A82E08A95F1F700C05A98A3
:105A200088E0089F80011124D801A15FBE4F16961F
:105A3000ED91FC9117973097A9F06091C301709197
:105A4000C40114962D913C911597260F371F11967E
:105A50008D919C911297680F791F13964C91139713
:105A60008C910995F801E15FFE4F6381662351F047
:105A70002091C3013091C40184819581820F931FCD
:105A80000E94B62C0E94372C80E18A95F1F75A9833
:105A900052985A9A80E18A95F1F7F801E15FFE4F3A
:105AA0006081662351F02091C3013091C40181814E
:105AB0009281820F931F0E94692C0E942F2C0F90BD
:105AC000DF91CF91FF91EF91BF91AF919F918F9116
:105AD0007F916F915F914F913F912F911F910F9106
