:100000000C94D4050C94F1050C94F1050C94892CF6
:100010000C94F1050C94F1050C94F1050C94F10588
:100020000C94F1050C94F1050C9416200C94D21F3D
:100030000C94DC220C94F1050C94F1050C94F10560
:100040000C94F1050C94F1050C94F1050C94F10558
:100050000C94F1050C94EF200C94F1050C94F1052F
:100060000C94F1050C94F1050C94F1050C94F10538
:100070000C94F1050C94F1050C94F1050C94F10528
:100080000C94F1050C94F1050C94F1050C94F10518
:100090000C94F1050C94F1050C94F1050C94F10508
:1000A0000C94F1050C94F1050C94F105050109027D
:1000B000A10185020901A1000509190129081500FE
:1000C0002501950875018102050109300931158165
:1000D000257F95027508810609381581257F9501D0
:1000E00075088106050C0A38021581257F95017572
:1000F000088106C0C005010980A101850319012AF4
:10010000B700150126B700950175108100C0050CD8
:100110000901A101850419012AA002150126A002E6
:10012000950175108100C00660FF0961A101096297
:10013000150026FF00952075088102096315002629
:10014000FF00952075089102C005010906A101056F
:100150000719E029E7150025019508750181029529
:1001600001750881010507190029FF150026FF0008
:100170009506750881000508190129059505750181
:100180009102950175039101C0000000000000007C
:10019000000000000000000000000000000000005F
:1001A000000000000000000000000000007E0F00C2
:1001B000D4FFFFFFC700000078000000000000002F
:1001C000002A2B28000000000000000000000000B2
:1001D0000000000029000000002C1E3420212224F1
:1001E000342627252E362D3738271E1F202122237F
:1001F0002425263333362E37381F04050607080911
:100200000A0B0C0D0E0F10111213141516171819D6
:100210001A1B1C1D2F3130232D3504050607080934
:100220000A0B0C0D0E0F10111213141516171819B6
:100230001A1B1C1D2F3130354C00DA0281FFD9F119
:10024000DB20A4A62EAF00A0C000A1C800AED580C0
:10025000A81FD300408D14200020202020204B65B3
:1002600079202062616C6C20363120202000646986
:10027000614E6D4C636B00650020202020204D6591
:100280006469614D002D202020206D2020002D006C
:100290002B202020002B00466E466E4620003B3A65
:1002A0005D202C2E2F5C00200020202D5E5C202065
:1002B00020405B20006B6C3B6E6D2C2E2F006A0083
:1002C00036373839307975696F7068002020202002
:1002D00020436E743A200020630072007900780099
:1002E000760068002020202020006B43704C636B58
:1002F0000063002020202020202020202053634C59
:1003000000202020202020003E00466E466E4646FB
:100310006E5E2020203C56002020204920200045F1
:100320000020202020202020552020204844006745
:100330007A786376620066003132333435717765DE
:100340007274617364004C59523A0000000000005E
:10035000003E5B4F5B3E003E6B4F6B3E001C3E7CA5
:100360003E1C00183C7E3C18001C577D571C001C8E
:100370005E7F5E1C0000183C180000FFE7C3E7FF2B
:1003800000001824180000FFE7DBE7FF0030483AC0
:10039000060E00262979292600407F050507004022
:1003A0007F05253F005A3CE73C5A007F3E1C1C0855
:1003B00000081C1C3E7F0014227F2214005F5F0097
:1003C0005F5F0006097F017F00006689956A006013
:1003D000606060600094A2FFA2940008047E04089C
:1003E0000010207E20100008082A1C0800081C2A83
:1003F0000808001E10101010000C1E0C1E0C0030FF
:10040000383E383000060E3E0E06000000000000A8
:100410000000005F000000000700070000147F14C8
:100420007F1400242A7F2A120023130864620036F6
:100430004956205000000807030000001C2241001C
:10044000000041221C00002A1C7F1C2A0008083ED4
:100450000808000080703000000808080808000044
:1004600000606000002010080402003E5149453E33
:100470000000427F4000007249494946002141493D
:100480004D33001814127F10002745454539003CB4
:100490004A49493100412111090700364949493685
:1004A00000464949291E00000014000000004034A5
:1004B0000000000008142241001414141414000059
:1004C00041221408000201590906003E415D594EBF
:1004D000007C1211127C007F49494936003E41419F
:1004E0004122007F4141413E007F49494941007F0F
:1004F00009090901003E41415173007F0808087F46
:100500000000417F4100002040413F01007F08146E
:100510002241007F40404040007F021C027F007F5C
:100520000408107F003E4141413E007F0909090651
:10053000003E4151215E007F0919294600264949A4
:1005400049320003017F0103003F4040403F001F4C
:100550002040201F003F4038403F006314081463D0
:10056000000304780403006159494D4300007F41B2
:10057000414100020408102000004141417F000475
:100580000201020400404040404000000307080010
:10059000002054547840007F2844443800384444B4
:1005A000442800384444287F00385454541800002C
:1005B000087E0902001824241C78007F08040478AF
:1005C0000000447D4000002040403D00007F102896
:1005D00044000000417F4000007C04780478007CE7
:1005E00008040478003844444438007C1824241853
:1005F00000182424187C007C080404080048545483
:1006000054240004043F4424003C4040207C001C4F
:100610002040201C003C4030403C0044281028442E
:10062000004C9090907C004464544C440000083688
:100630004100000000770000000041360800000281
:1006400001020402003C2623263C000000000000BA
:10065000000000000000000000000000000000009A
:10066000000000C0F0F88C86C6E7FFFFFFFFFFFF29
:10067000FEFCFCF8E080000000F0F0F00000C0E0BC
:10068000F07070000000000000000000000000009A
:10069000000000000000000000F8F8F80000000072
:1006A000000000000000000000000000000000F852
:1006B000F8F80000F8F8F800000000000000000062
:1006C000000000000000000000E0F0F0F0E0ECEEC0
:1006D000F7F37020007C7C7C7E007E7E7E7F7F7FB7
:1006E000000080C0E07E5B4F5BFEC00000C000DC0D
:1006F000D7DEDEDED7DC00C0000000000000000016
:1007000000000000000000000000000000000000E9
:1007100000000000000000000000000080E0707891
:10072000686C64C7C7C7C7C7C7E73F1F0F3FFFFF56
:10073000FFFFFFFF3F0F000000FFFFFF1E3FFFF323
:10074000E1800000F8FCFE3636363EBCB8000E3EB6
:10075000FEF080F0FE3E0E0000FFFFFF060606FEE4
:10076000FEFC7000E6F6F63636FEFEFC000000FFEA
:10077000FFFF0000FFFFFF0000000000000000007E
:100780000000000000000000000F1F3F7F7F7F7F00
:100790007F3F1E0C001F1F1F3F003F3F3F7F7F7F9B
:1007A00000307B7F7830202030787F3B0003000FC3
:1007B0007F0F0F0F7F0F00030000000000000000FC
:1007C0000000000000000000000000000000000029
:1007D00000000000000000000000003C7F6360E0BB
:1007E000C0C0C0C0C0C0C0C0FFFFC06030180F0391
:1007F00003030100000000000003030300000003E6
:1008000003030300010303030303030301007070E8
:10081000393F1F0701000000000103030303030326
:1008200003010000010303030303030100000003AD
:1008300003030000030303000000000000000000A9
:1008400000000000000000000000000000000000A8
:100850000000000000000000000000000000000098
:100860000000000000000000000000000000000088
:100870000000000000000000000000000000000078
:10088000000000000000000000000000AF00AE29E2
:10089000001E001F00000020002100220000002B8D
:1008A0000014001A0000000800150017000000E105
:1008B00000040016000000070009000A000000E024
:1008C000001D001B000000060019000500F60000D6
:1008D000000000E3000000E2008B41F400F5002A74
:1008E0000027002600000025002400230000002D22
:1008F000001300120000000C0018001C000000286B
:100900000033000F0000000E000D000B000000E59A
:10091000003800370000003600100011002C00E401
:1009200000E40000000000000000008A43025100C3
:1009300000000000000000000000000000000001B6
:10094000000000000000004B00000000000000015B
:100950000000004A0000004E004D000000000001B1
:10096000000000000000004900000000000100003D
:100970000000000100000001000100000000004C28
:100980000089002E0000002D000000000000000083
:100990000030002F000000000000000000000001F7
:1009A00000320034000000330000000000000001AD
:1009B000008700380000003700360000000000010A
:1009C0000001000000000000000000010001000024
:1009D000003A003B0000003C003D003E00000001EA
:1009E000004400450000005200000000000000012B
:1009F0000000005000000051004F00000000000106
:100A000000000000000000000000000000010000E5
:100A10000000000100000001000100F700F8004C98
:100A200000430042000000410040003F0000000180
:100A300000000000000000A900BD0000000000014F
:100A400000000000000000AA00BE0000000000013D
:100A500000000000000000A80000000000000001ED
:100A60000001000000000000000000010001000083
:100A70000000000000000000000000000000000175
:100A80000000000000000000000000000000000165
:100A9000000000470000000000000000000000010E
:100AA000000000000000003902000000000100000A
:100AB0000000000100000001000100F700F8004CF8
:100AC0000000000000000000000000000000000125
:100AD000000000BB000000AD00BC000000000001F1
:100AE000000000AB000000AE00AC00000000000100
:100AF00000000000000000000000005300000001A2
:100B000000010000000000000000000100010009D9
:100B1000025B00030100A0FA0904000001030101C7
:100B2000000921110100012240000705810308008E
:100B30000109040100020300000009211101000164
:100B4000222200070582032000010705030320007D
:100B50000109040200010300000009211101000144
:100B6000227B00070584032000011201000200001F
:100B700000085759000101000102000114034B0055
:100B800065007900620061006C006C003600310085
:100B90000000100359006F0077006B0065006500CE
:100BA000730000000403090411241FBECFEFDAE034
:100BB000DEBFCDBF11E0A0E0B1E0E8E5F1E602C0A4
:100BC00005900D92A63EB107D9F725E0A6EEB1E05B
:100BD00001C01D92A439B207E1F70E9403230C94CF
:100BE00077300C940000E8EDF0E080818E7F808308
:100BF0001092E2001092DA001092E100A0EEB0E054
:100C00008C9181608C9380818F77808319BCA7ED54
:100C1000B0E08C918E7F8C9380818F7E8083109248
:100C20006E0508952091E4003091E50095E6A90154
:100C30002091EC00822F817020FF06C08091E80097
:100C400080FF06C080E008952091E80022FD1AC0D0
:100C500080917C05882389F0853089F08091EB00B4
:100C600085FD0FC02091E4003091E5004217530745
:100C7000F9F29150E1F684E0089582E0089583E06E
:100C8000089581E00895EF92FF920F931F93CF9301
:100C90007C018B010E941206C82F811117C0809120
:100CA000E80085FD0BC08091E8008E778093E80016
:100CB0000E941206882399F3C82F08C0F70181917A
:100CC0007F018093F1000150110949F78C2FCF91DA
:100CD0001F910F91FF90EF90089580917E0587FFFF
:100CE00013C08091E80082FF06C08091E8008B77F6
:100CF0008093E80004C080917C058111F2CF0895B3
:100D000080917C058823D9F38091E80080FFF8CF9B
:100D10008091E8008E77ECCF982F9093E900242FF4
:100D2000762F50E0891731F07091EC002091ED00A2
:100D30005091F00021FD07C09F5F973071F78093BD
:100D4000E90081E008953091EB003E7F3093EB00A5
:100D50003091ED003D7F3093ED003091EB0031603C
:100D60003093EB007093EC002093ED005093F00073
:100D70002091EE0027FDE0CF80E00895B0E0A0E0F4
:100D8000E4ECF6E00C94C32DC8EDD0E088818F7EB2
:100D90008883E7EDF0E080818160808384E082BF1A
:100DA00081E080936E0588818E7F888302EE10E05B
:100DB000F80110821092DA0081EEC82ED12CF601D3
:100DC000108288818F778883888180688883888172
:100DD0008F7D888319BC10927C0510927D0510923E
:100DE0007B0510927A0590EEE92EF12CF7018081B7
:100DF0008B7F808388818160888342E060E080E02F
:100E00000E948C06F60180818E7F8083F8018081AC
:100E100081608083808188608083F70180818E7FFC
:100E20008083888180618883CDB7DEB7E8E00C9449
:100E3000DF2DFC0180918405909185058617970729
:100E4000A0F06115710529F49091E8009E779093C8
:100E5000E80090E06115710551F4911108C080918E
:100E6000E80082FF34C080E00895BC01F2CF809199
:100E70007C058823C1F18530C1F18091E80083FDB4
:100E800030C08091E80082FDEACF8091E80080FFC9
:100E9000E1CF8091F3002091F200382F61157105A8
:100EA00019F02830310558F091E02830310509F06B
:100EB00090E02091E8002E772093E800CBCF81913D
:100EC0008093F100615071092F5F3F4FE7CF809110
:100ED0007C05882341F0853041F08091E80083FF54
:100EE000BECF81E0089582E0089583E008950895DB
:100EF00080917105089587E797E7909301088093A3
:100F0000000888E19AE00FB6F894A89580936000F5
:100F10000FBE90936000FFCF2FB7F89460916705E4
:100F2000709168058091690590916A052FBF0895B9
:100F30009C01FC0132969FEF80E04191461751F0F1
:100F40009F3F19F4411101C0982F8F5F8630A9F798
:100F50009F3F09F40895290F311D97FD3A95F90136
:100F6000628308952091640530916505281739073B
:100F700071F09093650580936405E0916205F091AE
:100F80006305309721F00084F185E02D09950895DF
:100F900020916005309161052817390771F0909311
:100FA000610580936005E0916205F09163053097DB
:100FB00021F00680F781E02D09950895FC01680F66
:100FC000791F8FEF91E32191822728E030E087FF9E
:100FD00009C0880F892721503109C9F7E617F7079B
:100FE00091F70895880FF7CF80912103F90180834D
:100FF0000895CF93DF93E1E2F3E083819481A581AB
:10100000B681E90188839983AA83BB831482138202
:1010100016821582DF91CF91089580E0089563E0F4
:1010200070E083E792E00E94DE07909172028913DC
:1010300018C0E0917302ED30A4F488E0E802F001FA
:101040001124E15FFE4F0680F781E02D309749F0D3
:1010500026E932E04091750266E772E08091740201
:1010600009950895E1E6F2E0838980934701848938
:1010700080935A0108959091D60292FF06C0282FBE
:1010800028712830F9F4877F846093FF06C0282FE9
:1010900028712831F1F4877E84612091D70220FFE6
:1010A00006C0382F38713830D9F4877F816021FF2E
:1010B00006C0282F28712831D1F4877E816194FDE4
:1010C000877E0895282F24712430F9F68B7F88605D
:1010D000DCCF282F2471243101F78B7E8861DDCF8E
:1010E000382F3171313019F78E7F8860E0CF282F8B
:1010F0002171213121F78E7E8861E1CFCF93DF937B
:10110000EC0182389105B1F108F040C081339105BE
:1011100009F49DC048F58932910509F48DC08A977C
:1011200009F49CC0C11522E5D20708F0BDC0C11565
:1011300031E5D30708F024C1C83ED10508F0A3C0AB
:10114000C13ED10588F5C83AD10508F08EC0C53A30
:10115000D10508F0F6C0C130D10531F1209721F159
:10116000C430D10508F545C08533910509F45FC049
:10117000C997C1F68091D602837009F036C180917B
:10118000D70283FF11C0C9E2D0E00EC0833E9105B3
:1011900099F170F4803E910501F1823E910511F6BE
:1011A0008091D60282FD21C0CE01DF91CF910895BA
:1011B000863E910561F1873E910571F1843E91056E
:1011C00009F0B0CF8091D70281FFEECF8091D60297
:1011D000C7EED0E084FD0DC0E7CF8091D60280FD40
:1011E00033C09091D70290FFDFCFC3EED0E084FFF1
:1011F000DBCFD0E0C0E0D8CF8091D60282FDF2C034
:101200009091D70290FDF1C084FFCECFF2CF8091B4
:10121000D60283FDDDCFC8CF8091D60283FDE8C022
:101220009091D70291FFF0CFC4EED0E0BDCF809176
:10123000D60285FFB9CFA7CF8091D60285FDDBC04E
:101240008091D70283FFB0CFC9E3D0E0ADCF8091CA
:10125000D60286FFA9CFCAE2D0E0A6CF8091D602FF
:1012600086FFA2CFC1E3D0E09FCFCF3BD10508F6E8
:10127000C85AD0E0CC0FDD1FCB56DE4F0990D88185
:10128000C02DD46491CFC11540E5D40708F064C0E7
:10129000C11580E4D80708F05CC0CE019A9581158D
:1012A0009F4108F481CFA5CFC11536E5D30718F5C6
:1012B000C11545E5D40708F07CC0C11584E5D80701
:1012C00008F072C09E01237033279C2F9695969547
:1012D000C115D34508F459C0C1E0D0E002C0CC0F1D
:1012E000DD1F2A95E2F730E2939FC0011124C82B3D
:1012F000D92BDA6859CFC1158AE5D80778F4C1151A
:1013000029E5D20708F060C0C11538E5D30708F415
:1013100070CFDC2FCC27C06FD06A46CFCE0190565D
:101320008115904208F065CF8D2F8F710E943B0888
:1013300090E0982F882788279F719C012C2BE9012A
:1013400041C0C55AD0E0CE56DE4FC881D0E0D0644F
:101350002BCFDF70D06A28CFCE018370992721E090
:1013600030E002C0220F331F8A95E2F7C695C6957A
:1013700080E2C89FE0011124C22BD32BDD6814CF7B
:10138000DC2FCC27C16FD06A0FCFC1E0D0E002C004
:10139000CC0FDD1F2A95E2F720E2929FC0011124B5
:1013A000C82BD92BDC6800CFDC2FCC27C46FD06AC8
:1013B000FBCE8C2F0E943B08C82FD0E0DC2FCC271F
:1013C000CC27DF71D062F0CE8C2F8F700E943B084B
:1013D00034E0D695C7953A95E1F7CF709C2FEC0194
:1013E000D069E2CEC2EED0E0DFCEC0EED0E0DCCEFF
:1013F000C6EED0E0D9CEC5E3D0E0D6CE80915F0274
:10140000811110925F020895809590916F05982345
:1014100090936F0508958091540290912302981340
:1014200001C008958F5F8770FACF9A3080F58830B9
:1014300070F548E0949F90011124820F932F911D25
:10144000682F677023E0969587952A95E1F7FC0150
:10145000EE0FFF1FE80FF91FE150FE4F50E040E094
:1014600080E0219130E0062E02C0369527950A943F
:10147000E2F721703327042E01C0220F0A94EAF705
:10148000822B4F5F5F4F4330510559F7089580E03D
:1014900008959A3098F5883088F548E0949F900137
:1014A0001124820F932F911D282F277041E001C036
:1014B000440F2A95EAF723E0969587952A95E1F758
:1014C000FC01EE0FFF1FE80FF91FE150FE4F90E007
:1014D00080E070E05191DF0111979B01082E02C05E
:1014E000369527950A94E2F7217021952527242324
:1014F00025272C9301968330910561F70895982F45
:1015000092959F7011F0892F94E0282F26952695AB
:1015100011F09E5F822F869509F09F5F892F0895B5
:10152000282F80E227FF02C021958DE280930001E1
:101530003AE0822F632F0E94FC2D905D909303016F
:10154000811109C080E28093020180E28093010151
:1015500080E091E00895632F0E94FC2D905D9093B0
:101560000201822F64E60E94FC2D882371F3805DC6
:10157000EDCFCF93C82F80912E038C1751F00E948E
:101580008C0760932F037093300380933103909303
:101590003203C0932E03CF910895B0E0A0E0E3EDB5
:1015A000FAE00C94C32DFC01EB01909133039111EF
:1015B00001C094E06081718191509B01092E02C0AD
:1015C000359527950A94E2F7D901092E02C0AA0F92
:1015D000BB1F0A94E2F76A1B7B0B718360836281F5
:1015E00073818B01092E02C0159507950A94E2F7C5
:1015F000D80102C0AA0FBB1F9A95E2F76A1B7B0BAA
:101600007383628381E80138BFEF1B072CF0802FC2
:10161000003811050CF08FE78D8321389FEF3907D3
:1016200054F1203831054CF5922F91959C83442339
:1016300019F081958D832C830E948C072D812111B7
:1016400003C02C812223D9F06093340370933503B7
:1016500080933603909337038091380393E0980F7B
:10166000973020F4080F009338031D82CDB7DEB702
:10167000E8E00C94DF2D21E8D7CF2FE7D5CFC0903D
:101680003403D0903503E0903603F09037036C19A3
:101690007D098E099F096436710581059105E0F287
:1016A00010923803D9CF9C01860F971F37FD07C0D2
:1016B00077FD04C097FF02C08FEF9FE7089577FF83
:1016C000FDCF97FDFBCF80E090E80895E82FE295ED
:1016D000EF70F0E031A1282F2F7081E090E001C081
:1016E000880F2A95EAF7382B31A392A18095892398
:1016F00082A30895E82FE295EF70F0E031A1282F42
:101700002F7081E090E001C0880F2A95EAF7982FAA
:101710009095932391A392A1892B82A30895B0E081
:10172000A0E0E5E9FBE00C94C32D7C016B01809106
:10173000870501E010E08A3010F40AE010E0C1E013
:10174000D0E06DE875E0C701F6010995811104C08C
:1017500021960C171D072CF4CDB7DEB7E8E00C94EA
:10176000DF2DCC9F9001CD9F300D300D112490E0E6
:1017700080E045E34A95F1F7000001968217930750
:10178000C1F7DFCF80936B0570936D0560936C0597
:1017900080917C058430F9F48093E9008FEF90917B
:1017A000E800815095FD06C095ED9A95F1F700008F
:1017B0008111F5CF8091E80085FF0DC050E040E039
:1017C00063E070E08BE695E00E9443068091E800BC
:1017D0008E778093E8000895BC0184E00E94C20BDC
:1017E0000895BC0183E00E94C20B08959C0184E02F
:1017F0008093E9009FEF8091E800915085FD06C03D
:1018000085ED8A95F1F700009111F5CF8091E80000
:1018100085FF0CC050E040E066E070E0C9010E9426
:1018200043068091E8008E778093E8000895CF9377
:10183000DF93EC0181E08093E9008FEF9091E80065
:10184000815095FD06C095ED9A95F1F70000811144
:10185000F5CF8091E80085FF14C050E040E068E0DB
:1018600070E0CE010E9443068091E8008E7780935D
:10187000E80088E0FE01A2E7B5E001900D928A95AC
:10188000E1F7DF91CF91089580916002811110C03E
:101890008091D80080618093D8008AE18A95F1F721
:1018A00000C08091D90080FF0AC081E0809360026F
:1018B00081E090916002913009F080E0089582E02B
:1018C000809360020E94F30510927C05F1CF0E9484
:1018D000440C882359F0E0916205F091630530973C
:1018E00029F00190F081E02D0995089580E0089598
:1018F00057985F9A879A8F9825E02A95F1F700000C
:1019000089B187988F9A90EA9A95F1F790E0880FBD
:10191000892F881F990B21E0822781700895B0E0FC
:10192000A0E0E5E9FCE00C94C32D6C017B0164E6CA
:1019300070E088E70E94032BEC0197FD12C010E0D5
:1019400000E0F601E00FF11F849164E670E00E9470
:101950006F2BEC01892B29F40F5F1F4F0E151F050C
:1019600081F70E94E52BCE01CDB7DEB7E8E00C94FD
:10197000DF2D80915E0590915F05911103C091E08C
:1019800089270895882369F062E070E08DE898E087
:101990000E948F0C892B19F080915E05089510929A
:1019A0005E0580915E05EBCFCF93C0915E0580917F
:1019B0005F058823D1F00E948C07605A75418F4FD4
:1019C0009F4F60935A0570935B0580935C059093DD
:1019D0005D05C11108C062E070E08BE898E00E94EC
:1019E0008F0C892B29F0C0915E058C2FCF91089523
:1019F00081E080935E05F7CFCF93DF93C7EAD2E013
:101A000060E0CE010E944A2E2196C11584E0D807DD
:101A1000B9F7DF91CF9108951F93CF93DF93122FE2
:101A20008430E0F46A30D0F44830C0F490E1699F2B
:101A3000E001112450E0440F551FC40FD51F90EA58
:101A4000899FC00DD11D1124632FCE0187960E945E
:101A50004A2E612FCE0188960E944A2EDF91CF91A7
:101A60001F910895AF92BF92CF92DF92EF92FF92B3
:101A70001F93CF93DF938FE8C82E88E0D82ED0E055
:101A80007601C0E014C0F50125913491412F6C2FEF
:101A90008D2F0E940C0D82E0A80EB11C1F5F183024
:101AA00091F780E1E80EF11CCF5FCA3019F05701C1
:101AB00010E0E9CFDF5F80EAC80ED11CD43001F717
:101AC000DF91CF911F91FF90EF90DF90CF90BF906B
:101AD000AF90089586E290E00E944A2E0895CF9339
:101AE000C82F6FEF811163E283E290E00E944A2EDB
:101AF0006FEFC11164E084E290E00E944A2E6FEF24
:101B0000C11160E285E290E00E944A2ECF910895D3
:101B100080E00E946F0D60E070E0CB010E946A0DD2
:101B20000E94320D0E94FC0C81E00E946F0D08950E
:101B30000F931F93CF93DF93843030F56A3020F5F5
:101B4000483010F520E1629F8001112450E0440FDD
:101B5000551F040F151F30EA839F000D111D11241E
:101B6000C80187960E94362EC82FD0E0DC2FCC27E4
:101B7000C80188960E94362E9E01282BC901DF914C
:101B8000CF911F910F91089590E080E0F8CF462FFC
:101B9000843040F47A3030F4683020F4672F0E94AB
:101BA000980D089590E080E00895CF92DF92FF9223
:101BB0000F931F93CF93DF936C0100918605809163
:101BC000CB02082BC7E0D0E010E0FC2EC8010C2EA1
:101BD00002C0959587950A94E2F780FD0CC0219785
:101BE000A0F7F12C8F2DDF91CF911F910F91FF90D6
:101BF000DF90CF900895B6018C2F0E94C70D0E94F0
:101C00007E08019761F3EECFCF93DF93EC010E9442
:101C1000D50DBE010E94C70D0E947E08DF91CF91B5
:101C20000895FC0183819481892B29F08081918121
:101C300089238F3F51F480E00895843FE1F717C076
:101C4000883EA8F0813FB9F712C0808191810E943F
:101C5000040E92959F70963099F358F4925F9F709E
:101C6000923048F7803F19F040F7883E20F781E036
:101C700008959A5FF4CF86E290E00E94362E682F96
:101C800070E090E080E0089583E290E00E94362EBC
:101C9000833289F484E290E00E94362E843059F435
:101CA00085E290E00E94362E91E0803209F090E0CB
:101CB000892F8170089580E0FCCFAEE1B0E0E3E6CB
:101CC000FEE00C94C92D4091490350914A03609164
:101CD0004B0370914C0380914D0390914E030E94F1
:101CE00038172093490330934A0340934B03509392
:101CF0004C0360934D0370934E0386E0E9E4F3E0F8
:101D0000DE01179601900D928A95E1F786E0FE01BB
:101D10003796DE011D9601900D928A95E1F786E0D7
:101D2000FE013D96DE01119601900D928A95E1F734
:101D300086E0FE013196A9E4B3E001900D928A9508
:101D4000E1F786E0E9E4F3E0DE01599601900D92B7
:101D50008A95E1F786E0FE017996DE0117960190FB
:101D60000D928A95E1F786E0FE013796DE01119625
:101D700001900D928A95E1F786E0FE013196DE0131
:101D8000539601900D928A95E1F786E0FE017396D5
:101D9000DE01179601900D928A95E1F786E0FE012B
:101DA0003796A9E4B3E001900D928A95E1F746E0F9
:101DB00050E063E473E089E493E00E94202E892BD5
:101DC00079F0E0916205F0916305309749F082E087
:101DD000809349030480F581E02D89E493E009951F
:101DE00010924B0310924C0310924D0310924E032D
:101DF00086E0E9E4F3E0A3E4B3E001900D928A9574
:101E0000E1F76E96E2E00C94E52D80916F059091DC
:101E10005E02892B8093E80190915F02992391F0F3
:101E2000892B8093E80120E08AEE91E0FC0131915A
:101E3000CF0131112F5FF1E0803F9F07B9F72111EA
:101E40000E94FE0948E050E066E572E088EE91E00D
:101E50000E94202E892BA9F088E0E8EEF1E0A6E5AB
:101E6000B2E001900D928A95E1F7E0916205F09160
:101E70006305309731F00280F381E02D88EE91E028
:101E80000995089590E080E00E94C80790E080E006
:101E90000E94B20710925E020E94050F0895CF9330
:101EA000C82F0E947F0A91E0813009F090E0892FCD
:101EB0000E94B90AC09386050E94420FCF910895EF
:101EC00080918605982F9670963021F488600E9444
:101ED0004F0F0895877FFBCF21E030E001C0220F34
:101EE0008A95EAF720958091860582230E944F0FFC
:101EF0000895909155028095892380935502282F4B
:101F0000277091F4282F082E000C330B921713061C
:101F100059F09091D70292FF07C0859585958595D8
:101F20000E946C0F109255020895CF93C091D70272
:101F3000C2FB992790F9981791F080FBC2F9C093E2
:101F4000D7026091D60284E090E00E944A2E6C2F66
:101F500082E290E00E944A2E82E00E94790FCF91A7
:101F6000089521E030E001C0220F8A95EAF78091C0
:101F70008605822B0E944F0F08958093CB020E940A
:101F8000420F0895882321F00E94040A0E94050F41
:101F90000895882339F090916F05982B90936F05E1
:101FA0000E94050F0895882391F19CEF980F913AB4
:101FB00080F4EAEEF1E020EF31E09191891303C063
:101FC000DF0111971C922E173F07B9F70E94050FEA
:101FD000089590E2980F983050F4877091E001C016
:101FE000990F8A95EAF7892F0E94040AEFCF9BE5A3
:101FF000980F933028F490E080E00E94C80708957D
:10200000885A873120F490E080E00E94B20708955A
:10201000CF93C82F8823B1F08CEF8C0F813A00F555
:10202000EAEEF1E080EF91E0DF012D91C21761F05F
:102030008A179B07D1F76C2F88EE91E00E949807D2
:102040000E94050FCF9108952191C21303C0DF01B3
:1020500011971C928E179F07B9F70E94050FEBCFBF
:1020600080E28C0F883068F4C77021E030E001C056
:10207000220FCA95EAF780916F05822B80936F0536
:10208000DFCFEBE5EC0FE33040F4F0E0EE56FE4F2F
:10209000808190E00E94C807D5CFC85AC73190F61A
:1020A000EC2FF0E0EE0FFF1FEB56FE4F8081918189
:1020B0000E94B207C7CF1F93CF93DF93182FEB0176
:1020C0000E9408108FE99FE00197F1F700C000001F
:1020D0002197C1F7812F0E94D30FDF91CF911F91DC
:1020E00008951F93CF93DF93162F8A3039F481E040
:1020F0000E942F11DF91CF911F9108958D3011F41F
:1021000080E0F6CFC0915805D091590596E0FE01C8
:10211000A2E5B5E001900D929A95E1F7803E90F12D
:1021200086E0FE0111928A95E9F7C0915805D09199
:102130005905111133C046E050E0BE0182E595E03B
:102140000E94202E9E0122553340892B91F52A5F53
:102150003F4F40914F03642F70E0C9010E94A52DAD
:10216000481B463010F4240F311D211572E037074B
:1021700010F030E020E02E5A3C4F30935905209368
:102180005805B8CFF6E08F9FB0011124655B7C4FF6
:1021900046E050E0CE010E94172EC7CF9E012A5F75
:1021A0003F4FFE012E173F0731F2808180958193CA
:1021B000F9CFC90145E0969587954A95E1F741E049
:1021C00050E0BA0102C0660F771F8A95E2F7CB0193
:1021D0006091500370915103862B972BB9016B5F6F
:1021E0007F4FE5E076956795EA95E1F702C0440FE9
:1021F000551F6A95E2F7842B952B9093510380939A
:102200005003A5CF1F93CF93DF93EC01162FFE0150
:102210008491811104C0DF91CF911F910895612FA6
:102220000E9471102196F3CFFF920F931F93CF93CB
:10223000DF93EC01F62EFC0101900020E9F78F01FD
:1022400001501109C017D10728F0CDB7DEB7E5E07E
:102250000C94E22D6F2D89910E947110F3CFCF93D2
:10226000382FE0915805F0915905E255F34020913F
:102270004F03622F70E0CF010E94A52D281B822FF3
:10228000332369F066E00E94F02DC82FC15010F48E
:10229000CF91089560E080E20E947110F7CF9F0116
:1022A000280F311D2115324018F080E0F0E0E0E009
:1022B0008E0F9F2F911D8E5A9C4F9093590580939E
:1022C0005805E6CFEAEEF1E086E0DF011D928A953F
:1022D000E9F70E94420F0895AAE2B0E0E2E7F1E1D7
:1022E0000C94C82D8EE795E02091F100DC012D9330
:1022F000CD01B5E086389B07B9F780917F05833023
:1023000009F472C0B8F4813009F449C0823009F48C
:10231000B5C08091E80083FF8DC280917E059091C9
:102320007F059A3008F086C2E92FF0E0E758FF4CAD
:102330000C940A2E8A3009F490C08B3009F471C0D5
:10234000893039F780917E05813219F780918205B5
:1023500090918305009711F00297D9F68091E800DB
:10236000877F8093E8008091E80082FF38C09091D9
:10237000F3008091F200029731F48091F1008130F6
:1023800011F0863021F48091F100809371058091E5
:10239000E8008B778093E8000E946D06BACF8091A9
:1023A0007E05813A09F0B5CF8091E800877F809360
:1023B000E8008091820590918305892B61F468E0A3
:1023C00082E795E070E00E9419078091E8008B7722
:1023D0008093E8009ECF60E090E080E0F3CF8091B2
:1023E0007C058111C0CF95CF80917E05813A09F09F
:1023F00090CF8091820590918305892B09F089CF38
:102400008091E800877F8093E8008091E80080FF5A
:10241000FCCF80918A018093F1008091E8008E7753
:10242000B9CF80917E05813209F073CF809182050A
:1024300090918305892B09F06CCF8091E800877F0C
:102440008093E8000E946D068091800580938A0148
:1024500010926F050E9462115CCF80917E058132DF
:1024600009F057CF8091E800877F8093E8000E94B1
:102470006D0680918105809370054BCF80917E051C
:10248000813A09F046CF8091E800877F8093E80089
:102490008091E80080FFFCCF80917005BCCF803830
:1024A00099F0823809F0C6C1809182058F7087301B
:1024B00008F0C0C18093E9008091EB0085FB88277C
:1024C00080F91092E90006C080917A0590917B0511
:1024D000911182609091E800977F9093E80080933B
:1024E000F1001092F1008091E8008E779FC188235F
:1024F00009F48DC1823009F09DC180918005811160
:1025000090C1809182058F702FEF280F263008F040
:1025100091C18093E9002091EB0020FF82C19330AC
:1025200031F48091EB0080628093EB007AC190914E
:10253000EB0090619093EB0021E030E001C0220FAE
:102540008A95EAF72093EA001092EA008091EB0066
:102550008860EACF81116EC1109180051F7780914C
:10256000E3008078812B8093E3008091E800877FEF
:102570008093E8000E946D068091E80080FFFCCF08
:102580008091E30080688093E30082E0111183E092
:1025900080937C054FC18058823008F04BC1209158
:1025A0008005309181052C3DE3E03E07A1F583E0F5
:1025B0008A838AE289834FB7F894DE01139620E07C
:1025C0003EE051E2E32FF0E050935700E49120FF0A
:1025D00003C0E295EF703F5FEF708E2F90E0EA301E
:1025E000C0F0C7968D939D932F5F243159F74FBF4D
:1025F0008091E800877F8093E8006AE270E0CE0176
:1026000001960E9419078091E8008B778093E8007B
:1026100011C1C096E7CF8091820590918305432F29
:1026200055274330510509F44AC078F5413051052A
:1026300009F47AC08BE590E0EFE0FBE04230510511
:1026400009F0F8C02091E800277F2093E80020914E
:102650008405309185058217930708F49C0140E0BA
:102660002115310509F065C0411163C08091E80072
:1026700082FDC9CF80917C05882329F2853019F22B
:102680008091E80083FFF2CFBECF4132510509F4BB
:102690003CC04232510509F0CDC08330910508F0AD
:1026A000C9C0FC01EE0FFF1FE652FE4F0190F08102
:1026B000E02D89529E4FDC018C9190E01AC03327A7
:1026C00021303105D1F02115310561F0223031057D
:1026D00009F0B0C0ECE7FBE0E4918E2F90E0ECE76E
:1026E000FBE007C0E4EAFBE0E4918E2F90E0E4EA2F
:1026F000FBE0009709F49EC0A5CFE2E9FBE0E4917E
:102700008E2F90E0E2E9FBE0F4CF8330910508F0F2
:1027100091C0880F991FFC01E052FE4F0190F0819B
:10272000E02D89E090E08ECF82E190E0EAE6FBE0E8
:1027300089CF80917C05882309F465CF853009F421
:1027400062CF8091E80083FD5ECF8091E80082FD3A
:102750008DCF8091E80080FF83CF9091F30080912E
:10276000F2002115310519F08830910550F041E053
:10277000089709F040E08091E8008E778093E800A8
:102780006FCF44914093F100319621503109019669
:10279000E8CF803809F04EC08091E800877F8093B1
:1027A000E80080917D058093F1009DCE811142C0AB
:1027B000109180051230F0F58091E800877F8093BA
:1027C000E80010937D050E946D06112311F084E04E
:1027D00005C08091E30087FDFACF81E080937C05FE
:1027E00042E061EC81E00E948C0642E261EC84E010
:1027F0000E948C0642E261EC82E00E948C0642E27A
:1028000060EC83E00E948C0680917C0513C080916F
:102810008005813079F481E0933009F080E0809385
:102820007B051092E9008091E800877F8093E800A3
:102830000E946D068091E80083FF0AC08091E80045
:10284000877F8093E8008091EB0080628093EB00AB
:10285000AA96E3E00C94E42D10926F050E94621199
:102860002FEF84E39CE0215080409040E1F700C0CE
:10287000000088E19AE00FB6F894A8958093600074
:102880000FBE90936000FFCFB0E0A0E0EAE4F4E177
:102890000C94C42D7901C82F880FDD0B411551050B
:1028A000A9F0FE0193E0EE0FFF1F9A95E1F7E15FBB
:1028B000FE4F818192818F599D4F208130E04217D8
:1028C000530708F49A01A9010E942D2ECE010E94FF
:1028D0002F2DD82E8823D1F001151105B9F083E0F2
:1028E000CC0FDD1F8A95E1F7FE01E15FFE4F4381CA
:1028F00050E00417150708F4A801C15FDE4F6C8192
:102900007D816F597D4FC7010E942D2E8D2DCDB732
:10291000DEB7E7E00C94E02DA5E0B0E0E2E9F4E1F9
:102920000C94C12D8D83E62E5A01F22E6801809100
:1029300087058A3028F080E02596EAE00C94DD2DAA
:102940008D818A30C4F31A8219828A836B832C8327
:1029500063E070E0CE0102960E94DE078983E09278
:102960004701F0925A0110E000E030E020E044E03E
:1029700050E0BE016F5F7F4F86E00E9444148823C1
:10298000D1F24E2D50E030E020E0B50187E00E940A
:102990004414882381F230E020E041E050E0BE01A1
:1029A0006B5F7F4F88E00E944414882321F20F2D33
:1029B00010E0960150E040E070E060E089E00E94A5
:1029C0004414BACFA4E0B0E0E8EEF4E10C94C72DD3
:1029D0004091C3025091C4026091C5027091C60239
:1029E0002FB7F8948091670590916805A0916905CB
:1029F000B0916A052FBF841B950BA60BB70B11E096
:102A000084369105A105B10538F10E94440C882354
:102A100041F10E948C076E5F7F4F8F4F9F4F6983FC
:102A20007A838B839C8310E000E030E020E044E078
:102A300050E0BE016F5F7F4F83E00E944414182F67
:102A4000882351F00E948C076093C3027093C402E4
:102A50008093C5029093C602812F2496E4E00C94E3
:102A6000E32D0E948C070091D0021091D102209199
:102A7000D2023091D302600F711F821F931FCBCF00
:102A8000A6E0B0E0E6E4F5E10C94C52D7B0101E0A1
:102A900010E09E012A5F3F4F50E040E070E060E0B0
:102AA00080E00E944414182F882309F453C04091F9
:102AB000BB025091BC026091BD027091BE022FB763
:102AC000F8948091670590916805A0916905B0918F
:102AD0006A052FBF841B950BA60BB70B8436910597
:102AE000A105B10548F465E070E082E692E00E943D
:102AF000DE079E81891771F105E010E09E012F5FCE
:102B00003F4F50E040E070E060E081E00E944414FC
:102B1000082F65E070E082E692E00E94DE0711E097
:102B20009E81981310E0102301F10E948C0760939E
:102B3000BB027093BC028093BD029093BE0285E0FD
:102B4000FE013196A6EBB2E001900D928A95E1F775
:102B500011E00BC085E0E2E6F2E0DE0111960190A3
:102B60000D928A95E1F71111EACF85E0E6EBF2E0EC
:102B7000D70101900D928A95E1F7812F2696E6E024
:102B80000C94E12D8F929F92AF92BF92EF92FF92A1
:102B90000F931F93CF937B01942FB901A801F701E5
:102BA00080809180A280B380EFB7F8940091670590
:102BB000109168052091690530916A05EFBF0819E9
:102BC00019092A093B09043611052105310518F4B4
:102BD000C1E0992381F010E000E030E020E00E94A5
:102BE0004414C82F882339F00E948C07F7016083B2
:102BF0007183828393838C2FCF911F910F91FF90CC
:102C0000EF90BF90AF909F908F9008950F931F9378
:102C100041E09091700280918605981301C040E0D8
:102C200001E010E026E835E06CEC72E084E00E9400
:102C3000C215882389F041E0909171028091CB0206
:102C4000981301C040E001E010E02BEC32E067ECAB
:102C500072E085E00E94C2151F910F9108950F93B5
:102C60001F93CF93DF93EC0145E050E067E672E0FD
:102C70000E94202E41E0892B09F440E005E010E09D
:102C80009E016FEB72E082E00E94C215DF91CF914E
:102C90001F910F9108950E94780C80930E010E945D
:102CA000440C81110E94432C089590E080E00E9422
:102CB000442E883E9E4F19F40E94440E089580E0F1
:102CC000089568EE7EEF90E080E00E94682E60E05C
:102CD00082E090E00E944A2E60E083E090E00E9453
:102CE0004A2E1092CB0260E084E090E00E944A2ECF
:102CF00064E082E290E00E944A2E60E085E090E08D
:102D00000E944A2E60E086E090E00E944A2E6FEF1B
:102D100087E090E00E944A2E40E050E0BA0188E04F
:102D200090E00E945C2E60E08DE090E00E944A2ED0
:102D300040E050E0BA0188E190E00E945C2E60E043
:102D400087E190E00E944A2E40E050E0BA018CE119
:102D500090E00E945C2E70E060E080E290E00E94D3
:102D6000682E40E050E0BA0188E190E00E945C2EBD
:102D700080E00E946F0D0E94880D40E050E0BA0193
:102D80008FE090E00E945C2E40E050E0BA0183E1C9
:102D900090E00E945C2E0895B0E0A0E0E2EDF6E144
:102DA0000C94BF2DEC018B01942EAA80BB80B50141
:102DB000B7FE04C0662777276A197B09072E000C27
:102DC000880B990B0E94232F0E9422300E942230F0
:102DD0006B017C01B501BB0C880B990B0E94232F62
:102DE000A70196010E94AF2F0E94EB2E862EF801BC
:102DF0006283A880B980B501B7FE04C06627772733
:102E00006A197B09072E000C880B990B0E94232F4F
:102E10000E9422309B01AC010E947F2E0E94223032
:102E20006B017C01B5010B2C000C880B990B0E94E7
:102E3000232FA70196010E94AF2F0E94EB2EF801CD
:102E40006383992021F08194828261956383198242
:102E500018821B821A82CDB7DEB7ECE00C94DB2D12
:102E600028E030E043E060E086E30E942B2A0895EA
:102E7000ACE0B0E0EEE3F7E10C94C32D4F8358874C
:102E800069877A878B879C8780912103882399F0B3
:102E90000E94301780E50E94A32A8AEB8A95F1F7F9
:102EA00000C00E94BB2A887899278038910509F4D0
:102EB00087C00E94D32A0E94440C882309F46BC067
:102EC0000E948C070091FA011091FB012091FC01F6
:102ED0003091FD016B017C01C01AD10AE20AF30AAC
:102EE00097018601083011052105310508F453C00A
:102EF0006093FA017093FB018093FC019093FD01B4
:102F000000912F031091300320913103309132034F
:102F1000601B710B820B930B623371058105910568
:102F200080F410922503109224031092270310922C
:102F30002603109229031092280310922B0310925B
:102F40002A0310912E030E94780C482FBE01695F5E
:102F50007F4F84E293E0112309F45FC00E94CD0A01
:102F600000912E03109121030E94780C41E0482724
:102F7000BE01695F7F4F88E293E0011709F450C0FA
:102F80000E94CD0A86E0FE013796ADE3B3E00190E2
:102F90000D928A95E1F786E0FE013796DE011196E3
:102FA00001900D928A95E1F729813A814B815C81EC
:102FB0006D817E8180E090E02C96E8E00C94DF2D1E
:102FC0000E94BB2A0E94BB2A7C010E94BB2A20E0EF
:102FD000E22AF82A0E94BB2A8C010E94BB2A20E028
:102FE000022B182B0E94D32AF894B7018091240356
:102FF000909125030E94530B909325038093240303
:10300000B80180912603909127030E94530B90935F
:1030100027038093260378944ECF0E94CC16A0CF2E
:103020000E94CC16AFCFCF93DF93D82FC62F0E942C
:1030300030178D2F80680E94A32A8C2F0E94A32A0C
:103040000E94D32A8FEC92E00197F1F700C00000B4
:10305000DF91CF910895682F893708F068E7609372
:103060002C0391E090932D0390912103992359F023
:103070006150811101C061E08FE00E94131860E08F
:1030800080E50E9413180895FB0180810E942B188F
:10309000089590912C03911101C092E0282F880F80
:1030A000330BA901490F511DCA011816190614F056
:1030B00081E090E00E942B180895A2E1B0E0E3E6E1
:1030C000F8E10C94BA2D7C01FC0183819481892B59
:1030D00031F08081918189238F3F09F08DC4629600
:1030E000E1E10C94D62D0E94D50D182F682F89810F
:1030F0009A810E94490A69817A81812F0E94C70DB5
:103100008C01F7018281882309F46BC4C8018251C4
:103110009F45409708F02DC48FEF93E00E94362E14
:10312000811126C0025157EA852E52E0952E0111D9
:1031300031C01C821B82442443944AE0342E840113
:103140000F5F1F4FC4010E94362E89831A82882385
:1031500079F09FEF980F933058F58A83498232E0D7
:10316000830E911CC8010E94362E8B83811121C0D1
:1031700080915502877009F4B2CFF70182818823CC
:1031800009F4ADCF8091D70282FFA9CF82E00E94DF
:10319000790FA5CF8114F4E09F0651F3C4010E947A
:1031A000362E811101C001502FEF821A920ABFCF33
:1031B00048018E010F5F1F4FF8012081222309F47F
:1031C000BECF213009F065C091818281913059F4E0
:1031D0000E5F1F4F65E070E0893311F460E570E029
:1031E0000E945B1006C0923029F50E5F1F4F0E94AF
:1031F00008100F5F1F4F8FE99FE00197F1F700C0A4
:103200000000EFE9FFE03197F1F700C000008FE91F
:103210009FE00197F1F700C00000EFE9FFE0319770
:10322000F1F700C000008FE99FE00197F1F700C0BF
:103230000000C2CF933029F40E5F1F4F0E94D30FBE
:10324000D8CF943019F00F5F1F4FD3CF0E5F1F4FB1
:1032500030E020E0B8016F5F7F4FF801418180537B
:10326000990B8A30910550F02150310910F28FE905
:103270009FE00197F1F700C00000F6CF329EF00109
:10328000339EF00D11249C012E0F3F1F842F8B01C4
:10329000E1CFE22FF0E0E754FE4F5490822F869565
:1032A0008695869590E0FC01E755FE4F6490277067
:1032B000712C022E02C0759467940A94E2F7E1E043
:1032C0006E227724FC01E756FE4FA490B12C022E0B
:1032D00002C0B594A7940A94E2F7F1E0AF22BB24B0
:1032E000FC01E757FE4FC490D12C02C0D594C7947F
:1032F0002A95E2F721E0C222DD246114710419F05D
:1033000081EE0E940810A114B10419F086EE0E940B
:10331000081039E365E070E0531202C060E570E028
:10332000852D0E945B10A114B10419F086EE0E9455
:10333000D30F6114710419F081EE0E94D30FC114F0
:10334000D10409F456CF65E070E08CE249CF81E00A
:103350000E94B10F0E94600F0BCF81E00E946C0FA2
:10336000F9CF82E0F5CF045F110921E030E0002EB3
:1033700001C0220F0A94EAF796E0E9E4F3E0DE01E7
:10338000179601900D929A95E1F796E0FE01379617
:10339000DE011D9601900D929A95E1F7988588239C
:1033A000A9F0292B2E8786E0FE013D96DE011196BD
:1033B00001900D928A95E1F786E0FE013196A9E42D
:1033C000B3E001900D928A95E1F7D2CE20952923A2
:1033D000E9CF80E00E942B1810923303C9CE4091B0
:1033E0002C035091330350FB47F95695537060E01E
:1033F00070E08FE090E00E945C2EBACE81E00E94E7
:103400004918B6CE8FEFFBCF8AE0F9CF86EFF7CF22
:1034100090912E0381E089270E94B90AA9CE80915C
:103420003303811101C084E08F5F18160CF081E036
:10343000883008F087E0809333039ACE809133037D
:10344000811101C084E08150F0CF85E384C20A3548
:103450002DE5120709F47AC008F051C001158CE57A
:10346000180709F457C00E3D1C4509F462C0F70166
:10347000828100811181882309F46CC0C8010E94F7
:10348000D50DD82E682FC8010E94490AB8018D2D8C
:103490000E94C70D0E947E088C01882EF701D28001
:1034A000B580B2943FE0B322809155028770C1F09D
:1034B000AD2CDD20B1F0812F807F803421F080E2BF
:1034C000800F883068F08091D70282FF09C082E0C7
:1034D0000E94790F809155028770AA24A3948111CC
:1034E000A12C912E92942FE09222FBE0F91508F482
:1034F0009DC0E92DF0E0ED57FF4C0C940A2E0C35E1
:10350000EDE51E07C9F020F1073A1D4509F0AFCFE0
:103510000E942C1410926F050E9462113FEF84E309
:103520009CE0315080409040E1F700C000000E94D4
:103530007B070E946116ECCF8091D70282FB88271F
:1035400080F991E089270E94950F91CF81E0FBCF10
:1035500080E0F9CFC8010E94150AD82E97CF212FFD
:103560002F70C22E107F19F0C29490EFC922DD2077
:10357000B9F0CC2069F080E2800F883010F0811023
:1035800009C080916F05C82AC0926F050E94050F7F
:10359000802F4AC080915E02C82AC0925E02F6CF98
:1035A000802F0E94D30FCC2009F440C0005E083069
:1035B00010F0811004C08C2D0E94040A06C0C09433
:1035C00080915E02C822C0925E020E94050F2EC04A
:1035D000312F3F70C32E107F103219F0C29480EF4C
:1035E000C822882089F081E0881609F467C0DD20B0
:1035F00009F471C0BB2009F467C0F701858180FF21
:10360000C7CF8F70858360C02091D70222FD34C060
:10361000DD2061F1CC2039F080916F05C82AC0927D
:103620006F050E94050F80E00E940810E92DE85008
:10363000FF0B349710F40E94670CAA2009F44FCDB9
:103640008091550280FD4BCDF701128285958595BD
:1036500085950E94B10FC7010E945D1880915502A7
:103660008595859585950E946C0F39CD80E00E94E7
:10367000D30FCC20D9F29FCFDD2099F090915F023B
:103680008C2D892BB11003C00E94C90FCFCFE1E070
:10369000BE12FACF22FFCACF891741F280935F0290
:1036A000C5CFB11006C00E94FE098C2D0E94C20F2A
:1036B000BDCFF1E0BF1609F4B9CFF5CFDD2031F071
:1036C00025E02B1508F4B2CF8C2DDECF34E03B156E
:1036D00008F4ACCFEACFBB2041F3F9E38F120DC061
:1036E0002FEF37EE83E0215030408040E1F700C0FB
:1036F0000000802F0E94D30F99CFEFE1FEE43197B5
:10370000F1F7F5CF812F86958695837061F0813032
:1037100009F08CCFC8019370D11002C090E080E016
:103720000E94B20783CFC8019370D11002C090E00D
:1037300080E00E94C8077ACF812F837089F5D1106D
:1037400075CF402F429546954770440F440F802F08
:103750008F70042E01C0880F0A94EAF7202F207181
:1037600004FF07C02FE030E001C0220F4A95EAF7BE
:103770002095169516951370123069F050F430911B
:10378000CB02113029F0822B83230E94BD0F4ECF34
:10379000832B822BFACF282B8091CB028227F5CF67
:1037A0008695DD2011F0812F8170882309F43ECFAA
:1037B000402F429546954770440F440F802F8F70DD
:1037C000042E01C0880F0A94EAF7202F207104FF0D
:1037D00007C02FE030E001C0220F4A95EAF720959C
:1037E000169516951370123069F050F430918605D5
:1037F000113029F0822B83230E944F0F17CF832B88
:10380000822BFACF282B809186058227F5CF1F7057
:10381000DD2029F0812F0E94B10F802F35CF802F1E
:103820000E94C20F812F0E946C0F00CF802FF2EFF9
:103830008F16B1F1F81570F020EF8216D1F031EF4C
:10384000831691F0DD2009F45CC0B110A1CE812F68
:103850008F712AC093EF891651F1E4EF8E12F2CFE7
:103860008091D70282FD2FC0812F8F71DD20D9F288
:103870001BC0DD2081F0F4E0FB1508F4D7CE1F71EA
:1038800081E090E0012E01C0880F0A94EAF7909140
:1038900086058927B1CF25E02B1508F4C7CEEFCFD9
:1038A000812F8F71D110BFCF0E94B10FBFCE80E0AA
:1038B000DD2009F4A1CF1F7181E0012E01C0880F26
:1038C0000A94EAF799CFDD2089F01F71812F0E94B9
:1038D000B10F8091D70282FF07C038E0139FC0016B
:1038E0001124836080935502812FDECF81E00E94F6
:1038F000790F81E08B1508F099CE82E00E94790F54
:1039000095CEBB2079F0893341F49FEFE7EEF3E0E9
:103910009150E040F040E1F7EACE8FE19EE401975C
:10392000F1F7E5CE812F8F717ECF043F110548F06E
:10393000093F110508F417CD083BFDE51F0709F401
:103940006BCD0631FCE51F0709F091CD8091FE019A
:1039500081117BCD89E2EAEEF1E020EF31E0919137
:10396000891303C0DF0111971C922E173F07B9F787
:103970006BC000312FE5120709F4E9CC01313FE5B6
:10398000130709F4EECC10933A0300933903F701BF
:103990008081918190933C0380933B0382818823B3
:1039A00021F22091E5023091E6022F5F3F4F3093E4
:1039B000E6022093E502043F110548F0093F110596
:1039C00008F4D1CC083BFDE51F0709F425CDF8012B
:1039D000E15BFD45EA30F10500F5E157FF4C0C9441
:1039E0000A2E00318FE5180709F4B7CC01319FE5A5
:1039F000190749F682E0B2CC85E0DE01119601900C
:103A00000D928A95E1F7F701228189819A8121112E
:103A10006ACB0E94150A182F6ECB06312CE51207CF
:103A200009F015CD882309F491CF80916F058A7A2A
:103A300091E009F490E09093FE0169E2811165E361
:103A400088EE91E00E9498070E94050F91CB1F938A
:103A5000CF93DF9380912202807F09F049C080914B
:103A60001F02882309F444C080915402D09123029C
:103A700060911D0270911E02A0912002B09121025E
:103A8000C62FC72316E0D81799F190E0109711F0D0
:103A9000CF3F19F401968770F6CF189F9001199FB8
:103AA000300D1124F901EC5DFD4F41814713F2CF38
:103AB00040814613EFCF42814111ECCF43815481C5
:103AC0004A1B5B0B483C510528F7809122028F70FE
:103AD000806180932202F901E75DFD4F80818F7044
:103AE000806180838DE192E00E945D180E940B0A44
:103AF000DF91CF911F910895A1E1B0E0E2E8FDE1EF
:103B00000C94C12D8C0185E0F801DE011D96019019
:103B10000D928A95E1F7D8011296EC9012978DE1FB
:103B2000A82E82E0B82E60912002709121026115CA
:103B3000710509F432C190911D0240911E02892F36
:103B400084238F3F09F429C12C9111963C91119740
:103B50001396CD90DC90F0901F02F601E61BF70B58
:103B6000FF2009F4E5C080912202582F507FE83CE5
:103B7000F10508F0ABC0511177C0FE2C431315C0FE
:103B8000921313C0E11011C08F70806180932202E4
:103B9000C5010E945D1880912202D80115968C9370
:103BA0008F2D6196EAE00C94DD2DC114D10429F02B
:103BB000822F83238F3F09F00BC180E0B82FB170B3
:103BC000DB2E80FF3CC0809154024091230256E0DE
:103BD000841315C02D873E878D859E850E94040E17
:103BE000292F22952F702230F0F0243018F59F7085
:103BF000F1F0F8019581907FD1F4D12C1EC090E0B6
:103C0000589FF001599FF00D1124EC5DFD4F61812B
:103C1000361306C06081261303C06281E6120FC00E
:103C200001968770D5CF9F7011F0882331F3805EA5
:103C3000883018F3C8010E945D18FD2CB1CFEE202A
:103C400009F4AECF809122028160809322028DE13F
:103C500092E00E945D1886E0EDE1F2E0DF011D9246
:103C60008A95E9F7F12C9CCF431306C0921304C048
:103C7000F801EE2009F476C0C8010E94110E8823D5
:103C800009F1EE20F9F080912202803270F020914B
:103C90001D0230911E0238872F831986DB86CA8663
:103CA0008C87CE0107960E945D1886E0F801ADE191
:103CB000B2E001900D928A95E1F70E94271DFF2442
:103CC000F3946ECFC8010E945D18F9CF511107C05F
:103CD0008DE192E00E945D1886E0D501C0CF4313CC
:103CE0000FC092130DC0E1100BC0F8018583C8010D
:103CF0000E945D1886E0D5011D928A95E9F750CFA4
:103D0000C8010E94110E8823E9F2EE20D9F28091B9
:103D10002202803250F220911D0230911E023A831D
:103D200029831B82DD82CC828E83CE010196BBCF9C
:103D3000E83CF105F8F6FE2CEE2021F243131FC0FB
:103D400092131DC08091220280FD10C0982F907F99
:103D500069F0F8018583903F31F0982F907F905F54
:103D60008F70892B8583C8010E945D1886E0F80159
:103D7000ADE1B2E001900D928A95E1F711CFC80153
:103D80000E94110E811191CF809122028160809357
:103D90002202C8010E945D1803CFEE2009F492CFE1
:103DA000C8010E94110EF82E882309F48BCF86E0FB
:103DB000F801ADE1B2E001900D928A95E1F78091B2
:103DC0001D0290911E020E94040E0E94271DE8CE43
:103DD00081E08E25F3CEA7E1B0E0E1EFFEE10C94A7
:103DE000C82D4B8B5C8B6D8B7E8B8F8B61111092F2
:103DF0005E021A8A198A85E0FE017396DE011D961D
:103E000001900D928A95E1F786E0FE013D96DE0174
:103E1000179601900D928A95E1F7CE0107960E94C0
:103E20007C1D882359F016E0809154029091230262
:103E3000891345C06796E3E00C94E42D86E0FE010B
:103E40003796DE01119601900D928A95E1F78A85E9
:103E50009B85892B41F38F81988589238F3F19F3A7
:103E60002091230230E0C901019687709927409183
:103E700054024817190681F410926F050E946211CE
:103E8000109223021092540286E0EDE1F2E0DF018D
:103E90001D928A95E9F7C7CF96E0929FD001939F34
:103EA000B00D1124AC5DBD4FFE01319601900D9215
:103EB0009A95E1F7809323020E940B0AB4CF819F69
:103EC000C00111248C5D9D4F0E947C1D882309F444
:103ED000B1CF8091540290E001968770992780932A
:103EE0005402A2CFCF93C82F0E9430178C2F0E946C
:103EF000A32A8FE792E00197F1F700C000000E942B
:103F0000BB2AC82F0E94D32A9AE69A95F1F700C0DF
:103F10008C2FCF910895CF93DF930E94232A269A66
:103F20000E9430176AE58AE30E9413182FEF80E79A
:103F300092E0215080409040E1F700C0000082E014
:103F40000E94721F83E00E94721F84E00E94721F11
:103F500085E00E94721F86E00E94721F60E080E18F
:103F60000E94131880E00E94721FD82F81E00E94E7
:103F7000721FC82F0E94D32AD23419F481E0C130B5
:103F800009F080E0817080932103882341F061E093
:103F90008FE00E94131860E080E50E941318DF9103
:103FA000CF9108951F920F920FB60F9211242F9365
:103FB0003F934F935F936F937F938F939F93AF93B1
:103FC000BF93CF93DF93EF93FF93D091E900DF701E
:103FD0008091EC00C82FC17080FDC0E81092E9000C
:103FE0008091F000877F8093F00078940E946C119C
:103FF0001092E9008091F00088608093F000CD2B52
:10400000CF70C093E900FF91EF91DF91CF91BF9105
:10401000AF919F918F917F916F915F914F913F9160
:104020002F910F900FBE0F901F9018951F920F9217
:104030000FB60F9211242F933F934F935F936F937B
:104040007F938F939F93AF93BF93EF93FF93809151
:10405000E10082FF09C08091E20082FF05C08091EB
:10406000E1008B7F8093E1008091DA0080FF24C023
:104070008091D80080FF20C08091DA008E7F8093ED
:10408000DA008091D90080FF9DC080E189BD82E186
:1040900089BD09B400FEFDCF81E080937C0580914D
:1040A0006E05811109C00E94F3050E94BE06809131
:1040B000E20084608093E2008091E10080FF17C0FD
:1040C0008091E20080FF13C08091E2008E7F809398
:1040D000E2008091E20080618093E2008091D8004C
:1040E00080628093D80019BC85E080937C05809124
:1040F000E10084FF2BC08091E20084FF27C080E1B3
:1041000089BD82E189BD89B5982F917080FFFBCF71
:104110008091D8008F7D8093D8008091E1008F7EC0
:104120008093E1008091E2008F7E8093E200809195
:10413000E20081608093E20080917D05882309F48C
:1041400047C084E080937C0580917C058091E100EC
:1041500083FF27C08091E20083FF23C08091E100AC
:10416000877F8093E10082E080937C0510927D053B
:104170008091E1008E7F8093E1008091E2008E7F4C
:104180008093E2008091E20080618093E20042E04F
:1041900060E080E00E948C068091F000886080934F
:1041A000F000FF91EF91BF91AF919F918F917F911F
:1041B0006F915F914F913F912F910F900FBE0F9094
:1041C0001F90189519BC10927C0510926E0574CF43
:1041D0008091E30087FD93E090937C05B5CF7894C0
:1041E0001F921FB61F9211248F939F93AF93BF937B
:1041F0008091670590916805A0916905B0916A0565
:104200000196A11DB11D8093670590936805A09349
:104210006905B0936A05BF91AF919F918F911F90EF
:104220001FBE1F9018959C014FB7F89480916705A9
:1042300090916805A0916905B0916A054FBF821BF6
:10424000930B08952FB7F8948091670590916805B6
:10425000A0916905B0916A052FBF0895B0E0A0E074
:10426000E4E3F1E20C94BD2D3AE0C32E31E0D32E0D
:1042700048E8842E45E0942E05E011E0712CAA2434
:10428000A394B12CD8018D918D010E94660B00C0C2
:10429000E40168802AE0E22E21E0F22EF701D0E06E
:1042A000C0E04191A42FA295AF70B0E090968C91A0
:1042B00095010C2E01C0220F0A94EAF790E04F708E
:1042C00002C0959587954A95E2F780FD8EC0622AD7
:1042D0002196C430D10529F7F801319780810E94D9
:1042E0007A0BA0EAAA95F1F7F4018081861519F0FE
:1042F000608277247394FFEF8F1A9F0A21E00A30BF
:10430000120709F0BFCF01E010E0D7018D917D01C8
:104310000E94660B00C0C8010C2E01C0880F0A94D1
:10432000EAF7782FE8E8F5E095E0A92E91E0B92EBC
:10433000682F6095D5012D915D01822F82958F7038
:1043400090E0DC0190968C91AF01308190E02F706D
:1043500002C0959587952A95E2F780FD49C0872F81
:10436000832B80833196DA018C91381711F07724F2
:104370007394CA14DB04F1F6F701319780810E942F
:104380007A0BB0EABA95F1F72196C830D10509F059
:10439000BCCFC091D502772071F181E08093F2010A
:1043A0000E9422219093F1018093F0018091F0010D
:1043B0009091F1010E941321059708F1D0E0C45FAC
:1043C000DC4F45E050E068E875E0CE010E94202E09
:1043D000892B41F085E0E8E8F5E0DE0101900D92DF
:1043E0008A95E1F71092F2010AC02095622270CFFF
:1043F000862F8323B6CF8091F2018111D7CF0E94FF
:10440000440C182FE091D50281115CC0C091D402F8
:10441000D0E0C45FDC4FF0E0E45FFC4F85E0A2E653
:10442000B2E001900D928A95E1F765E070E082E6D6
:1044300092E00E94DE078093610285E0E7E6F2E009
:10444000DE0101900D928A95E1F7C0906C02D09048
:104450006D02E0906E02F0906F028091F3019091F6
:10446000F401A091F501B091F601C816D906EA064B
:10447000FB06D1F0C092F301D092F401E092F50175
:10448000F092F6010E94440C81110EC00E948C072C
:10449000C61AD70AE80AF90AC092D002D092D1020D
:1044A000E092D202F092D30280917002809386054E
:1044B000809171028093CB02872DCDB7DEB7EEE0FD
:1044C0000C94D92DADE8B5E085E0ED0119928A95FF
:1044D000E9F7CE2FD0E0C45FDC4F809187058A30AA
:1044E000E8F560E475E1CE010E948F0B882309F4A2
:1044F00052C06FE276E1CE010E948F0B882309F44F
:104500004AC062EE74E1CE010E948F0B882309F449
:1045100042C066E076E1CE010E948F0B8823D9F17C
:104520001092870581E08093F901C091D402D0E018
:10453000C45FDC4F45E050E06DE875E0CE010E94BD
:10454000202E892B09F4B8CF85E0EDE8F5E0DE01F7
:1045500001900D928A95E1F7712EAECF8091F7010F
:104560009091F8010E941321843F914008F0B9CF47
:104570008091F901882309F49FCF1092F901E0910D
:10458000D402F0E0E45FFC4F95E0DF011D929A95C4
:10459000E9F7782E91CF809187058F3F31F08F5FBB
:1045A000809387058A3008F4BDCF0E942221909322
:1045B000F8018093F701DCCF1F921FB61F921124E0
:1045C0008F939F93AF93BF9380916605811113C022
:1045D0008091670590916805A0916905B0916A0581
:1045E0004196A11DB11D8093670590936805A09326
:1045F0006905B0936A05BF91AF919F918F911F900C
:104600001FBE1F901895CDB7DEB7AF970FB6F894C1
:10461000DEBF0FBECDBF85B7806885BF85B7806818
:1046200085BF84B7877F84BF0FB6F894A895809123
:104630006000886180936000109260000FBE80E887
:1046400090E00FB6F89480936100909361000FBEE4
:104650008DE098E09093E7018093E6010E94F305D6
:104660000E94BE068091E20084608093E20078940C
:1046700080917C058823A1F01091E9001F70909132
:10468000EC00892F817090FD80E8182B1092E900D2
:104690008091E80083FD0E946C111F701093E90067
:1046A00082E084BD93E095BD9AEF97BD80936E0044
:1046B0001092D0021092D1021092D2021092D30224
:1046C0000E94440E811102C00E94880D0E944B1668
:1046D00080910E010E944B1680910A010E947A0B74
:1046E00080910B010E947A0B80910C010E947A0B41
:1046F00080910D010E947A0B05E011E0D8018D91A7
:104700008D010E947A0BB1E00A301B07B9F7809146
:104710000E0195E0811190E09093D50285E0891B10
:104720008093D4020E94440C811102C00E94462C46
:10473000E8E8F5E082E995E0ACE0B3E011921D9283
:104740008E179F07D9F70E945516811102C00E944B
:10475000611682E090E00E94362E8093DA0284E0B7
:1047600090E00E94362E182F82E290E00E94362EB2
:10477000982F812F9093D7028093D6020E942E21EA
:10478000EFE3FCE93197F1F700C000000E942E2111
:1047900080910C0380FF08C06FEF7FEF90E080E016
:1047A0000E94682E0E947B0783E090E00E94362ED4
:1047B0000E94BD0F809186050E947F0A91E08130A2
:1047C00009F090E0892F0E94B90A83E080930703E3
:1047D00080E280934F030E94FD2A6DE070E08CE43C
:1047E00092E00E948F0C892BE9F58091070363E02A
:1047F00070E081FDF2C089E492E00E948F0C892B69
:1048000089F56DE070E089E392E00E948F0C892BBE
:1048100049F50E948C07605A75418F4F9F4F6093F6
:104820005A0570935B0580935C0590935D05E2E506
:10483000F3E080E092E0DF019C011D9221503040C6
:10484000E1F7F0935905E09358058FEF9FEF9093B0
:1048500051038093500381E080935F0580935E0550
:10486000109208030E94440C811102C00E94462C41
:104870000E948B1F0E94440C81112EC084EF97E090
:10488000909366018093650125E130E030936101EA
:104890002093600185E390E090936401809363012D
:1048A00049EF57E050936E0140936D0130936901D9
:1048B0002093680190936C0180936B0144E458E16C
:1048C00050937601409375013093710120937001EC
:1048D00090937401809373010E945516882389F088
:1048E0008FE090E00E943E2E8B01862F8F770E94F2
:1048F0002B18001F0027001F1370110F102B10938F
:10490000330387E791E09093630580936205CC249D
:10491000C39480917C0500E112E1853009F49FC0C9
:104920000E942E210BED12E0ADECB1E0BDA7ACA7CB
:104930009D016CE073E0F8019191DB018D91BD0167
:10494000D9014D919D018423B2E0E53EFB0709F4B6
:1049500092C0981789F36DECE62E61E0F62E7CE0AC
:10496000A72E73E0B72E912CF501D1905F01D701EE
:104970008D917D01D822F80151908F015D1419F1BC
:104980005D24812C77247394852D8721A1F08EA23C
:104990009FA291E08D2D872109F490E098A70E94B5
:1049A00022218160782F9AA789A74EA15FA168A5CF
:1049B0008AA50E94EB1E8394770CF8E08F12E4CF57
:1049C000F8013197D08293945AE0852E9810CCCF7D
:1049D0000E948C07DD24D3946FC086E492E00DCF53
:1049E00080917C05843041F10E94B90C0E945D0EDB
:1049F0001092660548E150E080E40FB6F894A8955F
:104A0000409360000FBE8093600083B7817F846015
:104A100083BF83B7816083BF7894889583B78E7F87
:104A200083BF0FB6F894A895809160008861809349
:104A30006000109260000FBE80917B05882379F0A2
:104A40000E942E21ADECB1E0ECE0F3E081919D916C
:104A5000892309F0E0C493E0E631F907B9F78091C2
:104A60007C05853009F4BCCF10926F050E9462115D
:104A70000E94670C55CF98136ECF0E9422218C01A3
:104A80008091D8029091D90208171907A1F08FEFF1
:104A900089A38AA31BA20E9422218160782F9DA353
:104AA0008CA349A15AA16BA18DA10E94EB1E10936A
:104AB000D9020093D802D12C0E94440C80915F054A
:104AC000882351F18091090390910A030E941321D8
:104AD000C29708F010C12091500330915103211565
:104AE000310509F069C280915E058823A9F00E9412
:104AF0008C0700915A0510915B0520915C0530915F
:104B00005D05601B710B820B930B6F3F7F4F8F4FC7
:104B10009F4710F40E94B90CD1100E94D40C0E943F
:104B20005D0E0E94670C90910B03891721F0809312
:104B30000B030E948C0780917C05843009F411C31B
:104B40000E94440C882309F4E4CE0E948C07209133
:104B50001C0321116BC000911803109119032091BF
:104B60001A0330911B034B015C01801A910AA20ABF
:104B7000B30A95018401043F11402105310508F471
:104B800055C0609318037093190380931A03909390
:104B90001B038091160390911703019690931703BE
:104BA0008093160319828E010F5F1F4F21E050E0A2
:104BB00040E060E08AE00E948C14811106C0809180
:104BC0001603909117030A978CF1C0921C03C092B0
:104BD000220381E09981911101C080E08093230339
:104BE0008091210310E0882329F00E94780C11E0C5
:104BF000811112E080912303882309F408C40E94E4
:104C0000780C811106C482E0182B0E943B0E4B01E8
:104C10005C01DC01CB018C7FBC01CD01612B8616D0
:104C20009706A806B90611F00E946A0D8091230329
:104C3000882309F46ECE0E948C076B017C01809161
:104C40001D0390911E03A0911F03B0912003460104
:104C50005701881A990AAA0ABB0AD501C401049708
:104C6000A105B10580F119821A821B821C828E0176
:104C70000F5F1F4F24E050E040E060E08BE00E94B7
:104C80008C148823C1F069817A81809128039091E6
:104C900029030E94530B90932903809328036B816F
:104CA0007C8180912A0390912B030E94530B909357
:104CB0002B0380932A03C0921D03D0921E03E0921F
:104CC0001F03F092200380912D03882309F41FCE47
:104CD00080912C03898310E000E020E0AE014F5F5B
:104CE0005F4F61E08CE00E948C14882309F40FCEA2
:104CF00010922D030CCE0E94222190930A038093E0
:104D0000090382E593E0909359058093580520911B
:104D10008605422F50E083E090E0182F211106C055
:104D2000882369F00197C8F71FEF09C0BA01082E60
:104D300002C0759567950A94E2F760FFF3CF60E0D3
:104D400086E493E00E940211812F8F708A3008F070
:104D500075C0805D60E00E9471100E94440C882341
:104D600009F4D7C0113009F48EC00CF069C01123CA
:104D700009F479C060E084EE92E00E940211809113
:104D80002E03882309F49BC061E082EE92E00E942A
:104D90000211809142030E94900A61E00E94141166
:104DA00061E080EE92E00E940211809141030E9436
:104DB000900A61E00E94141160E08AED92E00E9486
:104DC000021180913C038F708A3008F08FC0805DA3
:104DD00060E00E94711060E087ED92E00E94021195
:104DE00080913B038F708A3008F082C0805D60E064
:104DF0000E94711060E08CEC92E00E9402118091A0
:104E0000E5029091E60226E0ECE8F1E0DE01119681
:104E100001900D922A95E1F724E0009709F06AC00D
:104E200060E0CE0101960E94141181E00E942F11D2
:104E300080915F05882309F456CE4DCE895A8ACFDA
:104E4000123079F1133009F095CF60E083EF92E0F2
:104E50000E94021161E081EF92E00E94021160E085
:104E60008AEE92E00DC060E088E393E00E940211B8
:104E700061E086E393E00E94021160E08FE293E03C
:104E80000E94021177CF60E081E293E00E9402115C
:104E900061E08FE193E00E94021160E088E193E01D
:104EA000EFCF60E08AE093E00E94021161E088E0C9
:104EB00093E00E94021160E081E093E0E1CF60E0C6
:104EC0008EED92E00E94021180913F030E94900AB1
:104ED00060E00E94141160E08CED92E00E940211EB
:104EE000809140030E94900A60E064CF895A70CF9D
:104EF000895A7DCFE1E0F0E0EC0FFD1FE20FF11DDC
:104F00006AE070E00E94A52D805D8083CB01215076
:104F100084CF113059F144F41123C1F060E089E5E8
:104F200092E00E94021181CF123071F11330B1F77B
:104F300060E089E792E00E94021161E087E792E079
:104F40000E94021160E08EE692E00DC060E080EC0D
:104F500092E00E94021161E08EEB92E00E94021149
:104F600060E085EB92E00E940211D8CF60E089EA10
:104F700092E00E94021161E087EA92E00E94021131
:104F800060E08EE992E0EFCF60E087E992E00E9476
:104F9000021161E085E992E00E94021160E080E97F
:104FA00092E00E94021161E08EE892E00E940211FC
:104FB00060E085E892E0D7CF8091080361E070E07F
:104FC000811191CD082F10E07B01082E02C0EE0C5C
:104FD000FF1C0A94E2F7A9014E215F21452B09F439
:104FE00047C09091070390FD45C08295880F807659
:104FF00080938501980136952795369527952093BE
:105000008801815E809386011092890124E630E058
:1050100047E050E063E871E088E70E949D2B892B10
:1050200009F061CDA80125E0440F551F2A95E1F74D
:105030008091070380FD2CC04E5A5C4F04E610E0BF
:1050400020E230E060E488E70E94BE2B892B09F063
:105050004ACD0E94D40CE094F0948091500390913A
:105060005103E822F922F0925103E09250033BCD24
:105070008F5FA8CF880F880F880F809385011092CB
:105080008801895F8093860183E080938901BECF88
:10509000E7EEF2E080E2DF011D928A95E9F7E9ECA4
:1050A000F1E0FFA7EEA705EC11E08DEC282E81E0E2
:1050B000382E97E0A92E99249394AEA5BFA52D91E3
:1050C000BFA7AEA7F80141908F01440E552E511C89
:1050D000C2018E5A9C4F2C01E22FF0E0E951FD4FA6
:1050E00030E020E09A2D921B9BA7B92C022E01C024
:1050F000BB0C0A94EAF7320190E0D3018D913D0197
:105100008B216BA5691B6770862E062E000C770B12
:10511000B82F01C0BB0F8A94EAF78B2E7195619569
:1051200071096770772701C086956A95EAF7882A22
:105130008081882A80829F5F9830F9F62F5F3F4FE9
:1051400031962830310571F6EEA5FFA52E163F06E3
:1051500009F0B3CF04E610E020E230E047EE52E081
:1051600071CF83E08093E9008091E80082FFE8CC72
:105170008091E80090E085FF05C00E941206882318
:1051800099F091E08091E8008B778093E800992373
:1051900009F4D6CCE981E150E33108F080C0F0E0B9
:1051A000E756FF4C0C940A2E00E210E09E012F5FA0
:1051B0003F4F79018091E80085FD0AC08091E800A9
:1051C0008B778093E8000E941206882399F3D9CF49
:1051D0008091F100D7018D937D010150110951F7A4
:1051E000D0CF1A828AE08B8310C08A818230A1F1ED
:1051F0008330A9F1813009F052C00E948C070E94CF
:10520000102E6B837C838D839E8380917C058430FC
:1052100009F096CC1091E9001F709091EC00892F55
:10522000817090FD80E8182B82E08093E9008091E6
:10523000E80080FF0DC050E040E060E270E0CE0189
:1052400001960E9443068091E8008E778093E800E3
:105250001F701093E90074CC0E943B0ED0CF9E01CA
:105260002D5F3F4FECE0F3E08191ACA5BDA59D9192
:10527000BDA7ACA78923D9018D939D01B3E0E63189
:10528000FB0791F7C2CF8A81823049F46B817C8120
:105290008D819E810E94102E0E946A0DB6CF8FEFE5
:1052A0008983B3CF4C816B818A810E94980D9827A6
:1052B000892798279E838D83A8CF2D813E81322711
:1052C000232732274C816B818A810E940C0D9DCF50
:1052D0000E94320D9ACF80E18A8397CFE1E0EA8382
:1052E00089E581CFEA80FB80FE24EF24FE248E0135
:1052F0000F5F1F4FAC80A00EB12EB11CC7018955A6
:105300009D4FA016B10609F480CFF9E5EF16F1E044
:10531000FF0658F40E94362ED80114968C93FFEFA6
:10532000EF1AFF0A0F5F1F4FE9CFF8011482F7CF82
:105330000A811B811027012710279E012F5F3F4FF5
:105340005901EC80E00EF12EF11CC80189559D4FEA
:10535000E016F10609F459CF093531E0130728F4B6
:10536000D50114966C910E944A2EBFEFAB1ABB0A6E
:105370000F5F1F4FEACF0E94FC0C47CF84E0ACCFF9
:10538000EA80FB80FE24EF24FE248E010F5F1F4F76
:10539000AC80A00EB12EB11CC7018796A016B10635
:1053A00009F433CFE0E8EE16E2E0FE0658F40E947E
:1053B000362ED80114968C93FFEFEF1AFF0A0F5F79
:1053C0001F4FEACFF8011482F7CF0A811B81102703
:1053D000012710279E012F5F3F4F5901EC80E00EFF
:1053E000F12EF11CC8018796E016F10609F40DCFE5
:1053F000003832E0130728F4D50114966C910E940E
:105400004A2EBFEFAB1ABB0A0F5F1F4FEBCF80E0F6
:10541000FBCB81E0F9CB09BD19BD09B400FEFDCF7E
:105420008091D8008F7D8093D8008091E0008260C9
:105430008093E0008091E00081FDFCCF10926F0529
:105440000E9462110CCB289A219A229A23982B98B9
:1054500080E58CBD089590918B019F3F09F071C04C
:105460008F3F09F46EC0611144C010929305909172
:105470009305423009F441C0433009F442C09460BE
:105480004130E1F141E050E042175307E0F19091E3
:1054900093054031510509F452C0C0F54230510521
:1054A00009F446C04830510509F446C09CB5209126
:1054B0009305922B9CBD90919205992319F09DB56F
:1054C00091609DBD80938B01E82FE295EF70F0E035
:1054D00031A1282F2F7081E090E001C0880F2A951C
:1054E000EAF7382B31A392A18095892382A381E02A
:1054F000089590E290939305BACF986090939305A6
:10550000C1CF9C60FBCF440F551FBECF4034510527
:1055100049F04038510541F04032510539F621E05B
:1055200020939205926001C0936090939305BECF43
:1055300091E090939205BACF21E02093920591607B
:10554000F4CF80E00895CF93DF938EBD0E94222197
:10555000EC010DB407FE05C08EB590E0DF91CF9150
:1055600008950E9422218C1B9D0B8436910588F39F
:105570008EEF9FEFF3CFCF93DF931EBC0E942221CB
:10558000EC010DB407FE05C08EB590E0DF91CF9120
:1055900008950E9422218C1B9D0B8436910588F36F
:1055A0008EEF9FEFF3CF80918B018F3F29F1E82F92
:1055B000E295EF70F0E041A18F7021E030E0B90199
:1055C00002C0660F771F8A95E2F7CB01942F982BC4
:1055D00091A392A1892B82A38FEF80938B018DB52C
:1055E0008E7F8DBD9CB580919305809589238CBD60
:1055F000109293051092920508951092B9008CE0D4
:105600008093B8000895B0E0A0E0E9E0FBE20C94DC
:10561000C02DB82EEB010E9422216C01EE24E394F0
:10562000F12CC431D10560F025E0E22EF12CCF3F02
:10563000DC0731F0CE0164E170E00E94A52D7B0112
:1056400084EAA82E94E8992E1092BC00A092BC0087
:105650000E9422218C018091BC0087FF0DC08091A7
:10566000B900887F8830F9F08091B900887F803157
:10567000D1F00FEF1FEF08C0C8010E941321E816F8
:10568000F90648F70EEF1FEFCF3FDC07E9F2C6013E
:105690000E941321C817D907B8F6C801CDB7DEB7E5
:1056A000EBE00C94DC2DB092BB009092BC000E9409
:1056B00022218C018091BC0087FF0AC08091B90033
:1056C000887F883111F08034A1F610E000E0E5CF4A
:1056D000C8010E941321E816F90660F7D3CF0F9393
:1056E0001F93CF93DF93EB018093BB0084E88093FB
:1056F000BC000E9422218C018091BC0087FF11C058
:105700002091B900287F81E090E0283211F490E0E8
:1057100080E0919581959109DF91CF911F910F9133
:105720000895CF3FDC0741F3C8010E941321C81739
:10573000D90710F78EEF9FEFEFCFB0E0A0E0E3EADC
:10574000FBE20C94C32D6B018A017901B9010E941F
:10575000032BE6010C0D1D1DC017D10711F097FF9B
:1057600008C024E92093BC00CDB7DEB7E8E00C9474
:10577000DF2DB70189910E946F2BEECFB0E0A0E042
:10578000E4ECFBE20C94C32DC62F6A017901B80149
:105790000E94032B97FD0CC0B8018C2F0E946F2B29
:1057A000E601EC0CFD1CCE15DF0511F097FF08C0DB
:1057B00024E92093BC00CDB7DEB7E8E00C94DF2DE0
:1057C000B80189910E946F2BEECF84E98093BC00D1
:1057D00008958EE14A9B02C08150E1F74A9BFECFBB
:1057E00008955A9880E28A95F1F75A9A0895FC0133
:1057F0003BE03A95F1F798E020E080E031E040E1CD
:105800004A95F1F7880F4A9B02C08160232742E046
:105810004A95F1F7000040E14A95F1F7915079F788
:1058200090E19A95F1F799B132E03A95F1F70000DD
:1058300040E14A95F1F792FB992790F99227208150
:10584000920F90830895A1E0B0E0E9E2FCE20C94AD
:10585000C52D19828C017C01E60EF11C0E151F0569
:1058600041F481E09981911180E02196E6E00C9469
:10587000E12D0E94E92BCE0101960E94F72BF80141
:1058800081938F01EBCF529A5A9A089552985A9A5F
:10589000EA9AE9E6F0E080818F7C80830895615088
:1058A000770B91E001C0990F6A95EAF720E031E0AB
:1058B000911108C0222391F05A9A80E28A95F1F75B
:1058C0005A980895492F482339F05A9A232740E2DD
:1058D0004A95F1F79695ECCF5A98F9CF5A98EDCFB3
:1058E000FF920F931F93CF93DF93EC018C01060F70
:1058F000111DC017D10729F4CDB7DEB7E5E00C9430
:10590000E22DF9900E94F12B68E08F2D0E944F2C20
:10591000F0CF1F920F920FB60F9211240F931F9387
:105920002F933F934F935F936F937F938F939F93A7
:10593000AF93BF93EF93FF93CF93DF930F92CDB7C6
:10594000DEB719820E94E92BCE0101960E94F72B47
:10595000082F069506950695282F22952570902FDD
:105960009570290F922F937026952695920F982760
:1059700097708981982B09F05CC00E3008F059C0EF
:1059800080E18A95F1F75A9A529A82E08A95F1F766
:1059900000C05A9888E0089F80011124D801A15FB7
:1059A000BE4F1696ED91FC9117973097A9F0609134
:1059B000C3017091C40114962D913C911597260F47
:1059C000371F11968D919C911297680F791F13962E
:1059D0004C9113978C910995F801E15FFE4F63811B
:1059E000662351F02091C3013091C40184819581D7
:1059F000820F931F0E94702C0E94F12B80E18A95E8
:105A0000F1F75A9852985A9A80E18A95F1F7F8017D
:105A1000E15FFE4F6081662351F02091C301309118
:105A2000C40181819281820F931F0E94232C0E94C6
:105A3000E92B0F90DF91CF91FF91EF91BF91AF9143
:105A40009F918F917F916F915F914F913F912F9196
:105A50001F910F910F900FBE0F901F9018950F93ED
:105A60001F93CF93DF93EC010E970CF04CC0F8948A
:105A7000529A5A9885E08A95F1F700009C2F9695E6
:105A800095708C2F8570980F892F837096959695B9
:105A900023E0CC0FDD1F2A95E1F7980F8E01092B2B
:105AA0000E94F12B00C068E0802F0E944F2C80E103
:105AB0008A95F1F752985A9A4A9B1EC087E090E067
:105AC0004A991CC0FE01E15FFE4F63816623F9F035
:105AD0002091C3013091C40184819581820F931F6D
