:100000000C94AC050C94C9050C94C9050C941C2BDC
:100010000C94C9050C94C9050C94C9050C94C90528
:100020000C94C9050C94C9050C94771F0C94331FCC
:100030000C9416220C94C9050C94C9050C94C9059E
:100040000C94C9050C94C9050C94C9050C94C905F8
:100050000C94C9050C9450200C94C9050C94C90546
:100060000C94C9050C94C9050C94C9050C94C905D8
:100070000C94C9050C94C9050C94C9050C94C905C8
:100080000C94C9050C94C9050C94C9050C94C905B8
:100090000C94C9050C94C9050C94C9050C94C905A8
:1000A0000C94C9050C94C9050C94C90505010902F5
:1000B000A10185020901A1000509190129081500FE
:1000C0002501950875018102050109300931158165
:1000D000257F95027508810609381581257F9501D0
:1000E00075088106050C0A38021581257F95017572
:1000F000088106C0C005010980A101850319012AF4
:10010000B700150126B700950175108100C0050CD8
:100110000901A101850419012AA002150126A002E6
:10012000950175108100C00660FF0961A101096297
:10013000150026FF00952075088102096315002629
:10014000FF00952075089102C005010906A101056F
:100150000719E029E7150025019508750181029529
:1001600001750881010507190029FF150026FF0008
:100170009506750881000508190129059505750181
:100180009102950175039101C0000000000000007C
:10019000000000000000000000000000000000005F
:1001A000000000000000000000000000007E0F00C2
:1001B000D4FFFFFFC700000078000000000000002F
:1001C000002A2B28000000000000000000000000B2
:1001D0000000000029000000002C1E3420212224F1
:1001E000342627252E362D3738271E1F202122237F
:1001F0002425263333362E37381F04050607080911
:100200000A0B0C0D0E0F10111213141516171819D6
:100210001A1B1C1D2F3130232D3504050607080934
:100220000A0B0C0D0E0F10111213141516171819B6
:100230001A1B1C1D2F3130354C00DA0281FFD9F119
:10024000DB20A4A62EAF00A0C000A1C800AED580C0
:10025000A81FD300408D1420006162636465666747
:1002600068696A6B6C6D6E6F707172737475767796
:1002700078797A313233343536373839305245422D
:10028000545F2D3D5B5D5C233B27602C2E2F20208F
:100290002700204B00202043004B6579203A202086
:1002A0005200202044003030202053002020202005
:1002B000204350490042616C6C3A00808182838403
:1002C00085868788898A8B8C8D8E8F909192939466
:1002D000A0A1A2A3A4A5A6A7A8A9AAABACADAEAFA6
:1002E000B0B1B2B3B4C0C1C2C3C4C5C6C7C8C9CA1D
:1002F000CBCCCDCECFD0D1D2D3D40000AF00AE295D
:10030000001E001F00000020002100220000002B22
:100310000014001A0000000800150017000000E19A
:1003200000040016000000070009000A000000E0B9
:10033000001D001B000000060019000500F600006B
:10034000000000E3000000E2008B41F400F5002A09
:100350000027002600000025002400230000002DB7
:10036000001300120000000C0018001C0000002800
:1003700000BB5D0F0000000E000D000B000000E54B
:10038000003800370000003600100011002C00E497
:1003900000E40000000000000000008A4302510059
:1003A000000000000000000000000000000000014C
:1003B00000000000000000520000000000000001EA
:1003C0000000005000000051004F0000000000013C
:1003D00000000000000000510000000000010000CB
:1003E000000000010000000100010000000000000A
:1003F0000089002E0000002D000000000000004CCD
:100400000030002F0000000000000000000000018C
:100410000032003400000033000000000000000142
:10042000008700380000003700360000000000019F
:1004300000010000000000000000000100010000B9
:10044000003A003B0000003C003D003E000000017F
:10045000004400450000004B0000000000000001C7
:100460000000004A0000004E004D000000000001A6
:100470000000000000000049000000000001000032
:100480000000000100000001000100F700F800007A
:1004900000430042000000410040003F0000000116
:1004A00000000000000000A90000000000000001A2
:1004B00000000000000000AA00BD000000000001D4
:1004C00000000000000000A800BE000000000001C5
:1004D0000001000000000000000000010001000019
:1004E000000000000000000000000000000000010B
:1004F00000000000000000000000000000000001FB
:1005000000000047000000000000000000000001A3
:10051000000000000000003902000000000100009F
:100520000000000100000001000100F700F80000D9
:1005300000000000000000000000000000000001BA
:10054000000000BB000000AD00BC00000000000186
:10055000000000AB000000AE00AC00000000000195
:100560000000000000000000000000530000000137
:10057000000100000000000000000001000100096F
:10058000025B00030100A0FA09040000010301015D
:100590000009211101000122400007058103080024
:1005A00001090401000203000000092111010001FA
:1005B0002222000705820320000107050303200013
:1005C00001090402000103000000092111010001DA
:1005D000227B0007058403200001120100020000B5
:1005E00000085759000101000102000114034B00EB
:1005F00065007900620061006C006C00360031001B
:100600000000100359006F0077006B006500650063
:1006100073000000040309040000000000003E5BBA
:100620004F5B3E003E6B4F6B3E001C3E7C3E1C0011
:10063000183C7E3C18001C577D571C001C5E7F5EDA
:100640001C0000183C180000FFE7C3E7FF0000187B
:1006500024180000FFE7DBE7FF0030483A060E00F1
:10066000262979292600407F05050700407F0525BA
:100670003F005A3CE73C5A007F3E1C1C0800081C07
:100680001C3E7F0014227F2214005F5F005F5F002A
:1006900006097F017F00006689956A0060606060DE
:1006A000600094A2FFA2940008047E0408001020B9
:1006B0007E20100008082A1C0800081C2A080800D0
:1006C0001E10101010000C1E0C1E0C0030383E388E
:1006D0003000060E3E0E0600000000000000000084
:1006E0005F000000000700070000147F147F140063
:1006F000242A7F2A120023130864620036495620F8
:100700005000000807030000001C224100000041C7
:10071000221C00002A1C7F1C2A0008083E08080032
:1007200000807030000008080808080000006060C1
:1007300000002010080402003E5149453E000042DE
:100740007F4000007249494946002141494D33002C
:100750001814127F10002745454539003C4A494985
:1007600031004121110907003649494936004649FF
:1007700049291E0000001400000000403400000061
:10078000000814224100141414141400004122140F
:1007900008000201590906003E415D594E007C12D5
:1007A00011127C007F49494936003E4141412200F7
:1007B0007F4141413E007F49494941007F09090984
:1007C00001003E41415173007F0808087F0000414D
:1007D0007F4100002040413F01007F08142241007A
:1007E0007F40404040007F021C027F007F040810D1
:1007F0007F003E4141413E007F09090906003E411C
:1008000051215E007F0919294600264949493200D5
:1008100003017F0103003F4040403F001F20402074
:100820001F003F4038403F00631408146300030476
:10083000780403006159494D4300007F4141410064
:10084000020408102000004141417F00040201021F
:1008500004004040404040000003070800002054CE
:10086000547840007F2844443800384444442800E9
:10087000384444287F0038545454180000087E0936
:1008800002001824241C78007F0804047800004427
:100890007D4000002040403D00007F1028440000C3
:1008A00000417F4000007C04780478007C08040448
:1008B00078003844444438007C1824241800182454
:1008C00024187C007C080404080048545454240074
:1008D00004043F4424003C4040207C001C20402075
:1008E0001C003C4030403C004428102844004C9000
:1008F00090907C004464544C440000083641000051
:1009000000007700000000413608000002010204E8
:1009100002003C2623263C000000000000000000EE
:1009200000000000000000000000000000000000C7
:10093000C0F0F88C86C6E7FFFFFFFFFFFFFEFCFC60
:10094000F8E080000000F0F0F00000C0E0F070700F
:100950000000000000000000000000000000000097
:10096000000000000000F8F8F8000000000000009F
:10097000000000000000000000000000F8F8F8008F
:1009800000F8F8F80000000000000000000000007F
:10099000000000000000E0F0F0F0E0ECEEF7F37093
:1009A00020007C7C7C7E007E7E7E7F7F7F000080BE
:1009B000C0E07E5B4F5BFEC00000C000DCD7DEDE27
:1009C000DED7DC00C00000000000000000000000D6
:1009D0000000000000000000000000000000000017
:1009E00000000000000000000080E07078686C6487
:1009F000C7C7C7C7C7C7E73F1F0F3FFFFFFFFFFFBF
:100A0000FF3F0F000000FFFFFF1E3FFFF3E18000EC
:100A100000F8FCFE3636363EBCB8000E3EFEF080D6
:100A2000F0FE3E0E0000FFFFFF060606FEFEFC7015
:100A300000E6F6F63636FEFEFC000000FFFFFF0083
:100A400000FFFFFF000000000000000000000000A9
:100A50000000000000000F1F3F7F7F7F7F7F3F1E51
:100A60000C001F1F1F3F003F3F3F7F7F7F00307BF9
:100A70007F7830202030787F3B0003000F7F0F0FFE
:100A80000F7F0F00030000000000000000000000C6
:100A90000000000000000000000000000000000056
:100AA00000000000000000003C7F6360E0C0C0C0A8
:100AB000C0C0C0C0C0FFFFC06030180F03030301F7
:100AC0000000000000000303030000000303030311
:100AD00000010303030303030301007070393F1F88
:100AE00007010000000001030303030303030100E7
:100AF00000010303030303030100000003030300D9
:100B000000030303000000000000000000000000DC
:100B100000000000000000000000000000000000D5
:100B200000000000000000000000000000000000C5
:100B300000000000000000000000000000000000B5
:100B400000000000000000000000000000000000A5
:100B5000000000000000000011241FBECFEFDAE00B
:100B6000DEBFCDBF11E0A0E0B1E0EEE7FEE502C0E0
:100B700005900D92A43CB107D9F725E0A4ECB1E0B3
:100B800001C01D92A636B207E1F70E943D220C94E7
:100B90000A2F0C940000E8EDF0E080818E7F8083C6
:100BA0001092E2001092DA001092E100A0EEB0E0A4
:100BB0008C9181608C9380818F77808319BCA7EDA5
:100BC000B0E08C918E7F8C9380818F7E8083109299
:100BD000350308952091E4003091E50095E6A901E0
:100BE0002091EC00822F817020FF06C08091E800E8
:100BF00080FF06C080E008952091E80022FD1AC021
:100C000080914303882389F0853089F08091EB003F
:100C100085FD0FC02091E4003091E5004217530795
:100C2000F9F29150E1F684E0089582E0089583E0BE
:100C3000089581E00895EF92FF920F931F93CF9351
:100C40007C018B010E94EA05C82F811117C0809199
:100C5000E80085FD0BC08091E8008E778093E80066
:100C60000E94EA05882399F3C82F08C0F7018191F3
:100C70007F018093F1000150110949F78C2FCF912A
:100C80001F910F91FF90EF9008958091450387FF8A
:100C900013C08091E80082FF06C08091E8008B7746
:100CA0008093E80004C0809143038111F2CF08953E
:100CB000809143038823D9F38091E80080FFF8CF27
:100CC0008091E8008E77ECCF982F9093E900242F45
:100CD000762F50E0891731F07091EC002091ED00F3
:100CE0005091F00021FD07C09F5F973071F780930E
:100CF000E90081E008953091EB003E7F3093EB00F6
:100D00003091ED003D7F3093ED003091EB0031608C
:100D10003093EB007093EC002093ED005093F000C3
:100D20002091EE0027FDE0CF80E00895B0E0A0E044
:100D3000ECE9F6E00C94562CC8EDD0E088818F7E6B
:100D40008883E7EDF0E080818160808384E082BF6A
:100D500081E08093350388818E7F888302EE10E0E6
:100D6000F80110821092DA0081EEC82ED12CF60123
:100D7000108288818F7788838881806888838881C2
:100D80008F7D888319BC1092430310924403109204
:100D900042031092410390EEE92EF12CF70180817D
:100DA0008B7F808388818160888342E060E080E07F
:100DB0000E946406F60180818E7F8083F801808125
:100DC00081608083808188608083F70180818E7F4D
:100DD0008083888180618883CDB7DEB7E8E00C949A
:100DE000722CFC0180914B0390914C03861797075E
:100DF000A0F06115710529F49091E8009E77909319
:100E0000E80090E06115710551F4911108C08091DE
:100E1000E80082FF34C080E00895BC01F2CF8091E9
:100E200043038823C1F18530C1F18091E80083FD3F
:100E300030C08091E80082FDEACF8091E80080FF19
:100E4000E1CF8091F3002091F200382F61157105F8
:100E500019F02830310558F091E02830310509F0BB
:100E600090E02091E8002E772093E800CBCF81918D
:100E70008093F100615071092F5F3F4FE7CF809160
:100E80004303882341F0853041F08091E80083FFDF
:100E9000BECF81E0089582E0089583E0089508952B
:100EA00080913803089587E797E79093010880932E
:100EB000000888E19AE00FB6F894A8958093600046
:100EC0000FBE90936000FFCF2FB7F89460912E0370
:100ED00070912F0380913003909131032FBF0895BB
:100EE0009C01FC0132969FEF80E04191461751F042
:100EF0009F3F19F4411101C0982F8F5F8630A9F7E9
:100F00009F3F09F40895290F311D97FD3A95F90186
:100F10006283089520912B0330912C032817390701
:100F200071F090932C0380932B03E0912903F091AF
:100F30002A03309721F00084F185E02D099508956A
:100F400020912703309128032817390771F09093D7
:100F5000280380932703E0912903F0912A03309717
:100F600021F00680F781E02D09950895FC01680FB6
:100F7000791F8FEF91E32191822728E030E087FFEE
:100F800009C0880F892721503109C9F7E617F707EB
:100F900091F70895880FF7CF8091F302F9018083CC
:100FA0000895CF93DF93E3EFF2E083819481A581ED
:100FB000B681E90188839983AA83BB831482138253
:100FC00016821582DF91CF91089580E0089563E045
:100FD00070E084E592E00E94B60790915302891375
:100FE00018C0E0915402EA30A4F488E0E802F0016D
:100FF0001124E65FFE4F0680F781E02D309749F01F
:1010000027E732E04091560267E572E08091550291
:1010100009950895EAE0F1E0A9E4B2E01C968C910C
:101020001C9780A31D968C9183AB08959091AA0282
:1010300092FF06C0282F28712830F9F4877F84603A
:1010400093FF06C0282F28712831F1F4877E846130
:101050002091AB0220FF06C0382F38713830D9F408
:10106000877F816021FF06C0282F28712831D1F4A5
:10107000877E816194FD877E0895282F2471243016
:10108000F9F68B7F8860DCCF282F2471243101F79B
:101090008B7E8861DDCF382F3171313019F78E7F2B
:1010A0008860E0CF282F2171213121F78E7E886161
:1010B000E1CFCF93DF93EC0182389105B1F108F0D5
:1010C00040C08133910509F49DC048F589329105EE
:1010D00009F48DC08A9709F49CC0C11522E5D20796
:1010E00008F0BDC0C11531E5D30708F024C1C83EE2
:1010F000D10508F0A3C0C13ED10588F5C83AD10595
:1011000008F08EC0C53AD10508F0F6C0C130D1054F
:1011100031F1209721F1C430D10508F545C0853360
:10112000910509F45FC0C997C1F68091AA02837046
:1011300009F036C18091AB0283FF11C0C9E2D0E053
:101140000EC0833E910599F170F4803E910501F146
:10115000823E910511F68091AA0282FD21C0CE0146
:10116000DF91CF910895863E910561F1873E91050B
:1011700071F1843E910509F0B0CF8091AB0281FFFF
:10118000EECF8091AA02C7EED0E084FD0DC0E7CF7C
:101190008091AA0280FD33C09091AB0290FFDFCF17
:1011A000C3EED0E084FFDBCFD0E0C0E0D8CF8091A9
:1011B000AA0282FDF2C09091AB0290FDF1C084FFC3
:1011C000CECFF2CF8091AA0283FDDDCFC8CF809130
:1011D000AA0283FDE8C09091AB0291FFF0CFC4EE6C
:1011E000D0E0BDCF8091AA0285FFB9CFA7CF809173
:1011F000AA0285FDDBC08091AB0283FFB0CFC9E3BB
:10120000D0E0ADCF8091AA0286FFA9CFCAE2D0E09C
:10121000A6CF8091AA0286FFA2CFC1E3D0E09FCFE4
:10122000CF3BD10508F6C85AD0E0CC0FDD1FCE5811
:10123000DE4F0990D881C02DD46491CFC11540E50F
:10124000D40708F064C0C11580E4D80708F05CC07A
:10125000CE019A9581159F4108F481CFA5CFC11584
:1012600036E5D30718F5C11545E5D40708F07CC06D
:10127000C11584E5D80708F072C09E01237033279A
:101280009C2F96959695C115D34508F459C0C1E099
:10129000D0E002C0CC0FDD1F2A95E2F730E2939F29
:1012A000C0011124C82BD92BDA6859CFC1158AE5A2
:1012B000D80778F4C11529E5D20708F060C0C11538
:1012C00038E5D30708F470CFDC2FCC27C06FD06A85
:1012D00046CFCE0190568115904208F065CF8D2FF4
:1012E0008F710E94160890E0982F882788279F7199
:1012F0009C012C2BE90141C0C55AD0E0C159DE4FF9
:10130000C881D0E0D0642BCFDF70D06A28CFCE0167
:101310008370992721E030E002C0220F331F8A95A5
:10132000E2F7C695C69580E2C89FE0011124C22B62
:10133000D32BDD6814CFDC2FCC27C16FD06A0FCF41
:10134000C1E0D0E002C0CC0FDD1F2A95E2F720E219
:10135000929FC0011124C82BD92BDC6800CFDC2F51
:10136000CC27C46FD06AFBCE8C2F0E941608C82FE2
:10137000D0E0DC2FCC27CC27DF71D062F0CE8C2FD1
:101380008F700E94160834E0D695C7953A95E1F71C
:10139000CF709C2FEC01D069E2CEC2EED0E0DFCE60
:1013A000C0EED0E0DCCEC6EED0E0D9CEC5E3D0E0D2
:1013B000D6CE809146028111109246020895809502
:1013C00090913603982390933603089580913B02C1
:1013D00090910A02981301C008958F5F8770FACF29
:1013E0009A3080F5883070F548E0949F9001112480
:1013F000820F932F911D682F677023E09695879534
:101400002A95E1F7FC01EE0FFF1FE80FF91FEA51E3
:10141000FE4F50E040E080E0219130E0062E02C017
:10142000369527950A94E2F721703327042E01C0E0
:10143000220F0A94EAF7822B4F5F5F4F433051052A
:1014400059F7089580E008959A3098F5883088F526
:1014500048E0949F90011124820F932F911D282F13
:10146000277041E001C0440F2A95EAF723E09695E2
:1014700087952A95E1F7FC01EE0FFF1FE80FF91F92
:10148000EA51FE4F90E080E070E05191DF0111974A
:101490009B01082E02C0369527950A94E2F7217029
:1014A00021952527242325272C9301968330910508
:1014B00061F70895982F92959F7011F0892F94E00D
:1014C000282F2695269511F09E5F822F869509F08C
:1014D0009F5F892F0895CF93C82F809100038C17A9
:1014E00051F00E946407609301037093020380939C
:1014F000030390930403C0930003CF910895B0E0D9
:10150000A0E0E5E8FAE00C94562CFC01EB01909188
:101510000503911101C094E06081718191509B019C
:10152000092E02C0359527950A94E2F7D901092EB4
:1015300002C0AA0FBB1F0A94E2F76A1B7B0B7183E0
:101540006083628173818B01092E02C01595079516
:101550000A94E2F7D80102C0AA0FBB1F9A95E2F7DE
:101560006A1B7B0B7383628381E80138BFEF1B0723
:101570002CF0802F003811050CF08FE78D83213877
:101580009FEF390754F1203831054CF5922F919592
:101590009C83442319F081958D832C830E946407DA
:1015A0002D81211103C02C812223D9F060930603E1
:1015B00070930703809308039093090380910A03B3
:1015C0009BE0980F973120F4080F00930A031D82C7
:1015D000CDB7DEB7E8E00C94722C21E8D7CF2FE727
:1015E000D5CFC0900603D0900703E0900803F09099
:1015F00009036C197D098E099F09643671058105FF
:101600009105E0F210920A03D9CF382F20E287FF2C
:1016100002C031952DE24AE0832F642F0E948F2C67
:10162000905D9093DB0181110BC02093DA0120E2E1
:101630002093D90120E22093D80188ED91E008950C
:10164000642F0E948F2C905D9093DA01832F64E6C3
:101650000E948F2C882361F3805D8093D901EBCFAA
:101660009C01860F971F37FD07C077FD04C097FFC9
:1016700002C08FEF9FE7089577FFFDCF97FDFBCF67
:1016800080E090E80895E82FE295EF70F0E031A156
:10169000282F2F7081E090E001C0880F2A95EAF78B
:1016A000382B31A392A18095892382A30895E82F36
:1016B000E295EF70F0E031A1282F2F7081E090E0EB
:1016C00001C0880F2A95EAF7982F9095932391A34C
:1016D00092A1892B82A30895B0E0A0E0E2E7FBE0AD
:1016E0000C94562C7C016B018091590501E010E0AF
:1016F0008A3010F40AE010E0C1E0D0E06FE575E058
:10170000C701F6010995811104C021960C171D0728
:101710002CF4CDB7DEB7E8E00C94722CCC9F90018E
:10172000CD9F300D300D112490E080E045E34A95C7
:10173000F1F70000019682179307C1F7DFCF80937E
:1017400032037093340360933303809143038430F6
:10175000F9F48093E9008FEF9091E800815095FDB6
:1017600006C095ED9A95F1F700008111F5CF8091B3
:10177000E80085FF0DC050E040E063E070E082E3E8
:1017800093E00E941B068091E8008E778093E8002A
:101790000895BC0184E00E949F0B0895BC0183E082
:1017A0000E949F0B08959C0184E08093E9009FEFC5
:1017B0008091E800915085FD06C085ED8A95F1F78E
:1017C00000009111F5CF8091E80085FF0CC050E03A
:1017D00040E066E070E0C9010E941B068091E800CD
:1017E0008E778093E8000895CF93DF93EC0181E03A
:1017F0008093E9008FEF9091E800815095FD06C03D
:1018000095ED9A95F1F700008111F5CF8091E800F0
:1018100085FF14C050E040E068E070E0CE010E9417
:101820001B068091E8008E778093E80088E0FE0137
:10183000A9E3B3E001900D928A95E1F7DF91CF9192
:10184000089580914802811119C082E390E02091AF
:10185000E30027FD10C0EFE3FCE93197F1F700C08A
:1018600000000197A1F782E0809348020E94CB0517
:101870001092430303C081E08093480281E090917D
:101880004802913011F080E0089508950E94210CE3
:10189000882359F0E0912903F0912A03309729F029
:1018A0000190F081E02D0995089580E00895579802
:1018B0005F9A879A8F9825E02A95F1F7000089B101
:1018C00087988F9A90EA9A95F1F790E0880F892F80
:1018D000881F990B21E0822781700895CF93DF93B1
:1018E000682F81E06A3019F06D3031F480E00E9499
:1018F000FC0CDF91CF910895809157059091580588
:1019000026E0FC01A1E5B5E001900D922A95E1F7F2
:10191000603E08F458C026E0FC0111922A95E9F7D0
:10192000C0915705D091580546E050E0BE0181E5D1
:1019300095E00E94B32C9E0121553340892B41F143
:10194000C90145E0969587954A95E1F741E050E059
:10195000BA0102C0660F771F8A95E2F7CB0160914A
:101960004F0370915003862B972BB9016B5F7F4F0C
:10197000E5E076956795EA95E1F702C0440F551FBB
:101980006A95E2F7842B952B9093500380934F0335
:101990002A5F3F4F40914E03642F70E0C9010E94BF
:1019A000382C481B463010F4240F311D211572E0ED
:1019B000370710F030E020E02F5A3C4F30935805A5
:1019C0002093570596CFF6E06F9FB0011124685E13
:1019D000794F46E050E00E94AA2CA2CFCF93DF932C
:1019E000EC01FE018491811103C0DF91CF91089534
:1019F0000E946E0C2196F5CFCF93382FE0915705BA
:101A0000F0915805E155F34020914E03622F70E0AC
:101A1000CF010E94382C281B822F332361F066E00F
:101A20000E94832CC82FC15010F4CF91089580E2FA
:101A30000E946E0CF8CF9F01280F311D21153240F6
:101A400018F080E0F0E0E0E08E0F9F2F911D8F5A9C
:101A50009C4F9093580580935705E7CFAEE1B0E0D7
:101A6000E4E3FDE00C945C2C40911B0350911C03BB
:101A700060911D0370911E0380911F0390912003BC
:101A80000E94751620931B0330931C0340931D0383
:101A900050931E0360931F037093200386E0EBE1D5
:101AA000F3E0DE01179601900D928A95E1F786E04A
:101AB000FE013796DE011D9601900D928A95E1F7A1
:101AC00086E0FE013D96DE01119601900D928A9509
:101AD000E1F786E0FE013196ABE1B3E001900D92B3
:101AE0008A95E1F786E0EBE1F3E0DE01599601909B
:101AF0000D928A95E1F786E0FE017996DE01179650
:101B000001900D928A95E1F786E0FE013796DE019D
:101B1000119601900D928A95E1F786E0FE013196CB
:101B2000DE01539601900D928A95E1F786E0FE0161
:101B30007396DE01179601900D928A95E1F786E083
:101B4000FE013796ABE1B3E001900D928A95E1F783
:101B500046E050E065E173E08BE193E00E94B32C36
:101B6000892B79F0E0912903F0912A03309749F00D
:101B700082E080931B030480F581E02D8BE193E0EC
:101B8000099510921D0310921E0310921F031092CC
:101B9000200386E0EBE1F3E0A5E1B3E001900D92D4
:101BA0008A95E1F76E96E2E00C94782C80913603EA
:101BB00090914502892B8093C6019091460299230A
:101BC00091F0892B8093C60120E088EC91E0FC0124
:101BD0003191CF0131112F5FF1E08E3C9F07B9F7B2
:101BE00021110E94D90948E050E06DE372E086ECD3
:101BF00091E00E94B32C892BA9F088E0E6ECF1E09B
:101C0000ADE3B2E001900D928A95E1F7E0912903EE
:101C1000F0912A03309731F00280F381E02D86ECB9
:101C200091E00995089590E080E00E94A00790E07F
:101C300080E00E948A07109245020E94D60D089506
:101C4000CF93C82F0E945A0A91E0833009F090E0A8
:101C5000892F0E946B0AC0934D030E94130ECF91EF
:101C6000089580914D03982F9670963021F48860E6
:101C70000E94200E0895877FFBCF21E030E001C055
:101C8000220F8A95EAF7209580914D0382230E94C6
:101C9000200E089590913C028095892380933C0208
:101CA000282F277091F4282F082E000C330B921741
:101CB000130659F09091AB0292FF07C08595859568
:101CC00085950E943D0E10923C02089521E030E07F
:101CD00001C0220F8A95EAF780914D03822B0E9462
:101CE000200E0895809347020E94130E0895E8EC99
:101CF000F1E086E0DF011D928A95E9F70E94130E5C
:101D00000895AAE2B0E0E7E8FEE00C945B2C85E4DD
:101D100093E02091F100DC012D93CD01B3E08D34EF
:101D20009B07B9F780914603833009F472C0B8F479
:101D3000813009F449C0823009F4B5C08091E800CF
:101D400083FF8DC280914503909146039A3008F03D
:101D500086C2E92FF0E0E45FF04D0C949D2C8A30B0
:101D600009F490C08B3009F471C0893039F7809143
:101D70004503813219F78091490390914A030097F6
:101D800011F00297D9F68091E800877F8093E800F0
:101D90008091E80082FF38C09091F3008091F200BA
:101DA000029731F48091F100813011F0863021F4F6
:101DB0008091F100809338038091E8008B778093C5
:101DC000E8000E944506BACF80914503813A09F0A8
:101DD000B5CF8091E800877F8093E8008091490328
:101DE00090914A03892B61F468E089E393E070E005
:101DF0000E94F1068091E8008B778093E8009ECFE7
:101E000060E090E080E0F3CF809143038111C0CF88
:101E100095CF80914503813A09F090CF8091490395
:101E200090914A03892B09F089CF8091E800877F40
:101E30008093E8008091E80080FFFCCF80916D01E5
:101E40008093F1008091E8008E77B9CF80914503AF
:101E5000813209F073CF8091490390914A03892B15
:101E600009F06CCF8091E800877F8093E8000E94A2
:101E700045068091470380936D01109236030E94BE
:101E8000770E5CCF80914503813209F057CF809166
:101E9000E800877F8093E8000E9445068091480310
:101EA000809337034BCF80914503813A09F046CFA9
:101EB0008091E800877F8093E8008091E80080FFB0
:101EC000FCCF80913703BCCF803899F0823809F07D
:101ED000C6C1809149038F70873008F0C0C18093DC
:101EE000E9008091EB0085FB882780F91092E900DA
:101EF00006C08091410390914203911182609091BC
:101F0000E800977F9093E8008093F1001092F10031
:101F10008091E8008E779FC1882309F48DC18230BB
:101F200009F09DC180914703811190C180914903BF
:101F30008F702FEF280F263008F091C18093E900B1
:101F40002091EB0020FF82C1933031F48091EB00AF
:101F500080628093EB007AC19091EB009061909346
:101F6000EB0021E030E001C0220F8A95EAF72093D0
:101F7000EA001092EA008091EB008860EACF8111BC
:101F80006EC1109147031F778091E3008078812B09
:101F90008093E3008091E800877F8093E8000E94AF
:101FA00045068091E80080FFFCCF8091E3008068C7
:101FB0008093E30082E0111183E0809343034FC1DB
:101FC0008058823008F04BC120914703309148037C
:101FD0002C3DE3E03E07A1F583E08A838AE2898312
:101FE0004FB7F894DE01139620E03EE051E2E32F74
:101FF000F0E050935700E49120FF03C0E295EF70AA
:102000003F5FEF708E2F90E0EA30C0F0C7968D935F
:102010009D932F5F243159F74FBF8091E800877F50
:102020008093E8006AE270E0CE0101960E94F1061A
:102030008091E8008B778093E80011C1C096E7CFCC
:102040008091490390914A03432F5527433051050E
:1020500009F44AC078F54130510509F47AC08BE59E
:1020600090E0EFE7F5E04230510509F0F8C020912B
:10207000E800277F2093E80020914B0330914C0328
:102080008217930708F49C0140E02115310509F0FF
:1020900065C0411163C08091E80082FDC9CF809185
:1020A0004303882329F2853019F28091E80083FFE9
:1020B000F2CFBECF4132510509F43CC04232510546
:1020C00009F0CDC08330910508F0C9C0FC01EE0FC6
:1020D000FF1FE954FE4F0190F081E02D8C549E4F7C
:1020E000DC018C9190E01AC0332721303105D1F00A
:1020F0002115310561F02230310509F0B0C0ECEE58
:10210000F5E0E4918E2F90E0ECEEF5E007C0E4E11D
:10211000F6E0E4918E2F90E0E4E1F6E0009709F418
:102120009EC0A5CFE2E0F6E0E4918E2F90E0E2E0E1
:10213000F6E0F4CF8330910508F091C0880F991F25
:10214000FC01E354FE4F0190F081E02D89E090E026
:102150008ECF82E190E0EAEDF5E089CF80914303F4
:10216000882309F465CF853009F462CF8091E800B7
:1021700083FD5ECF8091E80082FD8DCF8091E800E5
:1021800080FF83CF9091F3008091F20021153105FB
:1021900019F08830910550F041E0089709F040E0CF
:1021A0008091E8008E778093E8006FCF4491409350
:1021B000F1003196215031090196E8CF803809F0BD
:1021C0004EC08091E800877F8093E80080914403AF
:1021D0008093F1009DCE811142C0109147031230CF
:1021E000F0F58091E800877F8093E8001093440326
:1021F0000E944506112311F084E005C08091E300A0
:1022000087FDFACF81E08093430342E061EC81E0F7
:102210000E94640642E261EC84E00E94640642E2AD
:1022200061EC82E00E94640642E260EC83E00E947E
:1022300064068091430313C080914703813079F491
:1022400081E0933009F080E0809342031092E9002E
:102250008091E800877F8093E8000E944506809186
:10226000E80083FF0AC08091E800877F8093E80040
:102270008091EB0080628093EB00AA96E3E00C94DF
:10228000772C109236030E94770E2FEF84E39CE0A8
:10229000215080409040E1F700C0000088E19AE0C2
:1022A0000FB6F894A895809360000FBE90936000DD
:1022B000FFCF882321F00E94DF090E94D60D0895E8
:1022C000882339F090913603982B909336030E941F
:1022D000D60D0895882391F19CEF980F913A80F4E0
:1022E000E8ECF1E02EEC31E09191891303C0DF01BD
:1022F00011971C922E173F07B9F70E94D60D08952B
:1023000090E2980F983050F4877091E001C0990FD7
:102310008A95EAF7892F0E94DF09EFCF9BE5980F96
:10232000933028F490E080E00E94A0070895885A36
:10233000873120F490E080E00E948A070895CF93CF
:10234000C82F8823B1F08CEF8C0F813A00F5E8ECB0
:10235000F1E08EEC91E0DF012D91C21761F08A1758
:102360009B07D1F76C2F86EC91E00E9470070E94CA
:10237000D60DCF9108952191C21303C0DF011197AB
:102380001C928E179F07B9F70E94D60DEBCF80E203
:102390008C0F883068F4C77021E030E001C0220F54
:1023A000CA95EAF780913603822B80933603DFCFFC
:1023B000EBE5EC0FE33040F4F0E0E159FE4F8081B3
:1023C00090E00E94A007D5CFC85AC73190F6EC2FF5
:1023D000F0E0EE0FFF1FEE58FE4F808191810E94CA
:1023E0008A07C7CF1F93CF93DF93182FEB010E946B
:1023F0009F118FE99FE00197F1F700C0000021973E
:10240000C1F7812F0E946A11DF91CF911F9108952A
:102410000F931F93CF93DF93EC01FC0101900020F9
:10242000E9F78F0101501109C017D10728F0DF919A
:10243000CF911F910F91089589910E946E0CF4CF56
:10244000B0E0A0E0E6E2F2E10C94562C6C017B01D6
:1024500064E670E088E70E949629EC0197FD12C0BF
:1024600010E000E0F601E00FF11F849164E670E0F7
:102470000E94022AEC01892B29F40F5F1F4F0E15D1
:102480001F0581F70E94782ACE01CDB7DEB7E8E0BC
:102490000C94722C8091250390912603911103C016
:1024A00091E089270895882369F062E070E08DEF5C
:1024B00092E00E942012892B19F080912503089543
:1024C0001092250380912503EBCFCF93C091250374
:1024D000809126038823D1F00E946407605A7541D9
:1024E0008F4F9F4F609321037093220380932303A8
:1024F00090932403C11108C062E070E08BEF92E07A
:102500000E942012892B29F0C09125038C2FCF9196
:10251000089581E080932503F7CFCF93DF93C7EA37
:10252000D2E060E0CE010E94DD2C2196C11584E04E
:10253000D807B9F7DF91CF9108951F93CF93DF9319
:10254000122F8430E0F46A30D0F44830C0F490E1C7
:10255000699FE001112450E0440F551FC40FD51F9F
:1025600090EA899FC00DD11D1124632FCE0187965B
:102570000E94DD2C612FCE0188960E94DD2CDF9118
:10258000CF911F910895AF92BF92CF92DF92EF92B9
:10259000FF921F93CF93DF938FEFC82E82E0D82E48
:1025A000D0E07601C0E014C0F50125913491412FAF
:1025B0006C2F8D2F0E949D1282E0A80EB11C1F5F10
:1025C000183091F780E1E80EF11CCF5FCA3019F0A6
:1025D000570110E0E9CFDF5F80EAC80ED11CD4308C
:1025E00001F7DF91CF911F91FF90EF90DF90CF9097
:1025F000BF90AF90089586E290E00E94DD2C089590
:10260000CF93C82F6FEF811162E283E290E00E94C6
:10261000DD2C6FEFC11169E084E290E00E94DD2CB7
:102620006FEFC11160E385E290E00E94DD2CCF9155
:10263000089580E00E94001360E070E0CB010E94EA
:10264000FB120E94C3120E948D1281E00E940013AF
:102650000895CF93C091AB02C2FB992790F99817C8
:1026600091F080FBC2F9C093AB026091AA0284E0B2
:1026700090E00E94DD2C6C2F82E290E00E94DD2C25
:1026800082E00E944A0ECF9108950F931F93CF933B
:10269000DF93843030F56A3020F5483010F520E1C2
:1026A000629F8001112450E0440F551F040F151F35
:1026B00030EA839F000D111D1124C80187960E94E6
:1026C000C92CC82FD0E0DC2FCC27C80188960E94E7
:1026D000C92C9E01282BC901DF91CF911F910F9129
:1026E000089590E080E0F8CF462F843040F47A30AF
:1026F00030F4683020F4672F0E944513089590E06D
:1027000080E00895CF92DF92FF920F931F93CF93B3
:10271000DF936C0100914D0380914702082BC7E0C5
:10272000D0E010E0FC2EC8010C2E02C095958795D4
:102730000A94E2F780FD0CC02197A0F7F12C8F2DB1
:10274000DF91CF911F910F91FF90DF90CF9008956F
:10275000B6018C2F0E9474130E945908019761F3EF
:10276000EECFCF93DF93EC010E948213BE010E9453
:1027700074130E945908DF91CF910895FC01838161
:102780009481892B29F08081918189238F3F51F495
:1027900080E00895843FE1F717C0883EA8F0813FAC
:1027A000B9F712C0808191810E94B11392959F70F8
:1027B000963099F358F4925F9F70923048F7803FBB
:1027C00019F040F7883E20F781E008959A5FF4CF32
:1027D00086E290E00E94C92C682F70E090E080E0D3
:1027E000089583E290E00E94C92C823289F484E249
:1027F00090E00E94C92C893059F485E290E00E9453
:10280000C92C91E0803309F090E0892F8170089500
:1028100080E0FCCFB0E0A0E0E0E1F4E10C94572CC4
:102820007901C82F880FDD0B41155105A9F0FE0174
:1028300093E0EE0FFF1F9A95E1F7E65FFE4F81816F
:102840009281875B9D4F208130E04217530708F447
:102850009A01A9010E94C02CCE010E94C22BD82E41
:102860008823D1F001151105B9F083E0CC0FDD1FED
:102870008A95E1F7FE01E65FFE4F438150E00417C1
:10288000150708F4A801C65FDE4F6C817D81675B88
:102890007D4FC7010E94C02C8D2DCDB7DEB7E7E07C
:1028A0000C94732CA5E0B0E0E8E5F4E10C94542C12
:1028B0008D83E62E5A01F22E6801809159058A30E7
:1028C00028F080E02596EAE00C94702C8D8187300A
:1028D000C4F31A8219828A836B832C8363E070E0CD
:1028E000CE0102960E94B6078983E0922A01F092F7
:1028F0003D0110E000E030E020E044E050E0BE01A7
:102900006F5F7F4F83E00E940A148823D1F24E2D1F
:1029100050E030E020E0B50184E00E940A148823F2
:1029200081F230E020E041E050E0BE016B5F7F4F7C
:1029300085E00E940A14882321F20F2D10E09601F1
:1029400050E040E070E060E086E00E940A14BACFF8
:10295000A4E0B0E0EEEAF4E10C945A2C4091A0021D
:102960005091A1026091A2027091A3022FB7F89436
:1029700080912E0390912F03A0913003B0913103E9
:102980002FBF841B950BA60BB70B11E08436910566
:10299000A105B10538F10E94210C882341F10E9464
:1029A00064076E5F7F4F8F4F9F4F69837A838B835E
:1029B0009C8310E000E030E020E044E050E0BE0105
:1029C0006F5F7F4F82E00E940A14182F882351F016
:1029D0000E9464076093A0027093A1028093A202F8
:1029E0009093A302812F2496E4E00C94762C0E940D
:1029F00064070091A4021091A5022091A6023091D3
:102A0000A702600F711F821F931FCBCFA6E0B0E01B
:102A1000ECE0F5E10C94582C7B0101E010E09E0104
:102A20002A5F3F4F50E040E070E060E080E00E94AD
:102A30000A14182F882309F453C040919C02509126
:102A40009D0260919E0270919F022FB7F894809131
:102A50002E0390912F03A0913003B09131032FBF2B
:102A6000841B950BA60BB70B84369105A105B10508
:102A700048F465E070E08AE492E00E94B6079E8127
:102A8000891771F105E010E09E012F5F3F4F50E084
:102A900040E070E060E081E00E940A14082F65E0E9
:102AA00070E08AE492E00E94B60711E09E819813DC
:102AB00010E0102301F10E94640760939C02709360
:102AC0009D0280939E0290939F0285E0FE013196C5
:102AD000A7E9B2E001900D928A95E1F711E00BC0F1
:102AE00085E0EAE4F2E0DE01119601900D928A950C
:102AF000E1F71111EACF85E0E7E9F2E0D7010190B3
:102B00000D928A95E1F7812F2696E6E00C94742CBD
:102B10000E94570C809309010E94210C81110E9490
:102B2000D62A089590E080E00E94D72C883E9E4FE0
:102B300019F40E94F113089580E0089568EE7EEF85
:102B400090E080E00E94FB2C60E082E090E00E9438
:102B5000DD2C60E083E090E00E94DD2C10924702C3
:102B600060E084E090E00E94DD2C64E082E290E08E
:102B70000E94DD2C60E085E090E00E94DD2C60E0AA
:102B800086E090E00E94DD2C6FEF87E090E00E94ED
:102B9000DD2C40E050E0BA0188E090E00E94EF2C8C
:102BA00060E08DE090E00E94DD2C40E050E0BA0152
:102BB00088E190E00E94EF2C60E087E190E00E94C5
:102BC000DD2C40E050E0BA018CE190E00E94EF2C57
:102BD00070E060E080E290E00E94FB2C40E050E07A
:102BE000BA0188E190E00E94EF2C80E00E9400137F
:102BF0000E94191340E050E0BA018FE090E00E947B
:102C0000EF2C40E050E0BA0183E190E00E94EF2C0D
:102C10000895B0E0A0E0EFE0F6E10C94522CEC0156
:102C20008B01942EAA80BB80B501B7FE04C0662735
:102C300077276A197B09072E000C880B990B0E94D5
:102C4000B62D0E94B52E0E94B52E6B017C01B501F8
:102C5000BB0C880B990B0E94B62DA70196010E9410
:102C6000422E0E947E2D862EF8016283A880B980B4
:102C7000B501B7FE04C0662777276A197B09072EBE
:102C8000000C880B990B0E94B62D0E94B52E9B015B
:102C9000AC010E94122D0E94B52E6B017C01B50182
:102CA0000B2C000C880B990B0E94B62DA7019601E6
:102CB0000E94422E0E947E2DF8016383992021F00C
:102CC0008194828261956383198218821B821A82A1
:102CD000CDB7DEB7ECE00C946E2C28E030E043E09A
:102CE00060E086E30E94BE280895ACE0B0E0EBE728
:102CF000F6E10C94562C4F83588769877A878B8727
:102D00009C878091F302882399F00E946D1680E5DC
:102D10000E9436298AEB8A95F1F700C00E944E295D
:102D2000887899278038910509F487C00E94662920
:102D30000E94210C882309F46BC00E946407009153
:102D4000DD011091DE012091DF013091E0016B0186
:102D50007C01C01AD10AE20AF30A97018601083001
:102D600011052105310508F453C06093DD0170930E
:102D7000DE018093DF019093E00100910103109147
:102D800002032091030330910403601B710B820B3B
:102D9000930B623371058105910580F41092F7025F
:102DA0001092F6021092F9021092F8021092FB02B1
:102DB0001092FA021092FD021092FC021091000390
:102DC0000E94570C482FBE01695F7F4F86EF92E04B
:102DD000112309F45FC00E947F0A00910003109143
:102DE000F3020E94570C41E04827BE01695F7F4F04
:102DF0008AEF92E0011709F450C00E947F0A86E032
:102E0000FE013796AFE0B3E001900D928A95E1F7AD
:102E100086E0FE013796DE01119601900D928A95AB
:102E2000E1F729813A814B815C816D817E8180E06F
:102E300090E02C96E8E00C94722C0E944E290E949F
:102E40004E297C010E944E2920E0E22AF82A0E94A5
:102E50004E298C010E944E2920E0022B182B0E9443
:102E60006629F894B7018091F6029091F7020E94CA
:102E7000300B9093F7028093F602B8018091F8022C
:102E80009091F9020E94300B9093F9028093F8021E
:102E900078944ECF0E940916A0CF0E940916AFCF9A
:102EA000CF93DF93D82FC62F0E946D168D2F806889
:102EB0000E9436298C2F0E9436290E9466298FECA9
:102EC00092E00197F1F700C00000DF91CF910895E3
:102ED000682F893708F068E76093FE0291E09093CD
:102EE000FF029091F302992359F06150811101C0C2
:102EF00061E08FE00E94501760E080E50E9450176B
:102F00000895FB0180810E94681708959091FE0248
:102F1000911101C092E0282F880F330BA901490FAE
:102F2000511DCA011816190614F081E090E00E94A4
:102F300068170895A2E1B0E0E0EAF7E10C944D2CA7
:102F40008C01FC0183819481892B31F080819181F6
:102F500089238F3F09F0A6C46296E1E10C94692CA5
:102F60000E948213F82E682F89819A810E94240A78
:102F700069817A818F2D0E9474137C01F80182810E
:102F8000882309F482C4C70182519F45409708F005
:102F90004CC48FEF93E00E94C92C811128C0FEEE33
:102FA000EF0E57EA852E52E0952EE11032C01C82BA
:102FB0001B82442443944AE0342E74018FEFE81AB4
:102FC000F80AC4010E94C92C89831A82882379F0E7
:102FD0009FEF980F933058F58A83498292E0890ECB
:102FE000911CC7010E94C92C8B83811121C0809143
:102FF0003C02877009F4B0CFF8018281882309F47C
:10300000ABCF8091AB0282FFA7CF82E00E944A0E35
:10301000A3CF811424E0920651F3C4010E94C92C6D
:10302000811101C0EA943FEF831A930ABECF470192
:10303000FE0131967F01F7012081222309F4BDCFE3
:10304000213009F06CC091818281913061F4F2E00D
:10305000EF0EF11C65E070E0893311F460E570E07B
:103060000E94F21107C0923039F522E0E20EF11C05
:103070000E949F118FEFE81AF80AEFE9FFE03197FD
:10308000F1F700C000008FE99FE00197F1F700C061
:103090000000EFE9FFE03197F1F700C000008FE991
:1030A0009FE00197F1F700C00000EFE9FFE03197E2
:1030B000F1F700C00000BFCF933031F432E0E30EEF
:1030C000F11C0E946A11D6CF943021F08FEFE81ADC
:1030D000F80AD0CF92E0E90EF11C30E020E0B70111
:1030E0006F5F7F4FF70141818053990B8A309105C3
:1030F00058F02150310908F4BDCF8FE99FE00197C6
:10310000F1F700C00000F5CF329EF001339EF00DC4
:1031100011249C012E0F3F1F842F7B01E0CFE22F53
:10312000F0E0E754FE4F5490822F86958695869561
:1031300090E0FC01E755FE4F64902770712C022E41
:1031400002C0759467940A94E2F7E1E06E22772456
:10315000FC01E756FE4FA490B12C022E02C0B5949C
:10316000A7940A94E2F7F1E0AF22BB24FC01E757F1
:10317000FE4FC490D12C02C0D594C7942A95E2F793
:1031800021E0C222DD246114710419F081EE0E9455
:103190009F11A114B10419F086EE0E949F1139E32A
:1031A00065E070E0531202C060E570E0852D0E947A
:1031B000F211A114B10419F086EE0E946A11611493
:1031C000710419F081EE0E946A11C114D10409F44E
:1031D00051CF65E070E08CE243CF81E00E94660E43
:1031E0000E94310E04CF81E00E943D0EF9CF82E0B3
:1031F000F5CF0E946407C090E101D090E201E09019
:10320000E301F090E4016C197D098E099F0966398C
:1032100071058105910508F0EACE65E070E083E371
:103220000E94F211E4CEF4EFEF16F10450F029EF12
:10323000E216F104A0F038EBE3163DE5F30609F4DD
:1032400068C0882309F43FC3F701E15BFD45EA301C
:10325000F10508F051C3EA5EF04D0C949D2C94EFFB
:10326000E91AF10821E030E00E2C01C0220F0A9487
:10327000EAF796E0EBE1F3E0DE01179601900D929C
:103280009A95E1F796E0FE013796DE011D960190D2
:103290000D929A95E1F798858823A9F0292B2E871E
:1032A00086E0FE013D96DE01119601900D928A9511
:1032B000E1F786E0FE013196ABE1B3E001900D92BB
:1032C0008A95E1F794CE20952923E9CF80E00E94EA
:1032D0006817109205038BCE4091FE0250910503B2
:1032E00050FB47F95695537060E070E08FE090E036
:1032F0000E94EF2C7CCE81E00E94861778CE8FEF63
:10330000FBCF8AE0F9CF86EFF7CF9091000381E001
:1033100089270E946B0A6BCE80910503811101C041
:1033200084E08F5F18160CF081E0883008F087E0A9
:10333000809305035CCE80910503811101C084E078
:103340008150F0CF85E3CAC2EAE5EE16EDE5FE0650
:1033500009F47FC008F053C0E1142CE5F20609F42B
:103360005CC03EEDE3163CE5F30609F465C0F801E8
:103370008281E080F180882309F46FC0C7010E9438
:103380008213D82E682FC7010E94240AB7018D2D01
:103390000E9474130E9459087C01882EF801D28083
:1033A000B580B2943FE0B32280913C028770C1F0B7
:1033B000AD2CDD20B1F08F2D807F803421F080E2B4
:1033C0008E0D883068F08091AB0282FF09C082E0E8
:1033D0000E944A0E80913C028770AA24A394811116
:1033E000A12C9F2C92942FE09222FBE0F91508F477
:1033F000A3C0E92DF0E0E05EF04D0C949D2C8CE52F
:10340000E8168DE5F806D9F030F1E7EAEE16EDE5BD
:10341000FE0609F0ACCF0E944111109236030E94C3
:10342000770EFFEF24E33CE0F15020403040E1F71D
:1034300000C000000E9453070E949E15ECCF8091AF
:10344000AB0282FB882780F991E089270E9429132B
:103450008ECF81E0FBCF80E0F9CFC7010E94F00959
:10346000D82E94CF2F2D2F70C22E8F2D807F19F044
:10347000C29490EFC922DD20B9F0CC2069F080E23F
:103480008E0D883010F0811009C080913603C82A53
:10349000C09236030E94D60D8E2D4CC080914502FD
:1034A000C82AC0924502F6CF8E2D0E946A11CC2008
:1034B00009F442C080E28E0D883010F0811004C003
:1034C0008C2D0E94DF0906C0C09480914502C8225D
:1034D000C09245020E94D60D2FC03F2D3F70C32ED3
:1034E0008F2D807F803219F0C29480EFC82288200F
:1034F00089F081E0881609F468C0DD2009F472C003
:10350000BB2009F468C0F801858180FFC5CF8F70AA
:10351000858361C02091AB0222FD35C0DD2069F1B9
:10352000CC2039F080913603C82AC09236030E941D
:10353000D60D80E00E949F11292D2850330B243096
:10354000310510F40E94460CAA2009F405CD8091A3
:103550003C0280FD01CDF801128285958595859507
:103560000E94660EC8010E949A1780913C028595C0
:10357000859585950E943D0EEFCC80E00E946A11F2
:10358000CC20D1F29DCFDD2099F0909146028C2D78
:10359000892BB11003C00E946011CECFE1E0BE12B2
:1035A000FACF22FFC9CF891739F280934602C4CFE0
:1035B000B11006C00E94D9098C2D0E945911BCCFB0
:1035C000F1E0BF1609F4B8CFF5CFDD2031F025E0EA
:1035D0002B1508F4B1CF8C2DDECF34E03B1508F469
:1035E000ABCFEACFBB2041F3F9E38F1216C12FEF27
:1035F00037EE83E0215030408040E1F700C000000A
:103600008E2D0E946A1198CF8F2D86958695837096
:1036100061F0813009F090CFC7019370D11002C0E2
:1036200090E080E00E948A0787CFC7019370D11095
:1036300002C090E080E00E94A0077ECF8F2D8370B3
:1036400091F5D11079CF4E2D429546954770440F94
:10365000440F8E2D8F70042E01C0880F0A94EAF754
:103660002E2D2071E4FE07C02FE030E001C0220FB4
:103670004A95EAF720953F2D3695369533703230CE
:1036800069F050F440914702313029F0822B8423B5
:103690000E94720E51CF842B822BFACF282B80915F
:1036A00047028227F5CF8695DD2011F08F2D81709E
:1036B000882309F441CF4E2D429546954770440F1B
:1036C000440F8E2D8F70042E01C0880F0A94EAF7E4
:1036D0002E2D2071E4FE07C02FE030E001C0220F44
:1036E0004A95EAF720953F2D36953695337032305E
:1036F00069F050F440914D03313029F0822B84233E
:103700000E94200E19CF842B822BFACF282B809178
:103710004D038227F5CFFF2DFF70FF2EDD2029F00E
:103720008F2F0E94660E8E2D36CF8E2D0E9459113E
:103730008F2D0E943D0E00CF8E2D22EF8216B1F10B
:10374000281570F030EF8316D1F091EF891691F0C3
:10375000DD2009F45DC0B1109FCE8F2D8F712AC07E
:10376000E3EF8E1651F1F4EF8F12F2CF8091AB029E
:1037700082FD2FC08F2D8F71DD20D9F21BC0DD207F
:1037800081F024E02B1508F4D7CE2F2D2F7181E086
:1037900090E001C0880F2A95EAF790914D038927A0
:1037A000AFCF35E03B1508F4C7CEEFCF8F2D8F712B
:1037B000D110BFCF0E94660EBFCE80E0DD2009F49D
:1037C0009FCF9F2D9F7181E001C0880F9A95EAF7E6
:1037D00097CFDD2091F08F2D8F71F82E0E94660E0D
:1037E0008091AB0282FF07C0E8E0FE9EC001112479
:1037F000836080933C028F2DDDCF81E00E944A0ED2
:10380000F1E0FB1508F098CE82E00E944A0E94CEBB
:10381000BB2041F0893309F4EACEEFE1FEE43197B1
:10382000F1F7ECCE8F2D8F7184CFF0E1EF16FFE52D
:10383000FF0609F4D2CC21E1E2162FE5F20609F4E5
:10384000D6CCF0920C03E0920B03F80180819181B9
:1038500090930E0380930D038281FBEBEF16FDE541
:10386000FF0609F0E0CC0E946B0AF80182818823F0
:1038700009F4BFCC0E9464076093E1017093E201F8
:103880008093E3019093E401B2CB30E1E3163FE58E
:10389000F30609F4A8CC81E1E8168FE5F80689F66D
:1038A00082E0A2CC85E0DE01119601900D928A950E
:1038B000E1F7F801228189819A81211151CB0E947F
:1038C000F009F82E55CBF6E1EF16FCE5FF0609F0FE
:1038D0004ECD8091E501811135CD89E2E8ECF1E032
:1038E0002EEC31E09191891303C0DF0111971C92F6
:1038F0002E173F07B9F717C026E1E2162CE5F206AE
:1039000009F022CD882329F3809136038A7A91E049
:1039100009F490E09093E50169E2811165E386EC9A
:1039200091E00E9470070E94D60D61CB1F93CF9348
:10393000DF9380910902807F09F049C080910602DF
:10394000882309F444C080913B02D0910A0260911F
:10395000040270910502A0910702B0910802C62FDF
:10396000C72316E0D81799F190E0109711F0CF3FD8
:1039700019F401968770F6CF189F9001199F300DAA
:103980001124F901E55FFD4F41814713F2CF4081DA
:103990004613EFCF42814111ECCF438154814A1B42
:1039A0005B0B483C510528F7809109028F708061BC
:1039B00080930902F901E05FFD4F80818F70806183
:1039C000808384E092E00E949A170E94E609DF91CA
:1039D000CF911F910895A1E1B0E0E1EFFCE10C94DB
:1039E000542C8C0185E0F801DE011D9601900D92AA
:1039F0008A95E1F7F801E28084E0A82E82E0B82EF3
:103A000060910702709108026115710509F426C1E1
:103A10009091040240910502892F84238F3F09F47D
:103A20001DC120813181C380D480F0900602F6014F
:103A3000E61BF70BFF2009F4DCC080910902582F28
:103A4000507FE83CF10508F09FC051116BC0FE2C7F
:103A5000431314C0921312C0E11010C08F70806124
:103A600080930902C5010E949A1780910902F8010A
:103A700085838F2D6196EAE00C94702CC114D104DB
:103A800029F0822F83238F3F09F003C180E0F82FB4
:103A9000F170DF2E80FF3CC080913B0240910A0212
:103AA00056E0841315C02D873E878D859E850E9424
:103AB000B113292F22952F702230F0F0243018F501
:103AC0009F70F1F0F8019581907FD1F4D12C1EC048
:103AD00090E0589FF001599FF00D1124E55FFD4FD4
:103AE0006181361306C06081261303C06281E6122D
:103AF0000FC001968770D5CF9F7011F0882331F3E6
:103B0000805E883018F3C8010E949A17FD2CB1CF4F
:103B1000EE2009F4AECF8091090281608093090202
:103B2000F12CA7CF431306C0921304C0F801EE2076
:103B300009F479C0C8010E94BE13882309F1EE2060
:103B4000F9F080910902803270F0209104023091E6
:103B5000050238872F831986DB86CA868C87CE01BB
:103B600007960E949A1786E0F801A4E0B2E001905F
:103B70000D928A95E1F70E94961CFF24F39479CF69
:103B8000C8010E949A17F9CF51110AC084E092E04F
:103B90000E949A1786E0F50111928A95E9F7C0CF45
:103BA00043130FC092130DC0E1100BC0F8018583C1
:103BB000C8010E949A1786E0F50111928A95E9F7EB
:103BC00058CFC8010E94BE138823D1F2EE20C1F263
:103BD00080910902803238F220910402309105026E
:103BE0003A8329831B82DD82CC828E83CE010196AB
:103BF000B8CFE83CF105F8F6FE2CEE2009F24313AD
:103C00001FC092131DC08091090280FD10C0982F23
:103C1000907F69F0F8018583903F31F0982F907F75
:103C2000905F8F70892B8583C8010E949A1786E068
:103C3000F801A4E0B2E001900D928A95E1F719CF66
:103C4000C8010E94BE1381118ECF8091090281604C
:103C500080930902C8010E949A170BCFEE2009F445
:103C60008FCFC8010E94BE13F82E882309F488CF95
:103C700086E0F801A4E0B2E001900D928A95E1F7A8
:103C800080910402909105020E94B1130E94961C3B
:103C9000F0CE81E08E25FBCEA7E1B0E0E2E5FEE1CB
:103CA0000C945B2C4B8B5C8B6D8B7E8B8F8B6111A3
:103CB000109245021A8A198A85E0FE017396DE0188
:103CC0001D9601900D928A95E1F786E0FE013D96E2
:103CD000DE01179601900D928A95E1F7CE010796C5
:103CE0000E94EB1C882359F016E080913B029091D2
:103CF0000A02891345C06796E3E00C94772C86E0AE
:103D0000FE013796DE01119601900D928A95E1F73A
:103D10008A859B85892B41F38F81988589238F3FE5
:103D200019F320910A0230E0C901019687709927A2
:103D300040913B024817190681F4109236030E9405
:103D4000770E10920A0210923B0286E0E4E0F2E065
:103D5000DF011D928A95E9F7C7CF96E0929FD001C7
:103D6000939FB00D1124A55FBD4FFE0131960190C8
:103D70000D929A95E1F780930A020E94E609B4CF6A
:103D8000819FC0011124855F9D4F0E94EB1C8823F9
:103D900009F4B1CF80913B0290E00196877099279A
:103DA00080933B02A2CFCF93C82F0E946D168C2F19
:103DB0000E9436298FE792E00197F1F700C00000DA
:103DC0000E944E29C82F0E9466299AE69A95F1F71B
:103DD00000C08C2FCF910895CF93DF930E94B62817
:103DE000269A0E946D166AE58AE30E9450172FEF0B
:103DF00080E792E0215080409040E1F700C0000051
:103E000082E00E94D31E83E00E94D31E84E00E94C1
:103E1000D31E85E00E94D31E86E00E94D31E60E080
:103E200080E10E94501780E00E94D31ED82F81E0CD
:103E30000E94D31EC82F0E946629D23419F481E053
:103E4000C13009F080E081708093F302882341F053
:103E500061E08FE00E94501760E080E50E945017FB
:103E6000DF91CF9108951F920F920FB60F921124F8
:103E70002F933F934F935F936F937F938F939F9372
:103E8000AF93BF93CF93DF93EF93FF93D091E9006C
:103E9000DF708091EC00C82FC17080FDC0E81092E7
:103EA000E9008091F000877F8093F00078940E9471
:103EB000810E1092E9008091F00088608093F000FC
:103EC000CD2BCF70C093E900FF91EF91DF91CF919F
:103ED000BF91AF919F918F917F916F915F914F9122
:103EE0003F912F910F900FBE0F901F9018951F922A
:103EF0000F920FB60F9211242F933F934F935F931E
:103F00006F937F938F939F93AF93BF93EF93FF93A1
:103F10008091E10082FF09C08091E20082FF05C02C
:103F20008091E1008B7F8093E1008091DA0080FF37
:103F300024C08091D80080FF20C08091DA008E7F5D
:103F40008093DA008091D90080FF9DC080E189BD17
:103F500082E189BD09B400FEFDCF81E08093430377
:103F600080913503811109C00E94CB050E949606FD
:103F70008091E20084608093E2008091E10080FF04
:103F800017C08091E20080FF13C08091E2008E7F15
:103F90008093E2008091E20080618093E200809152
:103FA000D80080628093D80019BC85E080934303D9
:103FB0008091E10084FF2BC08091E20084FF27C044
:103FC00080E189BD82E189BD89B5982F917080FF1C
:103FD000FBCF8091D8008F7D8093D8008091E10045
:103FE0008F7E8093E1008091E2008F7E8093E200DB
:103FF0008091E20081608093E200809144038823F5
:1040000009F447C084E08093430380914303809187
:10401000E10083FF27C08091E20083FF23C08091ED
:10402000E100877F8093E10082E080934303109258
:1040300044038091E1008E7F8093E1008091E20053
:104040008E7F8093E2008091E20080618093E200A5
:1040500042E060E080E00E9464068091F0008860A9
:104060008093F000FF91EF91BF91AF919F918F915D
:104070007F916F915F914F913F912F910F900FBE64
:104080000F901F90189519BC10924303109235039E
:1040900074CF8091E30087FD93E090934303B5CF05
:1040A00078941F921FB61F9211248F939F93AF9302
:1040B000BF9380912E0390912F03A0913003B09174
:1040C00031030196A11DB11D80932E0390932F0300
:1040D000A0933003B0933103BF91AF919F918F9123
:1040E0001F901FBE1F9018959C014FB7F8948091A8
:1040F0002E0390912F03A0913003B09131034FBF55
:10410000821B930B08952FB7F89480912E03909102
:104110002F03A0913003B09131032FBF0895B0E079
:10412000A0E0E5E9F0E20C94502C35E0C32E31E03C
:10413000D32E4AE5842E45E0942E00E011E0712C48
:10414000AA24A394B12CD8018D918D010E94430B18
:1041500000C0E401688025E0E22E21E0F22EF701A4
:10416000D0E0C0E04191A42FA295AF70B0E090964E
:104170008C9195010C2E01C0220F0A94EAF790E071
:104180004F7002C0959587954A95E2F780FD8EC0E5
:10419000622A2196C430D10529F7F8013197808130
:1041A0000E94570BA0EAAA95F1F7F40180818615C9
:1041B00019F0608277247394FFEF8F1A9F0A21E031
:1041C0000530120709F0BFCF01E010E0D7018D9153
:1041D0007D010E94430B00C0C8010C2E01C0880F56
:1041E0000A94EAF7782FEAE5F5E090E0A92E91E04D
:1041F000B92E682F6095D5012D915D01822F829592
:104200008F7090E0DC0190968C91AF01308190E04E
:104210002F7002C0959587952A95E2F780FD49C0D9
:10422000872F832B80833196DA018C91381711F018
:1042300077247394CA14DB04F1F6F7013197808177
:104240000E94570BB0EABA95F1F72196C830D10514
:1042500009F0BCCFC091A902772071F181E0809371
:10426000D0010E9483209093CF018093CE01809152
:10427000CE019091CF010E947420059708F1D0E003
:10428000C252DD4F45E050E06AE575E0CE010E9484
:10429000B32C892B41F085E0EAE5F5E0DE010190E1
:1042A0000D928A95E1F71092D0010AC02095622202
:1042B00070CF862F8323B6CF8091D0018111D7CFC5
:1042C0000E94210C182FE091A902811147C0F0E053
:1042D000E252FD4F85E0AAE4B2E001900D928A958A
:1042E000E1F765E070E08AE492E00E94B60780930F
:1042F0004902C0904F02D0905002E0905102F090DD
:1043000052028091D1019091D201A091D301B0913C
:10431000D401C816D906EA06FB06D1F0C092D10135
:10432000D092D201E092D301F092D4010E94210CEC
:1043300081110EC00E946407C61AD70AE80AF90A5A
:10434000C092A402D092A502E092A602F092A70227
:10435000872DCDB7DEB7EEE00C946C2CAFE5B5E061
:1043600085E0ED0119928A95E9F7CE2FD0E0C2528F
:10437000DD4F809159058A3060F566E075E1CE0128
:104380000E946C0B882309F440C068EA74E1CE01F6
:104390000E946C0B8823C9F11092590581E080932B
:1043A000D701C091A802D0E0C252DD4F45E050E0F5
:1043B0006FE575E0CE010E94B32C892B49F285E0B0
:1043C000EFE5F5E0DE0101900D928A95E1F7712E9F
:1043D000BFCF8091D5019091D6010E947420843F77
:1043E000914058F68091D701882309F4B1CF1092FB
:1043F000D701E091A802F0E0E252FD4F95E0DF0125
:104400001D929A95E9F7782EA3CF809159058F3F99
:1044100031F08F5F809359058A3008F4BFCF0E9436
:1044200083209093D6018093D501DCCF1F921FB6D5
:104430001F9211248F939F93AF93BF9380912D036D
:10444000811113C080912E0390912F03A09130030E
:10445000B09131034196A11DB11D80932E0390931D
:104460002F03A0933003B0933103BF91AF919F917D
:104470008F911F901FBE1F901895CDB7DEB7AB97D9
:104480000FB6F894DEBF0FBECDBF85B7806885BF7D
:1044900085B7806885BF84B7877F84BF0FB6F894DF
:1044A000A895809160008861809360001092600000
:1044B0000FBE80E890E00FB6F8948093610090936F
:1044C00061000FBE85EE97E09093C5018093C40113
:1044D0000E94CB050E9496068091E2008460809342
:1044E000E2007894809143038823A1F01091E900C1
:1044F0001F709091EC00892F817090FD80E8182B3F
:104500001092E9008091E80083FD0E94810E1F70E7
:104510001093E90082E084BD93E095BD9AEF97BDCA
:1045200080936E001092A4021092A5021092A6022F
:104530001092A7020E94F113811102C00E94191368
:104540000E948815809109010E94881580910501BB
:104550000E94570B809106010E94570B8091070122
:104560000E94570B809108010E94570B00E011E058
:1045700095E0E92E91E0F92ED8018D918D010E94F0
:10458000570BE016F106C1F78091090195E0811102
:1045900090E09093A90285E0891B8093A8020E9475
:1045A000210C811102C00E94D92AEAE5F5E084E6D7
:1045B00095E0AEEDB2E011921D928E179F07D9F7EC
:1045C0000E949215811102C00E949E1582E090E027
:1045D0000E94C92C8093AE0284E090E00E94C92C16
:1045E000182F82E290E00E94C92C982F812F90937F
:1045F000AB028093AA020E948F20EFE3FCE931977F
:10460000F1F700C000000E948F208091DE0280FF41
:1046100008C06FEF7FEF90E080E00E94FB2C0E94CB
:10462000530783E090E00E94C92C0E94720E809193
:104630004D030E945A0A91E0833009F090E0892FDF
:104640000E946B0A0E94210C882309F40BC180E0B0
:104650008093D90280E880934E030E9490296DE0F8
:1046600070E08CE492E00E942012892BE9F58091A1
:10467000D90263E070E081FDF7C089E492E00E9416
:104680002012892B89F56DE070E089E392E00E94A9
:104690002012892B49F50E946407605A75418F4F9B
:1046A0009F4F609321037093220380932303909381
:1046B0002403E1E5F3E080E092E0DF019C011D923C
:1046C00021503040E1F7F0935805E09357058FEF04
:1046D0009FEF9093500380934F0381E080932603D4
:1046E000809325031092DA020E94210C811102C0EE
:1046F0000E94D92A0E94EC1E0E94210C81112EC01A
:104700008CEC97E090934901809348012EE030E0D3
:1047100030934401209343018EE290E0909347014F
:104720008093460141ED57E0509351014093500171
:1047300030934C0120934B0190934F0180934E0195
:1047400041E857E150935901409358013093540187
:104750002093530190935701809356010E94921524
:10476000882389F08FE090E00E94D12C8B01862F66
:104770008F770E946817001F0027001F1370110F0A
:10478000102B109305038AE591E090932A03809300
:1047900029038091430300E112E1853009F4A9C0A7
:1047A0000E948F20BFEAEB2EB2E0FB2E1AEA212EE8
:1047B00011E0312EB1012EED32E0F7019191D901D6
:1047C0008D919D01DB014D91BD018423B2E0E93B58
:1047D000FB0709F49AC0981789F30E94210C682EF0
:1047E000FAEACF2EF1E0DF2EAEEDAA2EA2E0BA2E2D
:1047F00000E0F50111915F01D6018D916D01182343
:10480000F70171907F01711629F17126912C88248E
:104810008394872D8821B1F06620A1F09EA20FA37A
:1048200091E0812F882109F490E098A70E948320CD
:104830008160782F9AA789A74EA15FA168A58AA554
:104840000E944C1E9394880CF8E09F12E2CFF7016F
:10485000319710830F5F0A3061F60E946407DD24F0
:10486000D39474C082E0F4CE86E492E008CF8091C5
:104870004303843041F10E944A120E942E0D10928F
:104880002D0348E150E080E40FB6F894A8954093DA
:1048900060000FBE8093600083B7817F846083BF18
:1048A00083B7816083BF7894889583B78E7F83BFF9
:1048B0000FB6F894A895809160008861809360009D
:1048C000109260000FBE80914203882391F00E94F5
:1048D0008F20AAEAB1E0EEEDF2E081919D9189236B
:1048E00009F02CC488EEC82E82E0D82ECE16DF0642
:1048F000A1F780914303853009F4B9CF10923603B4
:104900000E94770E0E94460C4BCF981366CF0E94F0
:1049100083208C018091AC029091AD020817190799
:10492000A1F08FEF89A38AA31BA20E94832081603C
:10493000782F9DA38CA349A15AA16BA18DA10E94A0
:104940004C1E1093AD020093AC02D12C0E94210C9E
:1049500080912603882351F18091DB029091DC0243
:104960000E947420C29708F010C120914F0330912B
:1049700050032115310509F0BCC18091250388231E
:10498000A9F00E9464070091210310912203209155
:10499000230330912403601B710B820B930B6F3F39
:1049A0007F4F8F4F9F4710F40E944A12D1100E94F0
:1049B00065120E942E0D0E94460C9091DD0289170F
:1049C00021F08093DD020E946407809143038430CC
:1049D00009F45BC20E94210C882309F4DACE0E94FC
:1049E00064072091EE0221116BC00091EA02109140
:1049F000EB022091EC023091ED026B017C01C01AB8
:104A0000D10AE20AF30A97018601043F1140210509
:104A1000310508F455C06093EA027093EB0280936D
:104A2000EC029093ED028091E8029091E9020196E8
:104A30009093E9028093E80219828E010F5F1F4F65
:104A400021E050E040E060E087E00E9452148111D4
:104A500006C08091E8029091E9020A978CF181E00A
:104A60008093EE028093F4029981911101C080E05D
:104A70008093F5028091F30210E0882329F00E94D0
:104A8000570C11E0811112E08091F502882309F49E
:104A900051C30E94570C81114FC382E0182B0E9412
:104AA000E8136B017C01DC01CB018C7FBC01CD01E3
:104AB000612BC616D706E806F90611F00E94FB1214
:104AC0008091F502882309F464CE0E9464076B018B
:104AD0007C018091EF029091F002A091F102B091DF
:104AE000F202A7019601281B390B4A0B5B0BDA0176
:104AF000C9010497A105B10580F119821A821B82B0
:104B00001C828E010F5F1F4F24E050E040E060E008
:104B100088E00E9452148823C1F069817A818091D3
:104B2000FA029091FB020E94300B9093FB0280935B
:104B3000FA026B817C818091FC029091FD020E94BF
:104B4000300B9093FD028093FC02C092EF02D09252
:104B5000F002E092F102F092F2028091FF028823CB
:104B600009F417CE8091FE02898310E000E020E076
:104B7000AE014F5F5F4F61E089E00E9452148823CD
:104B800009F407CE1092FF0204CE0E948320909376
:104B9000DC028093DB02E1E5EE2EE3E0FE2EF092F4
:104BA0005805E09257050E94210C882309F49CC007
:104BB00010910B03012F89E992E00E94EE0C809185
:104BC0000E038F708A3008F081C0805D0E946E0CE9
:104BD00085E992E00E94EE0C80910D038F708A307F
:104BE00008F076C0805D0E946E0C002309F476C048
:104BF00082E992E00E94EE0C812F82958F708A30BC
:104C000008F068C0805D0E946E0C812F8F708A3022
:104C100008F062C0805D0E946E0C8CEF810F8533BE
:104C200008F05CC08EE892E00E94EE0C212F245028
:104C3000330BF901E75AFD4F84910E946E0C85EB0E
:104C400092E00E94EE0C809111030E94050B0E94DD
:104C50000812809112030E94050B0E940812809195
:104C600014030E94050B0E940812809113030E94F6
:104C7000050B0E9408128CEA92E00E94EE0C8091D3
:104C8000FE02811101C082E00E94050B01960E9484
:104C9000081286EA92E00E94EE0C809100038111D6
:104CA00021C080E30E946E0C82EA92E00E94EE0C2A
:104CB00080910503811101C084E0805D0E946E0C2B
:104CC00080912603882309F458CE4FCE895A7ECF8F
:104CD000895A89CF895A97CF895A9DCF81E00E94FE
:104CE000FC0CADCF81E3DECF8BEB92E00E94EE0CAB
:104CF000E7CF8091DA0261E070E081113ECE082FAB
:104D000010E07B01082E02C0EE0CFF1C0A94E2F7B3
:104D1000A9014E215F21452B09F447C09091D9028A
:104D200090FD45C08295880F807680936801980138
:104D3000369527953695279520936B01815E809354
:104D4000690110926C0124E630E047E050E066E62D
:104D500071E088E70E94302A892B09F00ECEA80165
:104D600065E0440F551F6A95E1F78091D90280FDF7
:104D70002CC04F5A5C4F04E610E020E230E060E4C3
:104D800088E70E94512A892B09F0F7CD0E9465120D
:104D9000E094F09480914F0390915003E822F9221F
:104DA000F0925003E0924F03E8CD8F5FA8CF880FB9
:104DB000880F880F8093680110926B01895F809340
:104DC000690183E080936C01BECFE9EBF2E080E201
:104DD000DF011D928A95E9F706EA11E022EAA22E88
:104DE00021E0B22E3AEA432E31E0532ED801ED9164
:104DF0008D01D5016D915D01640F752F711D6F5A85
:104E00007C4FF0E0E754FD4F30E020E097E0692E62
:104E1000621ACC24C394022E01C0CC0C0A94EAF787
:104E20004B0190E0D4018D914D018C21A62DA91B41
:104E3000A770ABA70A2E000CBB0B782E0BA401C0E9
:104E4000770C0A94EAF77BA6B195A195B109A770F2
:104E5000BB2701C08695AA95EAF7782A8081782A2F
:104E600070829F5F9830F1F62F5F3F4F3196283068
:104E7000310561F64016510609F0B8CF04E610E09E
:104E800020E230E049EB52E07ACF83E08093E90002
:104E90008091E80082FF9ECD8091E80090E085FF40
:104EA00005C00E94EA05882399F091E08091E8000E
:104EB0008B778093E800992309F48CCDE981E15048
:104EC000E33108F07FC0F0E0E45DF04D0C949D2CE0
:104ED00080E2E82EF12C8E010F5F1F4F8091E800D9
:104EE00085FD0AC08091E8008B778093E8000E94DE
:104EF000EA05882399F3D9CF8091F100D8018D93E9
:104F00008D01B1E0EB1AF10849F7CFCF1A828AE0A0
:104F10008B8310C08A818230A1F18330A9F1813066
:104F200009F050C00E9464070E94A32C6B837C830D
:104F30008D839E8380914303843009F04BCD109183
:104F4000E9001F709091EC00892F817090FD80E83E
:104F5000182B82E08093E9008091E80080FF0DC06B
:104F600050E040E060E270E0CE0101960E941B0636
:104F70008091E8008E778093E8001F701093E9001D
:104F800029CD0E94E813D0CF9E012D5F3F4FEEED5B
:104F9000F2E08191D1019D911D018923D9018D9369
:104FA0009D01B2E0E83EFB07A1F7C4CF8A818230C1
:104FB00049F46B817C818D819E810E94A32C0E948B
:104FC000FB12B8CF8FEF8983B5CF4C816B818A817B
:104FD0000E9445139827892798279E838D83AACFFF
:104FE0002D813E813227232732274C816B818A8194
:104FF0000E949D129FCF0E94C3129CCF80E18A83A2
:1050000099CF81E08A8389E583CFCA80DB80DC2465
:10501000CD24DC248E010F5F1F4FEC80E00EF12EBB
:10502000F11CC60189559D4FE016F10609F482CFA7
:10503000E9E5CE16E1E0DE0658F40E94C92CD8015D
:1050400014968C93FFEFCF1ADF0A0F5F1F4FE9CF43
:10505000F8011482F7CF0A811B811027012710273E
:105060009E012F5F3F4F6901EC80E00EF12EF11C95
:10507000C80189559D4FE016F10609F45BCF09354B
:1050800031E0130728F4D60114966C910E94DD2CB0
:10509000BFEFCB1ADB0A0F5F1F4FEACF0E948D12C2
:1050A00049CF84E0ACCFCA80DB80DC24CD24DC2473
:1050B0008E010F5F1F4FEC80E00EF12EF11CC60138
:1050C0008796E016F10609F435CFE0E8CE16E2E067
:1050D000DE0658F40E94C92CD80114968C93FFEF79
:1050E000CF1ADF0A0F5F1F4FEACFF8011482F7CF04
:1050F0000A811B811027012710279E012F5F3F4F38
:105100006901EC80E00EF12EF11CC80187960E15A6
:105110001F0509F40FCF003832E0130728F4D60139
:1051200014966C910E94DD2CBFEFCB1ADB0A0F5F47
:105130001F4FEBCF80E0B2CC81E0B0CC09BD19BDF0
:1051400009B400FEFDCF8091D8008F7D8093D800F8
:105150008091E00082608093E0008091E00081FD1A
:10516000FCCF109236030E94770EC3CB289A219A67
:10517000229A23982B9880E58CBD089590916E011A
:105180009F3F09F071C08F3F09F46EC0611144C0A8
:105190001092650590916505423009F441C0433095
:1051A00009F442C094604130E1F141E050E042171F
:1051B0005307E0F1909165054031510509F452C063
:1051C000C0F54230510509F446C04830510509F494
:1051D00046C09CB520916505922B9CBD90916405BD
:1051E000992319F09DB591609DBD80936E01E82FC4
:1051F000E295EF70F0E031A1282F2F7081E090E070
:1052000001C0880F2A95EAF7382B31A392A1809527
:10521000892382A381E0089590E290936505BACF37
:10522000986090936505C1CF9C60FBCF440F551FDC
:10523000BECF4034510549F04038510541F040326D
:10524000510539F621E020936405926001C0936016
:1052500090936505BECF91E090936405BACF21E0AD
:10526000209364059160F4CF80E00895CF93DF939D
:105270008EBD0E948320EC010DB407FE05C08EB5E3
:1052800090E0DF91CF9108950E9483208C1B9D0BAD
:105290008436910588F38EEF9FEFF3CFCF93DF93A2
:1052A0001EBC0E948320EC010DB407FE05C08EB524
:1052B00090E0DF91CF9108950E9483208C1B9D0B7D
:1052C0008436910588F38EEF9FEFF3CF80916E01C6
:1052D0008F3F29F1E82FE295EF70F0E041A18F7048
:1052E00021E030E0B90102C0660F771F8A95E2F72E
:1052F000CB01942F982B91A392A1892B82A38FEF9E
:1053000080936E018DB58E7F8DBD9CB580916505B6
:10531000809589238CBD10926505109264050895CF
:105320001092B9008CE08093B8000895B0E0A0E03E
:10533000ECE9F9E20C94532CB82EEB010E94832087
:105340006C01EE24E394F12CC431D10560F025E02A
:10535000E22EF12CCF3FDC0731F0CE0164E170E0AA
:105360000E94382C7B0184EAA82E94E8992E109292
:10537000BC00A092BC000E9483208C018091BC00E4
:1053800087FF0DC08091B900887F8830F9F0809147
:10539000B900887F8031D1F00FEF1FEF08C0C8013E
:1053A0000E947420E816F90648F70EEF1FEFCF3F72
:1053B000DC07E9F2C6010E947420C817D907B8F6C5
:1053C000C801CDB7DEB7EBE00C946F2CB092BB00F8
:1053D0009092BC000E9483208C018091BC0087FFCA
:1053E0000AC08091B900887F883111F08034A1F61D
:1053F00010E000E0E5CFC8010E947420E816F9062D
:1054000060F7D3CF0F931F93CF93DF93EB0180937C
:10541000BB0084E88093BC000E9483208C018091B3
:10542000BC0087FF11C02091B900287F81E090E087
:10543000283211F490E080E0919581959109DF91F7
:10544000CF911F910F910895CF3FDC0741F3C80121
:105450000E947420C817D90710F78EEF9FEFEFCF87
:10546000B0E0A0E0E6E3FAE20C94562C6B018A016E
:105470007901B9010E949629E6010C0D1D1DC01786
:10548000D10711F097FF08C024E92093BC00CDB7E5
:10549000DEB7E8E00C94722CB70189910E94022AD1
:1054A000EECFB0E0A0E0E7E5FAE20C94562CC62F70
:1054B0006A017901B8010E94962997FD0CC0B801D4
:1054C0008C2F0E94022AE601EC0CFD1CCE15DF0594
:1054D00011F097FF08C024E92093BC00CDB7DEB7D8
:1054E000E8E00C94722CB80189910E94022AEECF58
:1054F00084E98093BC0008958EE14A9B02C08150EC
:10550000E1F74A9BFECF08955A9880E28A95F1F719
:105510005A9A0895FC013BE03A95F1F798E020E0B3
:1055200080E031E040E14A95F1F7880F4A9B02C0E4
:105530008160232742E04A95F1F7000040E14A9557
:10554000F1F7915079F790E19A95F1F799B132E03E
:105550003A95F1F7000040E14A95F1F792FB99275F
:1055600090F992272081920F90830895A1E0B0E0F6
:10557000ECEBFAE20C94582C19828C017C01E60EBB
:10558000F11C0E151F0541F481E09981911180E015
:105590002196E6E00C94742C0E947C2ACE010196A0
:1055A0000E948A2AF80181938F01EBCF529A5A9A6E
:1055B000089552985A9AEA9AE9E6F0E080818F7C41
:1055C000808308956150770B91E001C0990F6A952F
:1055D000EAF720E031E0911108C0222391F05A9AB5
:1055E00080E28A95F1F75A980895492F482339F0B7
:1055F0005A9A232740E24A95F1F79695ECCF5A98AC
:10560000F9CF5A98EDCFFF920F931F93CF93DF936B
:10561000EC018C01060F111DC017D10729F4CDB77D
:10562000DEB7E5E00C94752CF9900E94842A68E0BE
:105630008F2D0E94E22AF0CF1F920F920FB60F9289
:1056400011240F931F932F933F934F935F936F9367
:105650007F938F939F93AF93BF93EF93FF93CF93DA
:10566000DF930F92CDB7DEB719820E947C2ACE015C
:1056700001960E948A2A082F069506950695282FDE
:1056800022952570902F9570290F922F9370269553
:105690002695920F982797708981982B09F05CC006
:1056A0000B3008F059C080E18A95F1F75A9A529A66
:1056B00082E08A95F1F700C05A9888E0089F80013F
:1056C0001124D801A65FBE4F1696ED91FC91179755
:1056D0003097A9F06091A0017091A10114962D91CD
:1056E0003C911597260F371F11968D919C9112971B
:1056F000680F791F13964C9113978C910995F801B7
:10570000E65FFE4F6381662351F02091A001309146
:10571000A10184819581820F931F0E94032B0E9417
:10572000842A80E18A95F1F75A9852985A9A80E132
:105730008A95F1F7F801E65FFE4F6081662351F02C
:105740002091A0013091A10181819281820F931F4C
:105750000E94B62A0E947C2A0F90DF91CF91FF9180
:10576000EF91BF91AF919F918F917F916F915F91D9
:105770004F913F912F911F910F910F900FBE0F905E
:105780001F9018950F931F93CF93DF93EC010B9706
:105790000CF04CC0F894529A5A9885E08A95F1F72B
:1057A00000009C2F969595708C2F8570980F892FEF
:1057B00083709695969523E0CC0FDD1F2A95E1F72F
:1057C000980F8E01092B0E94842A00C068E0802F68
:1057D0000E94E22A80E18A95F1F752985A9A4A9BF0
:1057E0001EC087E090E04A991CC0FE01E65FFE4FB4
:1057F00063816623F9F02091A0013091A101848199
:105800009581820F931F0E94B62A811113C0529A6C
:105810005A9A7894DF91CF911F910F91089500C00B
:10582000DECF019729F4529A5A9A789480E0F2CF09
:1058300000C0D9CF0E947C2A80E28A95F1F75A985D
:10584000529A80E18A95F1F7C65FDE4F6881662340
:1058500051F02091A0013091A10189819A81820F9C
:10586000931F0E94032B0E94842A789481E0D2CF58
:10587000AA1BBB1B51E107C0AA1FBB1FA617B70776
:1058800010F0A61BB70B881F991F5A95A9F7809592
:105890009095BC01CD0108952F923F924F925F9257
:1058A0006F927F928F929F92AF92BF92CF92DF9230
:1058B000EF92FF920F931F93CF93DF93CDB7DEB795
:1058C000CA1BDB0B0FB6F894DEBF0FBECDBF099429
:1058D0002A88398848885F846E847D848C849B8480
:1058E000AA84B984C884DF80EE80FD800C811B818E
:1058F000AA81B981CE0FD11D0FB6F894DEBF0FBEBD
:10590000CDBFED010895991B79E004C0991F96174A
:1059100008F0961B881F7A95C9F78095089587FB34
:10592000082E062687FD819567FD61950E94832CD0
:105930000EF4919507FC81950895EE0FFF1F0590D9
:10594000F491E02D099469279627692778278727FE
:1059500078270895FB01DC0102C005900D924150AB
:105960005040D8F70895FB01DC0104C08D910190EF
:10597000801921F441505040C8F7881B990B0895B5
:10598000FB01DC0102C001900D9241505040D8F75C
:105990000895F999FECF92BD81BDF89A992780B5F7
:1059A0000895A6E1B0E044E050E00C94032DA8E196
:1059B000B0E042E050E00C94032D262FF999FECF81
:1059C00092BD81BDF89A019700B4021639F01FBA52
:1059D00020BD0FB6F894FA9AF99A0FBE089503966F
:1059E000272F0E94DE2C0E94DD2C252F0E94DE2C0A
:1059F000242F0C94DE2C0196272F0E94DE2C0C9471
:105A0000DD2CDC01CB01FC01F999FECF06C0F2BD13
:105A1000E1BDF89A319600B40D9241505040B8F76C
:105A200008955058BB27AA270E94292D0C94082EB0
:105A30000E94FA2D38F00E94012E20F039F49F3F89
:105A400019F426F40C94F72D0EF4E095E7FB0C9472
:105A5000F12DE92F0E94192E58F3BA176207730728
:105A60008407950720F079F4A6F50C943B2E0EF4EC
:105A7000E0950B2EBA2FA02D0B01B90190010C015E
:105A8000CA01A0011124FF27591B99F0593F50F476
:105A9000503E68F11A16F040A22F232F342F4427CE
:105AA000585FF3CF469537952795A795F0405395C6
:105AB000C9F77EF41F16BA0B620B730B840BBAF096
:105AC0009150A1F0FF0FBB1F661F771F881FC2F701
:105AD0000EC0BA0F621F731F841F48F48795779515
